{
	"Task3.sol": {
		"RomanToInteger": {
			"abi": [
				{
					"inputs": [],
					"stateMutability": "nonpayable",
					"type": "constructor"
				},
				{
					"inputs": [
						{
							"internalType": "string",
							"name": "s",
							"type": "string"
						}
					],
					"name": "romanToInt",
					"outputs": [
						{
							"internalType": "uint256",
							"name": "",
							"type": "uint256"
						}
					],
					"stateMutability": "view",
					"type": "function"
				}
			],
			"devdoc": {
				"kind": "dev",
				"methods": {},
				"version": 1
			},
			"evm": {
				"assembly": "    /* \"Task3.sol\":57:1273  contract RomanToInteger {... */\n  mstore(0x40, 0x80)\n    /* \"Task3.sol\":177:473  constructor() {... */\n  callvalue\n  dup1\n  iszero\n  tag_1\n  jumpi\n  revert(0x00, 0x00)\ntag_1:\n  pop\n    /* \"Task3.sol\":228:229  1 */\n  0x01\n    /* \"Task3.sol\":201:212  romanValues */\n  0x00\n    /* \"Task3.sol\":201:225  romanValues[bytes1('I')] */\n  0x00\n    /* \"Task3.sol\":213:224  bytes1('I') */\n  0x4900000000000000000000000000000000000000000000000000000000000000\n    /* \"Task3.sol\":201:225  romanValues[bytes1('I')] */\n  not(0xffffffffffffffffffffffffffffffffffffffffffffffffffffffffffffff)\n  and\n  not(0xffffffffffffffffffffffffffffffffffffffffffffffffffffffffffffff)\n  and\n  dup2\n  mstore\n  0x20\n  add\n  swap1\n  dup2\n  mstore\n  0x20\n  add\n  0x00\n  keccak256\n    /* \"Task3.sol\":201:229  romanValues[bytes1('I')] = 1 */\n  dup2\n  swap1\n  sstore\n  pop\n    /* \"Task3.sol\":266:267  5 */\n  0x05\n    /* \"Task3.sol\":239:250  romanValues */\n  0x00\n    /* \"Task3.sol\":239:263  romanValues[bytes1('V')] */\n  0x00\n    /* \"Task3.sol\":251:262  bytes1('V') */\n  0x5600000000000000000000000000000000000000000000000000000000000000\n    /* \"Task3.sol\":239:263  romanValues[bytes1('V')] */\n  not(0xffffffffffffffffffffffffffffffffffffffffffffffffffffffffffffff)\n  and\n  not(0xffffffffffffffffffffffffffffffffffffffffffffffffffffffffffffff)\n  and\n  dup2\n  mstore\n  0x20\n  add\n  swap1\n  dup2\n  mstore\n  0x20\n  add\n  0x00\n  keccak256\n    /* \"Task3.sol\":239:267  romanValues[bytes1('V')] = 5 */\n  dup2\n  swap1\n  sstore\n  pop\n    /* \"Task3.sol\":304:306  10 */\n  0x0a\n    /* \"Task3.sol\":277:288  romanValues */\n  0x00\n    /* \"Task3.sol\":277:301  romanValues[bytes1('X')] */\n  0x00\n    /* \"Task3.sol\":289:300  bytes1('X') */\n  0x5800000000000000000000000000000000000000000000000000000000000000\n    /* \"Task3.sol\":277:301  romanValues[bytes1('X')] */\n  not(0xffffffffffffffffffffffffffffffffffffffffffffffffffffffffffffff)\n  and\n  not(0xffffffffffffffffffffffffffffffffffffffffffffffffffffffffffffff)\n  and\n  dup2\n  mstore\n  0x20\n  add\n  swap1\n  dup2\n  mstore\n  0x20\n  add\n  0x00\n  keccak256\n    /* \"Task3.sol\":277:306  romanValues[bytes1('X')] = 10 */\n  dup2\n  swap1\n  sstore\n  pop\n    /* \"Task3.sol\":343:345  50 */\n  0x32\n    /* \"Task3.sol\":316:327  romanValues */\n  0x00\n    /* \"Task3.sol\":316:340  romanValues[bytes1('L')] */\n  0x00\n    /* \"Task3.sol\":328:339  bytes1('L') */\n  0x4c00000000000000000000000000000000000000000000000000000000000000\n    /* \"Task3.sol\":316:340  romanValues[bytes1('L')] */\n  not(0xffffffffffffffffffffffffffffffffffffffffffffffffffffffffffffff)\n  and\n  not(0xffffffffffffffffffffffffffffffffffffffffffffffffffffffffffffff)\n  and\n  dup2\n  mstore\n  0x20\n  add\n  swap1\n  dup2\n  mstore\n  0x20\n  add\n  0x00\n  keccak256\n    /* \"Task3.sol\":316:345  romanValues[bytes1('L')] = 50 */\n  dup2\n  swap1\n  sstore\n  pop\n    /* \"Task3.sol\":382:385  100 */\n  0x64\n    /* \"Task3.sol\":355:366  romanValues */\n  0x00\n    /* \"Task3.sol\":355:379  romanValues[bytes1('C')] */\n  0x00\n    /* \"Task3.sol\":367:378  bytes1('C') */\n  0x4300000000000000000000000000000000000000000000000000000000000000\n    /* \"Task3.sol\":355:379  romanValues[bytes1('C')] */\n  not(0xffffffffffffffffffffffffffffffffffffffffffffffffffffffffffffff)\n  and\n  not(0xffffffffffffffffffffffffffffffffffffffffffffffffffffffffffffff)\n  and\n  dup2\n  mstore\n  0x20\n  add\n  swap1\n  dup2\n  mstore\n  0x20\n  add\n  0x00\n  keccak256\n    /* \"Task3.sol\":355:385  romanValues[bytes1('C')] = 100 */\n  dup2\n  swap1\n  sstore\n  pop\n    /* \"Task3.sol\":422:425  500 */\n  0x01f4\n    /* \"Task3.sol\":395:406  romanValues */\n  0x00\n    /* \"Task3.sol\":395:419  romanValues[bytes1('D')] */\n  0x00\n    /* \"Task3.sol\":407:418  bytes1('D') */\n  0x4400000000000000000000000000000000000000000000000000000000000000\n    /* \"Task3.sol\":395:419  romanValues[bytes1('D')] */\n  not(0xffffffffffffffffffffffffffffffffffffffffffffffffffffffffffffff)\n  and\n  not(0xffffffffffffffffffffffffffffffffffffffffffffffffffffffffffffff)\n  and\n  dup2\n  mstore\n  0x20\n  add\n  swap1\n  dup2\n  mstore\n  0x20\n  add\n  0x00\n  keccak256\n    /* \"Task3.sol\":395:425  romanValues[bytes1('D')] = 500 */\n  dup2\n  swap1\n  sstore\n  pop\n    /* \"Task3.sol\":462:466  1000 */\n  0x03e8\n    /* \"Task3.sol\":435:446  romanValues */\n  0x00\n    /* \"Task3.sol\":435:459  romanValues[bytes1('M')] */\n  0x00\n    /* \"Task3.sol\":447:458  bytes1('M') */\n  0x4d00000000000000000000000000000000000000000000000000000000000000\n    /* \"Task3.sol\":435:459  romanValues[bytes1('M')] */\n  not(0xffffffffffffffffffffffffffffffffffffffffffffffffffffffffffffff)\n  and\n  not(0xffffffffffffffffffffffffffffffffffffffffffffffffffffffffffffff)\n  and\n  dup2\n  mstore\n  0x20\n  add\n  swap1\n  dup2\n  mstore\n  0x20\n  add\n  0x00\n  keccak256\n    /* \"Task3.sol\":435:466  romanValues[bytes1('M')] = 1000 */\n  dup2\n  swap1\n  sstore\n  pop\n    /* \"Task3.sol\":57:1273  contract RomanToInteger {... */\n  dataSize(sub_0)\n  dup1\n  dataOffset(sub_0)\n  0x00\n  codecopy\n  0x00\n  return\nstop\n\nsub_0: assembly {\n        /* \"Task3.sol\":57:1273  contract RomanToInteger {... */\n      mstore(0x40, 0x80)\n      callvalue\n      dup1\n      iszero\n      tag_1\n      jumpi\n      revert(0x00, 0x00)\n    tag_1:\n      pop\n      jumpi(tag_2, lt(calldatasize, 0x04))\n      shr(0xe0, calldataload(0x00))\n      dup1\n      0xcb159dfe\n      eq\n      tag_3\n      jumpi\n    tag_2:\n      revert(0x00, 0x00)\n        /* \"Task3.sol\":479:1271  function romanToInt(string calldata s) external view returns (uint256) {... */\n    tag_3:\n      tag_4\n      0x04\n      dup1\n      calldatasize\n      sub\n      dup2\n      add\n      swap1\n      tag_5\n      swap2\n      swap1\n      tag_6\n      jump\t// in\n    tag_5:\n      tag_7\n      jump\t// in\n    tag_4:\n      mload(0x40)\n      tag_8\n      swap2\n      swap1\n      tag_9\n      jump\t// in\n    tag_8:\n      mload(0x40)\n      dup1\n      swap2\n      sub\n      swap1\n      return\n    tag_7:\n        /* \"Task3.sol\":541:548  uint256 */\n      0x00\n        /* \"Task3.sol\":560:583  bytes memory romanBytes */\n      0x00\n        /* \"Task3.sol\":592:593  s */\n      dup4\n      dup4\n        /* \"Task3.sol\":560:594  bytes memory romanBytes = bytes(s) */\n      dup1\n      dup1\n      0x1f\n      add\n      0x20\n      dup1\n      swap2\n      div\n      mul\n      0x20\n      add\n      mload(0x40)\n      swap1\n      dup2\n      add\n      0x40\n      mstore\n      dup1\n      swap4\n      swap3\n      swap2\n      swap1\n      dup2\n      dup2\n      mstore\n      0x20\n      add\n      dup4\n      dup4\n      dup1\n      dup3\n      dup5\n      calldatacopy\n      0x00\n      dup2\n      dup5\n      add\n      mstore\n      not(0x1f)\n      0x1f\n      dup3\n      add\n      and\n      swap1\n      pop\n      dup1\n      dup4\n      add\n      swap3\n      pop\n      pop\n      pop\n      pop\n      pop\n      pop\n      pop\n      swap1\n      pop\n        /* \"Task3.sol\":604:618  uint256 length */\n      0x00\n        /* \"Task3.sol\":621:631  romanBytes */\n      dup2\n        /* \"Task3.sol\":621:638  romanBytes.length */\n      mload\n        /* \"Task3.sol\":604:638  uint256 length = romanBytes.length */\n      swap1\n      pop\n        /* \"Task3.sol\":665:666  0 */\n      0x00\n        /* \"Task3.sol\":656:662  length */\n      dup2\n        /* \"Task3.sol\":656:666  length > 0 */\n      gt\n        /* \"Task3.sol\":648:683  require(length > 0, \"Empty string\") */\n      tag_11\n      jumpi\n      mload(0x40)\n      0x08c379a000000000000000000000000000000000000000000000000000000000\n      dup2\n      mstore\n      0x04\n      add\n      tag_12\n      swap1\n      tag_13\n      jump\t// in\n    tag_12:\n      mload(0x40)\n      dup1\n      swap2\n      sub\n      swap1\n      revert\n    tag_11:\n        /* \"Task3.sol\":694:708  uint256 result */\n      0x00\n        /* \"Task3.sol\":711:712  0 */\n      0x00\n        /* \"Task3.sol\":694:712  uint256 result = 0 */\n      swap1\n      pop\n        /* \"Task3.sol\":722:739  uint256 prevValue */\n      0x00\n        /* \"Task3.sol\":742:743  0 */\n      0x00\n        /* \"Task3.sol\":722:743  uint256 prevValue = 0 */\n      swap1\n      pop\n        /* \"Task3.sol\":759:768  uint256 i */\n      0x00\n        /* \"Task3.sol\":771:777  length */\n      dup4\n        /* \"Task3.sol\":759:777  uint256 i = length */\n      swap1\n      pop\n        /* \"Task3.sol\":754:1242  for (uint256 i = length; i > 0; i--) {... */\n    tag_14:\n        /* \"Task3.sol\":783:784  0 */\n      0x00\n        /* \"Task3.sol\":779:780  i */\n      dup2\n        /* \"Task3.sol\":779:784  i > 0 */\n      gt\n        /* \"Task3.sol\":754:1242  for (uint256 i = length; i > 0; i--) {... */\n      iszero\n      tag_15\n      jumpi\n        /* \"Task3.sol\":868:886  bytes1 currentChar */\n      0x00\n        /* \"Task3.sol\":889:899  romanBytes */\n      dup6\n        /* \"Task3.sol\":904:905  1 */\n      0x01\n        /* \"Task3.sol\":900:901  i */\n      dup4\n        /* \"Task3.sol\":900:905  i - 1 */\n      tag_17\n      swap2\n      swap1\n      tag_18\n      jump\t// in\n    tag_17:\n        /* \"Task3.sol\":889:906  romanBytes[i - 1] */\n      dup2\n      mload\n      dup2\n      lt\n      tag_19\n      jumpi\n      tag_20\n      tag_21\n      jump\t// in\n    tag_20:\n    tag_19:\n      0x20\n      add\n      add\n      mload\n      0xf8\n      shr\n      0xf8\n      shl\n        /* \"Task3.sol\":868:906  bytes1 currentChar = romanBytes[i - 1] */\n      swap1\n      pop\n        /* \"Task3.sol\":920:940  uint256 currentValue */\n      0x00\n        /* \"Task3.sol\":943:954  romanValues */\n      0x00\n        /* \"Task3.sol\":943:967  romanValues[currentChar] */\n      0x00\n        /* \"Task3.sol\":955:966  currentChar */\n      dup4\n        /* \"Task3.sol\":943:967  romanValues[currentChar] */\n      not(0xffffffffffffffffffffffffffffffffffffffffffffffffffffffffffffff)\n      and\n      not(0xffffffffffffffffffffffffffffffffffffffffffffffffffffffffffffff)\n      and\n      dup2\n      mstore\n      0x20\n      add\n      swap1\n      dup2\n      mstore\n      0x20\n      add\n      0x00\n      keccak256\n      sload\n        /* \"Task3.sol\":920:967  uint256 currentValue = romanValues[currentChar] */\n      swap1\n      pop\n        /* \"Task3.sol\":1004:1005  0 */\n      0x00\n        /* \"Task3.sol\":989:1001  currentValue */\n      dup2\n        /* \"Task3.sol\":989:1005  currentValue > 0 */\n      gt\n        /* \"Task3.sol\":981:1033  require(currentValue > 0, \"Invalid Roman character\") */\n      tag_22\n      jumpi\n      mload(0x40)\n      0x08c379a000000000000000000000000000000000000000000000000000000000\n      dup2\n      mstore\n      0x04\n      add\n      tag_23\n      swap1\n      tag_24\n      jump\t// in\n    tag_23:\n      mload(0x40)\n      dup1\n      swap2\n      sub\n      swap1\n      revert\n    tag_22:\n        /* \"Task3.sol\":1067:1076  prevValue */\n      dup4\n        /* \"Task3.sol\":1052:1064  currentValue */\n      dup2\n        /* \"Task3.sol\":1052:1076  currentValue < prevValue */\n      lt\n        /* \"Task3.sol\":1048:1194  if (currentValue < prevValue) {... */\n      iszero\n      tag_25\n      jumpi\n        /* \"Task3.sol\":1106:1118  currentValue */\n      dup1\n        /* \"Task3.sol\":1096:1118  result -= currentValue */\n      dup6\n      tag_26\n      swap2\n      swap1\n      tag_18\n      jump\t// in\n    tag_26:\n      swap5\n      pop\n        /* \"Task3.sol\":1048:1194  if (currentValue < prevValue) {... */\n      jump(tag_27)\n    tag_25:\n        /* \"Task3.sol\":1167:1179  currentValue */\n      dup1\n        /* \"Task3.sol\":1157:1179  result += currentValue */\n      dup6\n      tag_28\n      swap2\n      swap1\n      tag_29\n      jump\t// in\n    tag_28:\n      swap5\n      pop\n        /* \"Task3.sol\":1048:1194  if (currentValue < prevValue) {... */\n    tag_27:\n        /* \"Task3.sol\":1219:1231  currentValue */\n      dup1\n        /* \"Task3.sol\":1207:1231  prevValue = currentValue */\n      swap4\n      pop\n        /* \"Task3.sol\":791:1242  {... */\n      pop\n      pop\n        /* \"Task3.sol\":786:789  i-- */\n      dup1\n      dup1\n      tag_30\n      swap1\n      tag_31\n      jump\t// in\n    tag_30:\n      swap2\n      pop\n      pop\n        /* \"Task3.sol\":754:1242  for (uint256 i = length; i > 0; i--) {... */\n      jump(tag_14)\n    tag_15:\n      pop\n        /* \"Task3.sol\":1258:1264  result */\n      dup2\n        /* \"Task3.sol\":1251:1264  return result */\n      swap5\n      pop\n      pop\n      pop\n      pop\n      pop\n        /* \"Task3.sol\":479:1271  function romanToInt(string calldata s) external view returns (uint256) {... */\n      swap3\n      swap2\n      pop\n      pop\n      jump\t// out\n        /* \"#utility.yul\":88:205   */\n    tag_33:\n        /* \"#utility.yul\":197:198   */\n      0x00\n        /* \"#utility.yul\":194:195   */\n      0x00\n        /* \"#utility.yul\":187:199   */\n      revert\n        /* \"#utility.yul\":211:328   */\n    tag_34:\n        /* \"#utility.yul\":320:321   */\n      0x00\n        /* \"#utility.yul\":317:318   */\n      0x00\n        /* \"#utility.yul\":310:322   */\n      revert\n        /* \"#utility.yul\":334:451   */\n    tag_35:\n        /* \"#utility.yul\":443:444   */\n      0x00\n        /* \"#utility.yul\":440:441   */\n      0x00\n        /* \"#utility.yul\":433:445   */\n      revert\n        /* \"#utility.yul\":457:574   */\n    tag_36:\n        /* \"#utility.yul\":566:567   */\n      0x00\n        /* \"#utility.yul\":563:564   */\n      0x00\n        /* \"#utility.yul\":556:568   */\n      revert\n        /* \"#utility.yul\":580:697   */\n    tag_37:\n        /* \"#utility.yul\":689:690   */\n      0x00\n        /* \"#utility.yul\":686:687   */\n      0x00\n        /* \"#utility.yul\":679:691   */\n      revert\n        /* \"#utility.yul\":717:1270   */\n    tag_38:\n        /* \"#utility.yul\":775:783   */\n      0x00\n        /* \"#utility.yul\":785:791   */\n      0x00\n        /* \"#utility.yul\":835:838   */\n      dup4\n        /* \"#utility.yul\":828:832   */\n      0x1f\n        /* \"#utility.yul\":820:826   */\n      dup5\n        /* \"#utility.yul\":816:833   */\n      add\n        /* \"#utility.yul\":812:839   */\n      slt\n        /* \"#utility.yul\":802:924   */\n      tag_55\n      jumpi\n        /* \"#utility.yul\":843:922   */\n      tag_56\n      tag_35\n      jump\t// in\n    tag_56:\n        /* \"#utility.yul\":802:924   */\n    tag_55:\n        /* \"#utility.yul\":956:962   */\n      dup3\n        /* \"#utility.yul\":943:963   */\n      calldataload\n        /* \"#utility.yul\":933:963   */\n      swap1\n      pop\n        /* \"#utility.yul\":986:1004   */\n      0xffffffffffffffff\n        /* \"#utility.yul\":978:984   */\n      dup2\n        /* \"#utility.yul\":975:1005   */\n      gt\n        /* \"#utility.yul\":972:1089   */\n      iszero\n      tag_57\n      jumpi\n        /* \"#utility.yul\":1008:1087   */\n      tag_58\n      tag_36\n      jump\t// in\n    tag_58:\n        /* \"#utility.yul\":972:1089   */\n    tag_57:\n        /* \"#utility.yul\":1122:1126   */\n      0x20\n        /* \"#utility.yul\":1114:1120   */\n      dup4\n        /* \"#utility.yul\":1110:1127   */\n      add\n        /* \"#utility.yul\":1098:1127   */\n      swap2\n      pop\n        /* \"#utility.yul\":1176:1179   */\n      dup4\n        /* \"#utility.yul\":1168:1172   */\n      0x01\n        /* \"#utility.yul\":1160:1166   */\n      dup3\n        /* \"#utility.yul\":1156:1173   */\n      mul\n        /* \"#utility.yul\":1146:1154   */\n      dup4\n        /* \"#utility.yul\":1142:1174   */\n      add\n        /* \"#utility.yul\":1139:1180   */\n      gt\n        /* \"#utility.yul\":1136:1264   */\n      iszero\n      tag_59\n      jumpi\n        /* \"#utility.yul\":1183:1262   */\n      tag_60\n      tag_37\n      jump\t// in\n    tag_60:\n        /* \"#utility.yul\":1136:1264   */\n    tag_59:\n        /* \"#utility.yul\":717:1270   */\n      swap3\n      pop\n      swap3\n      swap1\n      pop\n      jump\t// out\n        /* \"#utility.yul\":1276:1805   */\n    tag_6:\n        /* \"#utility.yul\":1347:1353   */\n      0x00\n        /* \"#utility.yul\":1355:1361   */\n      0x00\n        /* \"#utility.yul\":1404:1406   */\n      0x20\n        /* \"#utility.yul\":1392:1401   */\n      dup4\n        /* \"#utility.yul\":1383:1390   */\n      dup6\n        /* \"#utility.yul\":1379:1402   */\n      sub\n        /* \"#utility.yul\":1375:1407   */\n      slt\n        /* \"#utility.yul\":1372:1491   */\n      iszero\n      tag_62\n      jumpi\n        /* \"#utility.yul\":1410:1489   */\n      tag_63\n      tag_33\n      jump\t// in\n    tag_63:\n        /* \"#utility.yul\":1372:1491   */\n    tag_62:\n        /* \"#utility.yul\":1558:1559   */\n      0x00\n        /* \"#utility.yul\":1547:1556   */\n      dup4\n        /* \"#utility.yul\":1543:1560   */\n      add\n        /* \"#utility.yul\":1530:1561   */\n      calldataload\n        /* \"#utility.yul\":1588:1606   */\n      0xffffffffffffffff\n        /* \"#utility.yul\":1580:1586   */\n      dup2\n        /* \"#utility.yul\":1577:1607   */\n      gt\n        /* \"#utility.yul\":1574:1691   */\n      iszero\n      tag_64\n      jumpi\n        /* \"#utility.yul\":1610:1689   */\n      tag_65\n      tag_34\n      jump\t// in\n    tag_65:\n        /* \"#utility.yul\":1574:1691   */\n    tag_64:\n        /* \"#utility.yul\":1723:1788   */\n      tag_66\n        /* \"#utility.yul\":1780:1787   */\n      dup6\n        /* \"#utility.yul\":1771:1777   */\n      dup3\n        /* \"#utility.yul\":1760:1769   */\n      dup7\n        /* \"#utility.yul\":1756:1778   */\n      add\n        /* \"#utility.yul\":1723:1788   */\n      tag_38\n      jump\t// in\n    tag_66:\n        /* \"#utility.yul\":1705:1788   */\n      swap3\n      pop\n      swap3\n      pop\n        /* \"#utility.yul\":1501:1798   */\n      pop\n        /* \"#utility.yul\":1276:1805   */\n      swap3\n      pop\n      swap3\n      swap1\n      pop\n      jump\t// out\n        /* \"#utility.yul\":1811:1888   */\n    tag_39:\n        /* \"#utility.yul\":1848:1855   */\n      0x00\n        /* \"#utility.yul\":1877:1882   */\n      dup2\n        /* \"#utility.yul\":1866:1882   */\n      swap1\n      pop\n        /* \"#utility.yul\":1811:1888   */\n      swap2\n      swap1\n      pop\n      jump\t// out\n        /* \"#utility.yul\":1894:2012   */\n    tag_40:\n        /* \"#utility.yul\":1981:2005   */\n      tag_69\n        /* \"#utility.yul\":1999:2004   */\n      dup2\n        /* \"#utility.yul\":1981:2005   */\n      tag_39\n      jump\t// in\n    tag_69:\n        /* \"#utility.yul\":1976:1979   */\n      dup3\n        /* \"#utility.yul\":1969:2006   */\n      mstore\n        /* \"#utility.yul\":1894:2012   */\n      pop\n      pop\n      jump\t// out\n        /* \"#utility.yul\":2018:2240   */\n    tag_9:\n        /* \"#utility.yul\":2111:2115   */\n      0x00\n        /* \"#utility.yul\":2149:2151   */\n      0x20\n        /* \"#utility.yul\":2138:2147   */\n      dup3\n        /* \"#utility.yul\":2134:2152   */\n      add\n        /* \"#utility.yul\":2126:2152   */\n      swap1\n      pop\n        /* \"#utility.yul\":2162:2233   */\n      tag_71\n        /* \"#utility.yul\":2230:2231   */\n      0x00\n        /* \"#utility.yul\":2219:2228   */\n      dup4\n        /* \"#utility.yul\":2215:2232   */\n      add\n        /* \"#utility.yul\":2206:2212   */\n      dup5\n        /* \"#utility.yul\":2162:2233   */\n      tag_40\n      jump\t// in\n    tag_71:\n        /* \"#utility.yul\":2018:2240   */\n      swap3\n      swap2\n      pop\n      pop\n      jump\t// out\n        /* \"#utility.yul\":2246:2415   */\n    tag_41:\n        /* \"#utility.yul\":2330:2341   */\n      0x00\n        /* \"#utility.yul\":2364:2370   */\n      dup3\n        /* \"#utility.yul\":2359:2362   */\n      dup3\n        /* \"#utility.yul\":2352:2371   */\n      mstore\n        /* \"#utility.yul\":2404:2408   */\n      0x20\n        /* \"#utility.yul\":2399:2402   */\n      dup3\n        /* \"#utility.yul\":2395:2409   */\n      add\n        /* \"#utility.yul\":2380:2409   */\n      swap1\n      pop\n        /* \"#utility.yul\":2246:2415   */\n      swap3\n      swap2\n      pop\n      pop\n      jump\t// out\n        /* \"#utility.yul\":2421:2583   */\n    tag_42:\n        /* \"#utility.yul\":2561:2575   */\n      0x456d70747920737472696e670000000000000000000000000000000000000000\n        /* \"#utility.yul\":2557:2558   */\n      0x00\n        /* \"#utility.yul\":2549:2555   */\n      dup3\n        /* \"#utility.yul\":2545:2559   */\n      add\n        /* \"#utility.yul\":2538:2576   */\n      mstore\n        /* \"#utility.yul\":2421:2583   */\n      pop\n      jump\t// out\n        /* \"#utility.yul\":2589:2955   */\n    tag_43:\n        /* \"#utility.yul\":2731:2734   */\n      0x00\n        /* \"#utility.yul\":2752:2819   */\n      tag_75\n        /* \"#utility.yul\":2816:2818   */\n      0x0c\n        /* \"#utility.yul\":2811:2814   */\n      dup4\n        /* \"#utility.yul\":2752:2819   */\n      tag_41\n      jump\t// in\n    tag_75:\n        /* \"#utility.yul\":2745:2819   */\n      swap2\n      pop\n        /* \"#utility.yul\":2828:2921   */\n      tag_76\n        /* \"#utility.yul\":2917:2920   */\n      dup3\n        /* \"#utility.yul\":2828:2921   */\n      tag_42\n      jump\t// in\n    tag_76:\n        /* \"#utility.yul\":2946:2948   */\n      0x20\n        /* \"#utility.yul\":2941:2944   */\n      dup3\n        /* \"#utility.yul\":2937:2949   */\n      add\n        /* \"#utility.yul\":2930:2949   */\n      swap1\n      pop\n        /* \"#utility.yul\":2589:2955   */\n      swap2\n      swap1\n      pop\n      jump\t// out\n        /* \"#utility.yul\":2961:3380   */\n    tag_13:\n        /* \"#utility.yul\":3127:3131   */\n      0x00\n        /* \"#utility.yul\":3165:3167   */\n      0x20\n        /* \"#utility.yul\":3154:3163   */\n      dup3\n        /* \"#utility.yul\":3150:3168   */\n      add\n        /* \"#utility.yul\":3142:3168   */\n      swap1\n      pop\n        /* \"#utility.yul\":3214:3223   */\n      dup2\n        /* \"#utility.yul\":3208:3212   */\n      dup2\n        /* \"#utility.yul\":3204:3224   */\n      sub\n        /* \"#utility.yul\":3200:3201   */\n      0x00\n        /* \"#utility.yul\":3189:3198   */\n      dup4\n        /* \"#utility.yul\":3185:3202   */\n      add\n        /* \"#utility.yul\":3178:3225   */\n      mstore\n        /* \"#utility.yul\":3242:3373   */\n      tag_78\n        /* \"#utility.yul\":3368:3372   */\n      dup2\n        /* \"#utility.yul\":3242:3373   */\n      tag_43\n      jump\t// in\n    tag_78:\n        /* \"#utility.yul\":3234:3373   */\n      swap1\n      pop\n        /* \"#utility.yul\":2961:3380   */\n      swap2\n      swap1\n      pop\n      jump\t// out\n        /* \"#utility.yul\":3386:3566   */\n    tag_44:\n        /* \"#utility.yul\":3434:3511   */\n      0x4e487b7100000000000000000000000000000000000000000000000000000000\n        /* \"#utility.yul\":3431:3432   */\n      0x00\n        /* \"#utility.yul\":3424:3512   */\n      mstore\n        /* \"#utility.yul\":3531:3535   */\n      0x11\n        /* \"#utility.yul\":3528:3529   */\n      0x04\n        /* \"#utility.yul\":3521:3536   */\n      mstore\n        /* \"#utility.yul\":3555:3559   */\n      0x24\n        /* \"#utility.yul\":3552:3553   */\n      0x00\n        /* \"#utility.yul\":3545:3560   */\n      revert\n        /* \"#utility.yul\":3572:3766   */\n    tag_18:\n        /* \"#utility.yul\":3612:3616   */\n      0x00\n        /* \"#utility.yul\":3632:3652   */\n      tag_81\n        /* \"#utility.yul\":3650:3651   */\n      dup3\n        /* \"#utility.yul\":3632:3652   */\n      tag_39\n      jump\t// in\n    tag_81:\n        /* \"#utility.yul\":3627:3652   */\n      swap2\n      pop\n        /* \"#utility.yul\":3666:3686   */\n      tag_82\n        /* \"#utility.yul\":3684:3685   */\n      dup4\n        /* \"#utility.yul\":3666:3686   */\n      tag_39\n      jump\t// in\n    tag_82:\n        /* \"#utility.yul\":3661:3686   */\n      swap3\n      pop\n        /* \"#utility.yul\":3710:3711   */\n      dup3\n        /* \"#utility.yul\":3707:3708   */\n      dup3\n        /* \"#utility.yul\":3703:3712   */\n      sub\n        /* \"#utility.yul\":3695:3712   */\n      swap1\n      pop\n        /* \"#utility.yul\":3734:3735   */\n      dup2\n        /* \"#utility.yul\":3728:3732   */\n      dup2\n        /* \"#utility.yul\":3725:3736   */\n      gt\n        /* \"#utility.yul\":3722:3759   */\n      iszero\n      tag_83\n      jumpi\n        /* \"#utility.yul\":3739:3757   */\n      tag_84\n      tag_44\n      jump\t// in\n    tag_84:\n        /* \"#utility.yul\":3722:3759   */\n    tag_83:\n        /* \"#utility.yul\":3572:3766   */\n      swap3\n      swap2\n      pop\n      pop\n      jump\t// out\n        /* \"#utility.yul\":3772:3952   */\n    tag_21:\n        /* \"#utility.yul\":3820:3897   */\n      0x4e487b7100000000000000000000000000000000000000000000000000000000\n        /* \"#utility.yul\":3817:3818   */\n      0x00\n        /* \"#utility.yul\":3810:3898   */\n      mstore\n        /* \"#utility.yul\":3917:3921   */\n      0x32\n        /* \"#utility.yul\":3914:3915   */\n      0x04\n        /* \"#utility.yul\":3907:3922   */\n      mstore\n        /* \"#utility.yul\":3941:3945   */\n      0x24\n        /* \"#utility.yul\":3938:3939   */\n      0x00\n        /* \"#utility.yul\":3931:3946   */\n      revert\n        /* \"#utility.yul\":3958:4131   */\n    tag_45:\n        /* \"#utility.yul\":4098:4123   */\n      0x496e76616c696420526f6d616e20636861726163746572000000000000000000\n        /* \"#utility.yul\":4094:4095   */\n      0x00\n        /* \"#utility.yul\":4086:4092   */\n      dup3\n        /* \"#utility.yul\":4082:4096   */\n      add\n        /* \"#utility.yul\":4075:4124   */\n      mstore\n        /* \"#utility.yul\":3958:4131   */\n      pop\n      jump\t// out\n        /* \"#utility.yul\":4137:4503   */\n    tag_46:\n        /* \"#utility.yul\":4279:4282   */\n      0x00\n        /* \"#utility.yul\":4300:4367   */\n      tag_88\n        /* \"#utility.yul\":4364:4366   */\n      0x17\n        /* \"#utility.yul\":4359:4362   */\n      dup4\n        /* \"#utility.yul\":4300:4367   */\n      tag_41\n      jump\t// in\n    tag_88:\n        /* \"#utility.yul\":4293:4367   */\n      swap2\n      pop\n        /* \"#utility.yul\":4376:4469   */\n      tag_89\n        /* \"#utility.yul\":4465:4468   */\n      dup3\n        /* \"#utility.yul\":4376:4469   */\n      tag_45\n      jump\t// in\n    tag_89:\n        /* \"#utility.yul\":4494:4496   */\n      0x20\n        /* \"#utility.yul\":4489:4492   */\n      dup3\n        /* \"#utility.yul\":4485:4497   */\n      add\n        /* \"#utility.yul\":4478:4497   */\n      swap1\n      pop\n        /* \"#utility.yul\":4137:4503   */\n      swap2\n      swap1\n      pop\n      jump\t// out\n        /* \"#utility.yul\":4509:4928   */\n    tag_24:\n        /* \"#utility.yul\":4675:4679   */\n      0x00\n        /* \"#utility.yul\":4713:4715   */\n      0x20\n        /* \"#utility.yul\":4702:4711   */\n      dup3\n        /* \"#utility.yul\":4698:4716   */\n      add\n        /* \"#utility.yul\":4690:4716   */\n      swap1\n      pop\n        /* \"#utility.yul\":4762:4771   */\n      dup2\n        /* \"#utility.yul\":4756:4760   */\n      dup2\n        /* \"#utility.yul\":4752:4772   */\n      sub\n        /* \"#utility.yul\":4748:4749   */\n      0x00\n        /* \"#utility.yul\":4737:4746   */\n      dup4\n        /* \"#utility.yul\":4733:4750   */\n      add\n        /* \"#utility.yul\":4726:4773   */\n      mstore\n        /* \"#utility.yul\":4790:4921   */\n      tag_91\n        /* \"#utility.yul\":4916:4920   */\n      dup2\n        /* \"#utility.yul\":4790:4921   */\n      tag_46\n      jump\t// in\n    tag_91:\n        /* \"#utility.yul\":4782:4921   */\n      swap1\n      pop\n        /* \"#utility.yul\":4509:4928   */\n      swap2\n      swap1\n      pop\n      jump\t// out\n        /* \"#utility.yul\":4934:5125   */\n    tag_29:\n        /* \"#utility.yul\":4974:4977   */\n      0x00\n        /* \"#utility.yul\":4993:5013   */\n      tag_93\n        /* \"#utility.yul\":5011:5012   */\n      dup3\n        /* \"#utility.yul\":4993:5013   */\n      tag_39\n      jump\t// in\n    tag_93:\n        /* \"#utility.yul\":4988:5013   */\n      swap2\n      pop\n        /* \"#utility.yul\":5027:5047   */\n      tag_94\n        /* \"#utility.yul\":5045:5046   */\n      dup4\n        /* \"#utility.yul\":5027:5047   */\n      tag_39\n      jump\t// in\n    tag_94:\n        /* \"#utility.yul\":5022:5047   */\n      swap3\n      pop\n        /* \"#utility.yul\":5070:5071   */\n      dup3\n        /* \"#utility.yul\":5067:5068   */\n      dup3\n        /* \"#utility.yul\":5063:5072   */\n      add\n        /* \"#utility.yul\":5056:5072   */\n      swap1\n      pop\n        /* \"#utility.yul\":5091:5094   */\n      dup1\n        /* \"#utility.yul\":5088:5089   */\n      dup3\n        /* \"#utility.yul\":5085:5095   */\n      gt\n        /* \"#utility.yul\":5082:5118   */\n      iszero\n      tag_95\n      jumpi\n        /* \"#utility.yul\":5098:5116   */\n      tag_96\n      tag_44\n      jump\t// in\n    tag_96:\n        /* \"#utility.yul\":5082:5118   */\n    tag_95:\n        /* \"#utility.yul\":4934:5125   */\n      swap3\n      swap2\n      pop\n      pop\n      jump\t// out\n        /* \"#utility.yul\":5131:5302   */\n    tag_31:\n        /* \"#utility.yul\":5170:5173   */\n      0x00\n        /* \"#utility.yul\":5193:5217   */\n      tag_98\n        /* \"#utility.yul\":5211:5216   */\n      dup3\n        /* \"#utility.yul\":5193:5217   */\n      tag_39\n      jump\t// in\n    tag_98:\n        /* \"#utility.yul\":5184:5217   */\n      swap2\n      pop\n        /* \"#utility.yul\":5239:5243   */\n      0x00\n        /* \"#utility.yul\":5232:5237   */\n      dup3\n        /* \"#utility.yul\":5229:5244   */\n      sub\n        /* \"#utility.yul\":5226:5267   */\n      tag_99\n      jumpi\n        /* \"#utility.yul\":5247:5265   */\n      tag_100\n      tag_44\n      jump\t// in\n    tag_100:\n        /* \"#utility.yul\":5226:5267   */\n    tag_99:\n        /* \"#utility.yul\":5294:5295   */\n      0x01\n        /* \"#utility.yul\":5287:5292   */\n      dup3\n        /* \"#utility.yul\":5283:5296   */\n      sub\n        /* \"#utility.yul\":5276:5296   */\n      swap1\n      pop\n        /* \"#utility.yul\":5131:5302   */\n      swap2\n      swap1\n      pop\n      jump\t// out\n\n    auxdata: 0xa2646970667358221220967ec9d2b2b831d6f1900a81ea4692c379a836d3d03730564af64824f35eea8564736f6c634300081e0033\n}\n",
				"bytecode": {
					"linkReferences": {},
					"object": "608060405234801561000f575f5ffd5b5060015f5f7f49000000000000000000000000000000000000000000000000000000000000007effffffffffffffffffffffffffffffffffffffffffffffffffffffffffffff19167effffffffffffffffffffffffffffffffffffffffffffffffffffffffffffff191681526020019081526020015f208190555060055f5f7f56000000000000000000000000000000000000000000000000000000000000007effffffffffffffffffffffffffffffffffffffffffffffffffffffffffffff19167effffffffffffffffffffffffffffffffffffffffffffffffffffffffffffff191681526020019081526020015f2081905550600a5f5f7f58000000000000000000000000000000000000000000000000000000000000007effffffffffffffffffffffffffffffffffffffffffffffffffffffffffffff19167effffffffffffffffffffffffffffffffffffffffffffffffffffffffffffff191681526020019081526020015f208190555060325f5f7f4c000000000000000000000000000000000000000000000000000000000000007effffffffffffffffffffffffffffffffffffffffffffffffffffffffffffff19167effffffffffffffffffffffffffffffffffffffffffffffffffffffffffffff191681526020019081526020015f208190555060645f5f7f43000000000000000000000000000000000000000000000000000000000000007effffffffffffffffffffffffffffffffffffffffffffffffffffffffffffff19167effffffffffffffffffffffffffffffffffffffffffffffffffffffffffffff191681526020019081526020015f20819055506101f45f5f7f44000000000000000000000000000000000000000000000000000000000000007effffffffffffffffffffffffffffffffffffffffffffffffffffffffffffff19167effffffffffffffffffffffffffffffffffffffffffffffffffffffffffffff191681526020019081526020015f20819055506103e85f5f7f4d000000000000000000000000000000000000000000000000000000000000007effffffffffffffffffffffffffffffffffffffffffffffffffffffffffffff19167effffffffffffffffffffffffffffffffffffffffffffffffffffffffffffff191681526020019081526020015f20819055506104fa806103755f395ff3fe608060405234801561000f575f5ffd5b5060043610610029575f3560e01c8063cb159dfe1461002d575b5f5ffd5b61004760048036038101906100429190610281565b61005d565b60405161005491906102e4565b60405180910390f35b5f5f83838080601f0160208091040260200160405190810160405280939291908181526020018383808284375f81840152601f19601f8201169050808301925050505050505090505f815190505f81116100ec576040517f08c379a00000000000000000000000000000000000000000000000000000000081526004016100e390610357565b60405180910390fd5b5f5f90505f5f90505f8390505b5f81111561020a575f8560018361011091906103a2565b81518110610121576101206103d5565b5b602001015160f81c60f81b90505f5f5f837effffffffffffffffffffffffffffffffffffffffffffffffffffffffffffff19167effffffffffffffffffffffffffffffffffffffffffffffffffffffffffffff191681526020019081526020015f205490505f81116101c8576040517f08c379a00000000000000000000000000000000000000000000000000000000081526004016101bf9061044c565b60405180910390fd5b838110156101e35780856101dc91906103a2565b94506101f2565b80856101ef919061046a565b94505b809350505080806102029061049d565b9150506100f9565b508194505050505092915050565b5f5ffd5b5f5ffd5b5f5ffd5b5f5ffd5b5f5ffd5b5f5f83601f84011261024157610240610220565b5b8235905067ffffffffffffffff81111561025e5761025d610224565b5b60208301915083600182028301111561027a57610279610228565b5b9250929050565b5f5f6020838503121561029757610296610218565b5b5f83013567ffffffffffffffff8111156102b4576102b361021c565b5b6102c08582860161022c565b92509250509250929050565b5f819050919050565b6102de816102cc565b82525050565b5f6020820190506102f75f8301846102d5565b92915050565b5f82825260208201905092915050565b7f456d70747920737472696e6700000000000000000000000000000000000000005f82015250565b5f610341600c836102fd565b915061034c8261030d565b602082019050919050565b5f6020820190508181035f83015261036e81610335565b9050919050565b7f4e487b71000000000000000000000000000000000000000000000000000000005f52601160045260245ffd5b5f6103ac826102cc565b91506103b7836102cc565b92508282039050818111156103cf576103ce610375565b5b92915050565b7f4e487b71000000000000000000000000000000000000000000000000000000005f52603260045260245ffd5b7f496e76616c696420526f6d616e206368617261637465720000000000000000005f82015250565b5f6104366017836102fd565b915061044182610402565b602082019050919050565b5f6020820190508181035f8301526104638161042a565b9050919050565b5f610474826102cc565b915061047f836102cc565b925082820190508082111561049757610496610375565b5b92915050565b5f6104a7826102cc565b91505f82036104b9576104b8610375565b5b60018203905091905056fea2646970667358221220967ec9d2b2b831d6f1900a81ea4692c379a836d3d03730564af64824f35eea8564736f6c634300081e0033",
					"opcodes": "PUSH1 0x80 PUSH1 0x40 MSTORE CALLVALUE DUP1 ISZERO PUSH2 0xF JUMPI PUSH0 PUSH0 REVERT JUMPDEST POP PUSH1 0x1 PUSH0 PUSH0 PUSH32 0x4900000000000000000000000000000000000000000000000000000000000000 PUSH31 0xFFFFFFFFFFFFFFFFFFFFFFFFFFFFFFFFFFFFFFFFFFFFFFFFFFFFFFFFFFFFFF NOT AND PUSH31 0xFFFFFFFFFFFFFFFFFFFFFFFFFFFFFFFFFFFFFFFFFFFFFFFFFFFFFFFFFFFFFF NOT AND DUP2 MSTORE PUSH1 0x20 ADD SWAP1 DUP2 MSTORE PUSH1 0x20 ADD PUSH0 KECCAK256 DUP2 SWAP1 SSTORE POP PUSH1 0x5 PUSH0 PUSH0 PUSH32 0x5600000000000000000000000000000000000000000000000000000000000000 PUSH31 0xFFFFFFFFFFFFFFFFFFFFFFFFFFFFFFFFFFFFFFFFFFFFFFFFFFFFFFFFFFFFFF NOT AND PUSH31 0xFFFFFFFFFFFFFFFFFFFFFFFFFFFFFFFFFFFFFFFFFFFFFFFFFFFFFFFFFFFFFF NOT AND DUP2 MSTORE PUSH1 0x20 ADD SWAP1 DUP2 MSTORE PUSH1 0x20 ADD PUSH0 KECCAK256 DUP2 SWAP1 SSTORE POP PUSH1 0xA PUSH0 PUSH0 PUSH32 0x5800000000000000000000000000000000000000000000000000000000000000 PUSH31 0xFFFFFFFFFFFFFFFFFFFFFFFFFFFFFFFFFFFFFFFFFFFFFFFFFFFFFFFFFFFFFF NOT AND PUSH31 0xFFFFFFFFFFFFFFFFFFFFFFFFFFFFFFFFFFFFFFFFFFFFFFFFFFFFFFFFFFFFFF NOT AND DUP2 MSTORE PUSH1 0x20 ADD SWAP1 DUP2 MSTORE PUSH1 0x20 ADD PUSH0 KECCAK256 DUP2 SWAP1 SSTORE POP PUSH1 0x32 PUSH0 PUSH0 PUSH32 0x4C00000000000000000000000000000000000000000000000000000000000000 PUSH31 0xFFFFFFFFFFFFFFFFFFFFFFFFFFFFFFFFFFFFFFFFFFFFFFFFFFFFFFFFFFFFFF NOT AND PUSH31 0xFFFFFFFFFFFFFFFFFFFFFFFFFFFFFFFFFFFFFFFFFFFFFFFFFFFFFFFFFFFFFF NOT AND DUP2 MSTORE PUSH1 0x20 ADD SWAP1 DUP2 MSTORE PUSH1 0x20 ADD PUSH0 KECCAK256 DUP2 SWAP1 SSTORE POP PUSH1 0x64 PUSH0 PUSH0 PUSH32 0x4300000000000000000000000000000000000000000000000000000000000000 PUSH31 0xFFFFFFFFFFFFFFFFFFFFFFFFFFFFFFFFFFFFFFFFFFFFFFFFFFFFFFFFFFFFFF NOT AND PUSH31 0xFFFFFFFFFFFFFFFFFFFFFFFFFFFFFFFFFFFFFFFFFFFFFFFFFFFFFFFFFFFFFF NOT AND DUP2 MSTORE PUSH1 0x20 ADD SWAP1 DUP2 MSTORE PUSH1 0x20 ADD PUSH0 KECCAK256 DUP2 SWAP1 SSTORE POP PUSH2 0x1F4 PUSH0 PUSH0 PUSH32 0x4400000000000000000000000000000000000000000000000000000000000000 PUSH31 0xFFFFFFFFFFFFFFFFFFFFFFFFFFFFFFFFFFFFFFFFFFFFFFFFFFFFFFFFFFFFFF NOT AND PUSH31 0xFFFFFFFFFFFFFFFFFFFFFFFFFFFFFFFFFFFFFFFFFFFFFFFFFFFFFFFFFFFFFF NOT AND DUP2 MSTORE PUSH1 0x20 ADD SWAP1 DUP2 MSTORE PUSH1 0x20 ADD PUSH0 KECCAK256 DUP2 SWAP1 SSTORE POP PUSH2 0x3E8 PUSH0 PUSH0 PUSH32 0x4D00000000000000000000000000000000000000000000000000000000000000 PUSH31 0xFFFFFFFFFFFFFFFFFFFFFFFFFFFFFFFFFFFFFFFFFFFFFFFFFFFFFFFFFFFFFF NOT AND PUSH31 0xFFFFFFFFFFFFFFFFFFFFFFFFFFFFFFFFFFFFFFFFFFFFFFFFFFFFFFFFFFFFFF NOT AND DUP2 MSTORE PUSH1 0x20 ADD SWAP1 DUP2 MSTORE PUSH1 0x20 ADD PUSH0 KECCAK256 DUP2 SWAP1 SSTORE POP PUSH2 0x4FA DUP1 PUSH2 0x375 PUSH0 CODECOPY PUSH0 RETURN INVALID PUSH1 0x80 PUSH1 0x40 MSTORE CALLVALUE DUP1 ISZERO PUSH2 0xF JUMPI PUSH0 PUSH0 REVERT JUMPDEST POP PUSH1 0x4 CALLDATASIZE LT PUSH2 0x29 JUMPI PUSH0 CALLDATALOAD PUSH1 0xE0 SHR DUP1 PUSH4 0xCB159DFE EQ PUSH2 0x2D JUMPI JUMPDEST PUSH0 PUSH0 REVERT JUMPDEST PUSH2 0x47 PUSH1 0x4 DUP1 CALLDATASIZE SUB DUP2 ADD SWAP1 PUSH2 0x42 SWAP2 SWAP1 PUSH2 0x281 JUMP JUMPDEST PUSH2 0x5D JUMP JUMPDEST PUSH1 0x40 MLOAD PUSH2 0x54 SWAP2 SWAP1 PUSH2 0x2E4 JUMP JUMPDEST PUSH1 0x40 MLOAD DUP1 SWAP2 SUB SWAP1 RETURN JUMPDEST PUSH0 PUSH0 DUP4 DUP4 DUP1 DUP1 PUSH1 0x1F ADD PUSH1 0x20 DUP1 SWAP2 DIV MUL PUSH1 0x20 ADD PUSH1 0x40 MLOAD SWAP1 DUP2 ADD PUSH1 0x40 MSTORE DUP1 SWAP4 SWAP3 SWAP2 SWAP1 DUP2 DUP2 MSTORE PUSH1 0x20 ADD DUP4 DUP4 DUP1 DUP3 DUP5 CALLDATACOPY PUSH0 DUP2 DUP5 ADD MSTORE PUSH1 0x1F NOT PUSH1 0x1F DUP3 ADD AND SWAP1 POP DUP1 DUP4 ADD SWAP3 POP POP POP POP POP POP POP SWAP1 POP PUSH0 DUP2 MLOAD SWAP1 POP PUSH0 DUP2 GT PUSH2 0xEC JUMPI PUSH1 0x40 MLOAD PUSH32 0x8C379A000000000000000000000000000000000000000000000000000000000 DUP2 MSTORE PUSH1 0x4 ADD PUSH2 0xE3 SWAP1 PUSH2 0x357 JUMP JUMPDEST PUSH1 0x40 MLOAD DUP1 SWAP2 SUB SWAP1 REVERT JUMPDEST PUSH0 PUSH0 SWAP1 POP PUSH0 PUSH0 SWAP1 POP PUSH0 DUP4 SWAP1 POP JUMPDEST PUSH0 DUP2 GT ISZERO PUSH2 0x20A JUMPI PUSH0 DUP6 PUSH1 0x1 DUP4 PUSH2 0x110 SWAP2 SWAP1 PUSH2 0x3A2 JUMP JUMPDEST DUP2 MLOAD DUP2 LT PUSH2 0x121 JUMPI PUSH2 0x120 PUSH2 0x3D5 JUMP JUMPDEST JUMPDEST PUSH1 0x20 ADD ADD MLOAD PUSH1 0xF8 SHR PUSH1 0xF8 SHL SWAP1 POP PUSH0 PUSH0 PUSH0 DUP4 PUSH31 0xFFFFFFFFFFFFFFFFFFFFFFFFFFFFFFFFFFFFFFFFFFFFFFFFFFFFFFFFFFFFFF NOT AND PUSH31 0xFFFFFFFFFFFFFFFFFFFFFFFFFFFFFFFFFFFFFFFFFFFFFFFFFFFFFFFFFFFFFF NOT AND DUP2 MSTORE PUSH1 0x20 ADD SWAP1 DUP2 MSTORE PUSH1 0x20 ADD PUSH0 KECCAK256 SLOAD SWAP1 POP PUSH0 DUP2 GT PUSH2 0x1C8 JUMPI PUSH1 0x40 MLOAD PUSH32 0x8C379A000000000000000000000000000000000000000000000000000000000 DUP2 MSTORE PUSH1 0x4 ADD PUSH2 0x1BF SWAP1 PUSH2 0x44C JUMP JUMPDEST PUSH1 0x40 MLOAD DUP1 SWAP2 SUB SWAP1 REVERT JUMPDEST DUP4 DUP2 LT ISZERO PUSH2 0x1E3 JUMPI DUP1 DUP6 PUSH2 0x1DC SWAP2 SWAP1 PUSH2 0x3A2 JUMP JUMPDEST SWAP5 POP PUSH2 0x1F2 JUMP JUMPDEST DUP1 DUP6 PUSH2 0x1EF SWAP2 SWAP1 PUSH2 0x46A JUMP JUMPDEST SWAP5 POP JUMPDEST DUP1 SWAP4 POP POP POP DUP1 DUP1 PUSH2 0x202 SWAP1 PUSH2 0x49D JUMP JUMPDEST SWAP2 POP POP PUSH2 0xF9 JUMP JUMPDEST POP DUP2 SWAP5 POP POP POP POP POP SWAP3 SWAP2 POP POP JUMP JUMPDEST PUSH0 PUSH0 REVERT JUMPDEST PUSH0 PUSH0 REVERT JUMPDEST PUSH0 PUSH0 REVERT JUMPDEST PUSH0 PUSH0 REVERT JUMPDEST PUSH0 PUSH0 REVERT JUMPDEST PUSH0 PUSH0 DUP4 PUSH1 0x1F DUP5 ADD SLT PUSH2 0x241 JUMPI PUSH2 0x240 PUSH2 0x220 JUMP JUMPDEST JUMPDEST DUP3 CALLDATALOAD SWAP1 POP PUSH8 0xFFFFFFFFFFFFFFFF DUP2 GT ISZERO PUSH2 0x25E JUMPI PUSH2 0x25D PUSH2 0x224 JUMP JUMPDEST JUMPDEST PUSH1 0x20 DUP4 ADD SWAP2 POP DUP4 PUSH1 0x1 DUP3 MUL DUP4 ADD GT ISZERO PUSH2 0x27A JUMPI PUSH2 0x279 PUSH2 0x228 JUMP JUMPDEST JUMPDEST SWAP3 POP SWAP3 SWAP1 POP JUMP JUMPDEST PUSH0 PUSH0 PUSH1 0x20 DUP4 DUP6 SUB SLT ISZERO PUSH2 0x297 JUMPI PUSH2 0x296 PUSH2 0x218 JUMP JUMPDEST JUMPDEST PUSH0 DUP4 ADD CALLDATALOAD PUSH8 0xFFFFFFFFFFFFFFFF DUP2 GT ISZERO PUSH2 0x2B4 JUMPI PUSH2 0x2B3 PUSH2 0x21C JUMP JUMPDEST JUMPDEST PUSH2 0x2C0 DUP6 DUP3 DUP7 ADD PUSH2 0x22C JUMP JUMPDEST SWAP3 POP SWAP3 POP POP SWAP3 POP SWAP3 SWAP1 POP JUMP JUMPDEST PUSH0 DUP2 SWAP1 POP SWAP2 SWAP1 POP JUMP JUMPDEST PUSH2 0x2DE DUP2 PUSH2 0x2CC JUMP JUMPDEST DUP3 MSTORE POP POP JUMP JUMPDEST PUSH0 PUSH1 0x20 DUP3 ADD SWAP1 POP PUSH2 0x2F7 PUSH0 DUP4 ADD DUP5 PUSH2 0x2D5 JUMP JUMPDEST SWAP3 SWAP2 POP POP JUMP JUMPDEST PUSH0 DUP3 DUP3 MSTORE PUSH1 0x20 DUP3 ADD SWAP1 POP SWAP3 SWAP2 POP POP JUMP JUMPDEST PUSH32 0x456D70747920737472696E670000000000000000000000000000000000000000 PUSH0 DUP3 ADD MSTORE POP JUMP JUMPDEST PUSH0 PUSH2 0x341 PUSH1 0xC DUP4 PUSH2 0x2FD JUMP JUMPDEST SWAP2 POP PUSH2 0x34C DUP3 PUSH2 0x30D JUMP JUMPDEST PUSH1 0x20 DUP3 ADD SWAP1 POP SWAP2 SWAP1 POP JUMP JUMPDEST PUSH0 PUSH1 0x20 DUP3 ADD SWAP1 POP DUP2 DUP2 SUB PUSH0 DUP4 ADD MSTORE PUSH2 0x36E DUP2 PUSH2 0x335 JUMP JUMPDEST SWAP1 POP SWAP2 SWAP1 POP JUMP JUMPDEST PUSH32 0x4E487B7100000000000000000000000000000000000000000000000000000000 PUSH0 MSTORE PUSH1 0x11 PUSH1 0x4 MSTORE PUSH1 0x24 PUSH0 REVERT JUMPDEST PUSH0 PUSH2 0x3AC DUP3 PUSH2 0x2CC JUMP JUMPDEST SWAP2 POP PUSH2 0x3B7 DUP4 PUSH2 0x2CC JUMP JUMPDEST SWAP3 POP DUP3 DUP3 SUB SWAP1 POP DUP2 DUP2 GT ISZERO PUSH2 0x3CF JUMPI PUSH2 0x3CE PUSH2 0x375 JUMP JUMPDEST JUMPDEST SWAP3 SWAP2 POP POP JUMP JUMPDEST PUSH32 0x4E487B7100000000000000000000000000000000000000000000000000000000 PUSH0 MSTORE PUSH1 0x32 PUSH1 0x4 MSTORE PUSH1 0x24 PUSH0 REVERT JUMPDEST PUSH32 0x496E76616C696420526F6D616E20636861726163746572000000000000000000 PUSH0 DUP3 ADD MSTORE POP JUMP JUMPDEST PUSH0 PUSH2 0x436 PUSH1 0x17 DUP4 PUSH2 0x2FD JUMP JUMPDEST SWAP2 POP PUSH2 0x441 DUP3 PUSH2 0x402 JUMP JUMPDEST PUSH1 0x20 DUP3 ADD SWAP1 POP SWAP2 SWAP1 POP JUMP JUMPDEST PUSH0 PUSH1 0x20 DUP3 ADD SWAP1 POP DUP2 DUP2 SUB PUSH0 DUP4 ADD MSTORE PUSH2 0x463 DUP2 PUSH2 0x42A JUMP JUMPDEST SWAP1 POP SWAP2 SWAP1 POP JUMP JUMPDEST PUSH0 PUSH2 0x474 DUP3 PUSH2 0x2CC JUMP JUMPDEST SWAP2 POP PUSH2 0x47F DUP4 PUSH2 0x2CC JUMP JUMPDEST SWAP3 POP DUP3 DUP3 ADD SWAP1 POP DUP1 DUP3 GT ISZERO PUSH2 0x497 JUMPI PUSH2 0x496 PUSH2 0x375 JUMP JUMPDEST JUMPDEST SWAP3 SWAP2 POP POP JUMP JUMPDEST PUSH0 PUSH2 0x4A7 DUP3 PUSH2 0x2CC JUMP JUMPDEST SWAP2 POP PUSH0 DUP3 SUB PUSH2 0x4B9 JUMPI PUSH2 0x4B8 PUSH2 0x375 JUMP JUMPDEST JUMPDEST PUSH1 0x1 DUP3 SUB SWAP1 POP SWAP2 SWAP1 POP JUMP INVALID LOG2 PUSH5 0x6970667358 0x22 SLT KECCAK256 SWAP7 PUSH31 0xC9D2B2B831D6F1900A81EA4692C379A836D3D03730564AF64824F35EEA8564 PUSH20 0x6F6C634300081E00330000000000000000000000 "
				},
				"gasEstimates": {
					"creation": {
						"codeDepositCost": "254800",
						"executionCost": "155741",
						"totalCost": "410541"
					},
					"external": {
						"romanToInt(string)": "infinite"
					}
				},
				"methodIdentifiers": {
					"romanToInt(string)": "cb159dfe"
				}
			},
			"storageLayout": {
				"storage": [
					{
						"astId": 5,
						"contract": "Task3.sol:RomanToInteger",
						"label": "romanValues",
						"offset": 0,
						"slot": "0",
						"type": "t_mapping(t_bytes1,t_uint256)"
					}
				],
				"types": {
					"t_bytes1": {
						"encoding": "inplace",
						"label": "bytes1",
						"numberOfBytes": "1"
					},
					"t_mapping(t_bytes1,t_uint256)": {
						"encoding": "mapping",
						"key": "t_bytes1",
						"label": "mapping(bytes1 => uint256)",
						"numberOfBytes": "32",
						"value": "t_uint256"
					},
					"t_uint256": {
						"encoding": "inplace",
						"label": "uint256",
						"numberOfBytes": "32"
					}
				}
			},
			"userdoc": {
				"kind": "user",
				"methods": {},
				"version": 1
			}
		}
	}
}