{
	"Basic_Grammar_Tasks/Task1.sol": {
		"Voting": {
			"abi": [
				{
					"inputs": [],
					"stateMutability": "nonpayable",
					"type": "constructor"
				},
				{
					"inputs": [
						{
							"internalType": "string",
							"name": "candidate",
							"type": "string"
						}
					],
					"name": "getVotes",
					"outputs": [
						{
							"internalType": "uint256",
							"name": "",
							"type": "uint256"
						}
					],
					"stateMutability": "view",
					"type": "function"
				},
				{
					"inputs": [],
					"name": "resetVotes",
					"outputs": [],
					"stateMutability": "nonpayable",
					"type": "function"
				},
				{
					"inputs": [
						{
							"internalType": "string",
							"name": "candidate",
							"type": "string"
						}
					],
					"name": "vote",
					"outputs": [
						{
							"internalType": "bool",
							"name": "",
							"type": "bool"
						}
					],
					"stateMutability": "nonpayable",
					"type": "function"
				}
			],
			"devdoc": {
				"kind": "dev",
				"methods": {},
				"version": 1
			},
			"evm": {
				"assembly": "    /* \"Basic_Grammar_Tasks/Task1.sol\":338:1784  contract Voting {... */\n  mstore(0x40, 0x80)\n    /* \"Basic_Grammar_Tasks/Task1.sol\":438:792  constructor() {... */\n  callvalue\n  dup1\n  iszero\n  tag_1\n  jumpi\n  revert(0x00, 0x00)\ntag_1:\n  pop\n    /* \"Basic_Grammar_Tasks/Task1.sol\":490:491  0 */\n  0x00\n    /* \"Basic_Grammar_Tasks/Task1.sol\":462:467  votes */\n  0x00\n    /* \"Basic_Grammar_Tasks/Task1.sol\":462:487  votes[unicode\"张学友\"] */\n  mload(0x40)\n  tag_4\n  swap1\n  tag_5\n  jump\t// in\ntag_4:\n  swap1\n  dup2\n  mstore\n  0x20\n  add\n  mload(0x40)\n  dup1\n  swap2\n  sub\n  swap1\n  keccak256\n    /* \"Basic_Grammar_Tasks/Task1.sol\":462:491  votes[unicode\"张学友\"] = 0 */\n  dup2\n  swap1\n  sstore\n  pop\n    /* \"Basic_Grammar_Tasks/Task1.sol\":501:511  candidates */\n  0x01\n    /* \"Basic_Grammar_Tasks/Task1.sol\":501:536  candidates.push(unicode\"张学友\") */\n  dup1\n  0x01\n  dup2\n  sload\n  add\n  dup1\n  dup3\n  sstore\n  dup1\n  swap2\n  pop\n  pop\n  0x01\n  swap1\n  sub\n  swap1\n  0x00\n  mstore\n  keccak256(0x00, 0x20)\n  add\n  0x00\n  mload(0x40)\n  dup1\n  0x40\n  add\n  0x40\n  mstore\n  dup1\n  0x09\n  dup2\n  mstore\n  0x20\n  add\n  0xe5bca0e5ada6e58f8b0000000000000000000000000000000000000000000000\n  dup2\n  mstore\n  pop\n  swap1\n  swap2\n  swap1\n  swap2\n  pop\n  swap1\n  dup2\n  tag_7\n  swap2\n  swap1\n  tag_8\n  jump\t// in\ntag_7:\n  pop\n    /* \"Basic_Grammar_Tasks/Task1.sol\":572:573  0 */\n  0x00\n    /* \"Basic_Grammar_Tasks/Task1.sol\":547:552  votes */\n  0x00\n    /* \"Basic_Grammar_Tasks/Task1.sol\":547:569  votes[unicode\"黎明\"] */\n  mload(0x40)\n  tag_9\n  swap1\n  tag_10\n  jump\t// in\ntag_9:\n  swap1\n  dup2\n  mstore\n  0x20\n  add\n  mload(0x40)\n  dup1\n  swap2\n  sub\n  swap1\n  keccak256\n    /* \"Basic_Grammar_Tasks/Task1.sol\":547:573  votes[unicode\"黎明\"] = 0 */\n  dup2\n  swap1\n  sstore\n  pop\n    /* \"Basic_Grammar_Tasks/Task1.sol\":583:593  candidates */\n  0x01\n    /* \"Basic_Grammar_Tasks/Task1.sol\":583:615  candidates.push(unicode\"黎明\") */\n  dup1\n  0x01\n  dup2\n  sload\n  add\n  dup1\n  dup3\n  sstore\n  dup1\n  swap2\n  pop\n  pop\n  0x01\n  swap1\n  sub\n  swap1\n  0x00\n  mstore\n  keccak256(0x00, 0x20)\n  add\n  0x00\n  mload(0x40)\n  dup1\n  0x40\n  add\n  0x40\n  mstore\n  dup1\n  0x06\n  dup2\n  mstore\n  0x20\n  add\n  0xe9bb8ee6988e0000000000000000000000000000000000000000000000000000\n  dup2\n  mstore\n  pop\n  swap1\n  swap2\n  swap1\n  swap2\n  pop\n  swap1\n  dup2\n  tag_12\n  swap2\n  swap1\n  tag_8\n  jump\t// in\ntag_12:\n  pop\n    /* \"Basic_Grammar_Tasks/Task1.sol\":654:655  0 */\n  0x00\n    /* \"Basic_Grammar_Tasks/Task1.sol\":626:631  votes */\n  0x00\n    /* \"Basic_Grammar_Tasks/Task1.sol\":626:651  votes[unicode\"郭富城\"] */\n  mload(0x40)\n  tag_13\n  swap1\n  tag_14\n  jump\t// in\ntag_13:\n  swap1\n  dup2\n  mstore\n  0x20\n  add\n  mload(0x40)\n  dup1\n  swap2\n  sub\n  swap1\n  keccak256\n    /* \"Basic_Grammar_Tasks/Task1.sol\":626:655  votes[unicode\"郭富城\"] = 0 */\n  dup2\n  swap1\n  sstore\n  pop\n    /* \"Basic_Grammar_Tasks/Task1.sol\":665:675  candidates */\n  0x01\n    /* \"Basic_Grammar_Tasks/Task1.sol\":665:700  candidates.push(unicode\"郭富城\") */\n  dup1\n  0x01\n  dup2\n  sload\n  add\n  dup1\n  dup3\n  sstore\n  dup1\n  swap2\n  pop\n  pop\n  0x01\n  swap1\n  sub\n  swap1\n  0x00\n  mstore\n  keccak256(0x00, 0x20)\n  add\n  0x00\n  mload(0x40)\n  dup1\n  0x40\n  add\n  0x40\n  mstore\n  dup1\n  0x09\n  dup2\n  mstore\n  0x20\n  add\n  0xe983ade5af8ce59f8e0000000000000000000000000000000000000000000000\n  dup2\n  mstore\n  pop\n  swap1\n  swap2\n  swap1\n  swap2\n  pop\n  swap1\n  dup2\n  tag_16\n  swap2\n  swap1\n  tag_8\n  jump\t// in\ntag_16:\n  pop\n    /* \"Basic_Grammar_Tasks/Task1.sol\":739:740  0 */\n  0x00\n    /* \"Basic_Grammar_Tasks/Task1.sol\":711:716  votes */\n  0x00\n    /* \"Basic_Grammar_Tasks/Task1.sol\":711:736  votes[unicode\"刘德华\"] */\n  mload(0x40)\n  tag_17\n  swap1\n  tag_18\n  jump\t// in\ntag_17:\n  swap1\n  dup2\n  mstore\n  0x20\n  add\n  mload(0x40)\n  dup1\n  swap2\n  sub\n  swap1\n  keccak256\n    /* \"Basic_Grammar_Tasks/Task1.sol\":711:740  votes[unicode\"刘德华\"] = 0 */\n  dup2\n  swap1\n  sstore\n  pop\n    /* \"Basic_Grammar_Tasks/Task1.sol\":750:760  candidates */\n  0x01\n    /* \"Basic_Grammar_Tasks/Task1.sol\":750:785  candidates.push(unicode\"刘德华\") */\n  dup1\n  0x01\n  dup2\n  sload\n  add\n  dup1\n  dup3\n  sstore\n  dup1\n  swap2\n  pop\n  pop\n  0x01\n  swap1\n  sub\n  swap1\n  0x00\n  mstore\n  keccak256(0x00, 0x20)\n  add\n  0x00\n  mload(0x40)\n  dup1\n  0x40\n  add\n  0x40\n  mstore\n  dup1\n  0x09\n  dup2\n  mstore\n  0x20\n  add\n  0xe58898e5beb7e58d8e0000000000000000000000000000000000000000000000\n  dup2\n  mstore\n  pop\n  swap1\n  swap2\n  swap1\n  swap2\n  pop\n  swap1\n  dup2\n  tag_20\n  swap2\n  swap1\n  tag_8\n  jump\t// in\ntag_20:\n  pop\n    /* \"Basic_Grammar_Tasks/Task1.sol\":338:1784  contract Voting {... */\n  jump(tag_21)\n    /* \"#utility.yul\":7:155   */\ntag_22:\n    /* \"#utility.yul\":109:120   */\n  0x00\n    /* \"#utility.yul\":146:149   */\n  dup2\n    /* \"#utility.yul\":131:149   */\n  swap1\n  pop\n    /* \"#utility.yul\":7:155   */\n  swap3\n  swap2\n  pop\n  pop\n  jump\t// out\n    /* \"#utility.yul\":161:375   */\ntag_23:\n    /* \"#utility.yul\":301:367   */\n  0xe5bca0e5ada6e58f8b0000000000000000000000000000000000000000000000\n    /* \"#utility.yul\":297:298   */\n  0x00\n    /* \"#utility.yul\":289:295   */\n  dup3\n    /* \"#utility.yul\":285:299   */\n  add\n    /* \"#utility.yul\":278:368   */\n  mstore\n    /* \"#utility.yul\":161:375   */\n  pop\n  jump\t// out\n    /* \"#utility.yul\":381:781   */\ntag_24:\n    /* \"#utility.yul\":541:544   */\n  0x00\n    /* \"#utility.yul\":562:646   */\n  tag_55\n    /* \"#utility.yul\":644:645   */\n  0x09\n    /* \"#utility.yul\":639:642   */\n  dup4\n    /* \"#utility.yul\":562:646   */\n  tag_22\n  jump\t// in\ntag_55:\n    /* \"#utility.yul\":555:646   */\n  swap2\n  pop\n    /* \"#utility.yul\":655:748   */\n  tag_56\n    /* \"#utility.yul\":744:747   */\n  dup3\n    /* \"#utility.yul\":655:748   */\n  tag_23\n  jump\t// in\ntag_56:\n    /* \"#utility.yul\":773:774   */\n  0x09\n    /* \"#utility.yul\":768:771   */\n  dup3\n    /* \"#utility.yul\":764:775   */\n  add\n    /* \"#utility.yul\":757:775   */\n  swap1\n  pop\n    /* \"#utility.yul\":381:781   */\n  swap2\n  swap1\n  pop\n  jump\t// out\n    /* \"#utility.yul\":787:1168   */\ntag_5:\n    /* \"#utility.yul\":972:975   */\n  0x00\n    /* \"#utility.yul\":994:1142   */\n  tag_58\n    /* \"#utility.yul\":1138:1141   */\n  dup3\n    /* \"#utility.yul\":994:1142   */\n  tag_24\n  jump\t// in\ntag_58:\n    /* \"#utility.yul\":987:1142   */\n  swap2\n  pop\n    /* \"#utility.yul\":1159:1162   */\n  dup2\n    /* \"#utility.yul\":1152:1162   */\n  swap1\n  pop\n    /* \"#utility.yul\":787:1168   */\n  swap2\n  swap1\n  pop\n  jump\t// out\n    /* \"#utility.yul\":1174:1273   */\ntag_25:\n    /* \"#utility.yul\":1226:1232   */\n  0x00\n    /* \"#utility.yul\":1260:1265   */\n  dup2\n    /* \"#utility.yul\":1254:1266   */\n  mload\n    /* \"#utility.yul\":1244:1266   */\n  swap1\n  pop\n    /* \"#utility.yul\":1174:1273   */\n  swap2\n  swap1\n  pop\n  jump\t// out\n    /* \"#utility.yul\":1279:1459   */\ntag_26:\n    /* \"#utility.yul\":1327:1404   */\n  0x4e487b7100000000000000000000000000000000000000000000000000000000\n    /* \"#utility.yul\":1324:1325   */\n  0x00\n    /* \"#utility.yul\":1317:1405   */\n  mstore\n    /* \"#utility.yul\":1424:1428   */\n  0x41\n    /* \"#utility.yul\":1421:1422   */\n  0x04\n    /* \"#utility.yul\":1414:1429   */\n  mstore\n    /* \"#utility.yul\":1448:1452   */\n  0x24\n    /* \"#utility.yul\":1445:1446   */\n  0x00\n    /* \"#utility.yul\":1438:1453   */\n  revert\n    /* \"#utility.yul\":1465:1645   */\ntag_27:\n    /* \"#utility.yul\":1513:1590   */\n  0x4e487b7100000000000000000000000000000000000000000000000000000000\n    /* \"#utility.yul\":1510:1511   */\n  0x00\n    /* \"#utility.yul\":1503:1591   */\n  mstore\n    /* \"#utility.yul\":1610:1614   */\n  0x22\n    /* \"#utility.yul\":1607:1608   */\n  0x04\n    /* \"#utility.yul\":1600:1615   */\n  mstore\n    /* \"#utility.yul\":1634:1638   */\n  0x24\n    /* \"#utility.yul\":1631:1632   */\n  0x00\n    /* \"#utility.yul\":1624:1639   */\n  revert\n    /* \"#utility.yul\":1651:1971   */\ntag_28:\n    /* \"#utility.yul\":1695:1701   */\n  0x00\n    /* \"#utility.yul\":1732:1733   */\n  0x02\n    /* \"#utility.yul\":1726:1730   */\n  dup3\n    /* \"#utility.yul\":1722:1734   */\n  div\n    /* \"#utility.yul\":1712:1734   */\n  swap1\n  pop\n    /* \"#utility.yul\":1779:1780   */\n  0x01\n    /* \"#utility.yul\":1773:1777   */\n  dup3\n    /* \"#utility.yul\":1769:1781   */\n  and\n    /* \"#utility.yul\":1800:1818   */\n  dup1\n    /* \"#utility.yul\":1790:1871   */\n  tag_63\n  jumpi\n    /* \"#utility.yul\":1856:1860   */\n  0x7f\n    /* \"#utility.yul\":1848:1854   */\n  dup3\n    /* \"#utility.yul\":1844:1861   */\n  and\n    /* \"#utility.yul\":1834:1861   */\n  swap2\n  pop\n    /* \"#utility.yul\":1790:1871   */\ntag_63:\n    /* \"#utility.yul\":1918:1920   */\n  0x20\n    /* \"#utility.yul\":1910:1916   */\n  dup3\n    /* \"#utility.yul\":1907:1921   */\n  lt\n    /* \"#utility.yul\":1887:1905   */\n  dup2\n    /* \"#utility.yul\":1884:1922   */\n  sub\n    /* \"#utility.yul\":1881:1965   */\n  tag_64\n  jumpi\n    /* \"#utility.yul\":1937:1955   */\n  tag_65\n  tag_27\n  jump\t// in\ntag_65:\n    /* \"#utility.yul\":1881:1965   */\ntag_64:\n    /* \"#utility.yul\":1702:1971   */\n  pop\n    /* \"#utility.yul\":1651:1971   */\n  swap2\n  swap1\n  pop\n  jump\t// out\n    /* \"#utility.yul\":1977:2118   */\ntag_29:\n    /* \"#utility.yul\":2026:2030   */\n  0x00\n    /* \"#utility.yul\":2049:2052   */\n  dup2\n    /* \"#utility.yul\":2041:2052   */\n  swap1\n  pop\n    /* \"#utility.yul\":2072:2075   */\n  dup2\n    /* \"#utility.yul\":2069:2070   */\n  0x00\n    /* \"#utility.yul\":2062:2076   */\n  mstore\n    /* \"#utility.yul\":2106:2110   */\n  0x20\n    /* \"#utility.yul\":2103:2104   */\n  0x00\n    /* \"#utility.yul\":2093:2111   */\n  keccak256\n    /* \"#utility.yul\":2085:2111   */\n  swap1\n  pop\n    /* \"#utility.yul\":1977:2118   */\n  swap2\n  swap1\n  pop\n  jump\t// out\n    /* \"#utility.yul\":2124:2217   */\ntag_30:\n    /* \"#utility.yul\":2161:2167   */\n  0x00\n    /* \"#utility.yul\":2208:2210   */\n  0x20\n    /* \"#utility.yul\":2203:2205   */\n  0x1f\n    /* \"#utility.yul\":2196:2201   */\n  dup4\n    /* \"#utility.yul\":2192:2206   */\n  add\n    /* \"#utility.yul\":2188:2211   */\n  div\n    /* \"#utility.yul\":2178:2211   */\n  swap1\n  pop\n    /* \"#utility.yul\":2124:2217   */\n  swap2\n  swap1\n  pop\n  jump\t// out\n    /* \"#utility.yul\":2223:2330   */\ntag_31:\n    /* \"#utility.yul\":2267:2275   */\n  0x00\n    /* \"#utility.yul\":2317:2322   */\n  dup3\n    /* \"#utility.yul\":2311:2315   */\n  dup3\n    /* \"#utility.yul\":2307:2323   */\n  shl\n    /* \"#utility.yul\":2286:2323   */\n  swap1\n  pop\n    /* \"#utility.yul\":2223:2330   */\n  swap3\n  swap2\n  pop\n  pop\n  jump\t// out\n    /* \"#utility.yul\":2336:2729   */\ntag_32:\n    /* \"#utility.yul\":2405:2411   */\n  0x00\n    /* \"#utility.yul\":2455:2456   */\n  0x08\n    /* \"#utility.yul\":2443:2453   */\n  dup4\n    /* \"#utility.yul\":2439:2457   */\n  mul\n    /* \"#utility.yul\":2478:2575   */\n  tag_70\n    /* \"#utility.yul\":2508:2574   */\n  0xffffffffffffffffffffffffffffffffffffffffffffffffffffffffffffffff\n    /* \"#utility.yul\":2497:2506   */\n  dup3\n    /* \"#utility.yul\":2478:2575   */\n  tag_31\n  jump\t// in\ntag_70:\n    /* \"#utility.yul\":2596:2635   */\n  tag_71\n    /* \"#utility.yul\":2626:2634   */\n  dup7\n    /* \"#utility.yul\":2615:2624   */\n  dup4\n    /* \"#utility.yul\":2596:2635   */\n  tag_31\n  jump\t// in\ntag_71:\n    /* \"#utility.yul\":2584:2635   */\n  swap6\n  pop\n    /* \"#utility.yul\":2668:2672   */\n  dup1\n    /* \"#utility.yul\":2664:2673   */\n  not\n    /* \"#utility.yul\":2657:2662   */\n  dup5\n    /* \"#utility.yul\":2653:2674   */\n  and\n    /* \"#utility.yul\":2644:2674   */\n  swap4\n  pop\n    /* \"#utility.yul\":2717:2721   */\n  dup1\n    /* \"#utility.yul\":2707:2715   */\n  dup7\n    /* \"#utility.yul\":2703:2722   */\n  and\n    /* \"#utility.yul\":2696:2701   */\n  dup5\n    /* \"#utility.yul\":2693:2723   */\n  or\n    /* \"#utility.yul\":2683:2723   */\n  swap3\n  pop\n    /* \"#utility.yul\":2412:2729   */\n  pop\n  pop\n    /* \"#utility.yul\":2336:2729   */\n  swap4\n  swap3\n  pop\n  pop\n  pop\n  jump\t// out\n    /* \"#utility.yul\":2735:2812   */\ntag_33:\n    /* \"#utility.yul\":2772:2779   */\n  0x00\n    /* \"#utility.yul\":2801:2806   */\n  dup2\n    /* \"#utility.yul\":2790:2806   */\n  swap1\n  pop\n    /* \"#utility.yul\":2735:2812   */\n  swap2\n  swap1\n  pop\n  jump\t// out\n    /* \"#utility.yul\":2818:2878   */\ntag_34:\n    /* \"#utility.yul\":2846:2849   */\n  0x00\n    /* \"#utility.yul\":2867:2872   */\n  dup2\n    /* \"#utility.yul\":2860:2872   */\n  swap1\n  pop\n    /* \"#utility.yul\":2818:2878   */\n  swap2\n  swap1\n  pop\n  jump\t// out\n    /* \"#utility.yul\":2884:3026   */\ntag_35:\n    /* \"#utility.yul\":2934:2943   */\n  0x00\n    /* \"#utility.yul\":2967:3020   */\n  tag_75\n    /* \"#utility.yul\":2985:3019   */\n  tag_76\n    /* \"#utility.yul\":2994:3018   */\n  tag_77\n    /* \"#utility.yul\":3012:3017   */\n  dup5\n    /* \"#utility.yul\":2994:3018   */\n  tag_33\n  jump\t// in\ntag_77:\n    /* \"#utility.yul\":2985:3019   */\n  tag_34\n  jump\t// in\ntag_76:\n    /* \"#utility.yul\":2967:3020   */\n  tag_33\n  jump\t// in\ntag_75:\n    /* \"#utility.yul\":2954:3020   */\n  swap1\n  pop\n    /* \"#utility.yul\":2884:3026   */\n  swap2\n  swap1\n  pop\n  jump\t// out\n    /* \"#utility.yul\":3032:3107   */\ntag_36:\n    /* \"#utility.yul\":3075:3078   */\n  0x00\n    /* \"#utility.yul\":3096:3101   */\n  dup2\n    /* \"#utility.yul\":3089:3101   */\n  swap1\n  pop\n    /* \"#utility.yul\":3032:3107   */\n  swap2\n  swap1\n  pop\n  jump\t// out\n    /* \"#utility.yul\":3113:3382   */\ntag_37:\n    /* \"#utility.yul\":3223:3262   */\n  tag_80\n    /* \"#utility.yul\":3254:3261   */\n  dup4\n    /* \"#utility.yul\":3223:3262   */\n  tag_35\n  jump\t// in\ntag_80:\n    /* \"#utility.yul\":3284:3375   */\n  tag_81\n    /* \"#utility.yul\":3333:3374   */\n  tag_82\n    /* \"#utility.yul\":3357:3373   */\n  dup3\n    /* \"#utility.yul\":3333:3374   */\n  tag_36\n  jump\t// in\ntag_82:\n    /* \"#utility.yul\":3325:3331   */\n  dup5\n    /* \"#utility.yul\":3318:3322   */\n  dup5\n    /* \"#utility.yul\":3312:3323   */\n  sload\n    /* \"#utility.yul\":3284:3375   */\n  tag_32\n  jump\t// in\ntag_81:\n    /* \"#utility.yul\":3278:3282   */\n  dup3\n    /* \"#utility.yul\":3271:3376   */\n  sstore\n    /* \"#utility.yul\":3189:3382   */\n  pop\n    /* \"#utility.yul\":3113:3382   */\n  pop\n  pop\n  pop\n  jump\t// out\n    /* \"#utility.yul\":3388:3461   */\ntag_38:\n    /* \"#utility.yul\":3433:3436   */\n  0x00\n    /* \"#utility.yul\":3454:3455   */\n  0x00\n    /* \"#utility.yul\":3447:3455   */\n  swap1\n  pop\n    /* \"#utility.yul\":3388:3461   */\n  swap1\n  jump\t// out\n    /* \"#utility.yul\":3467:3656   */\ntag_39:\n    /* \"#utility.yul\":3544:3576   */\n  tag_85\n  tag_38\n  jump\t// in\ntag_85:\n    /* \"#utility.yul\":3585:3650   */\n  tag_86\n    /* \"#utility.yul\":3643:3649   */\n  dup2\n    /* \"#utility.yul\":3635:3641   */\n  dup5\n    /* \"#utility.yul\":3629:3633   */\n  dup5\n    /* \"#utility.yul\":3585:3650   */\n  tag_37\n  jump\t// in\ntag_86:\n    /* \"#utility.yul\":3520:3656   */\n  pop\n    /* \"#utility.yul\":3467:3656   */\n  pop\n  pop\n  jump\t// out\n    /* \"#utility.yul\":3662:3848   */\ntag_40:\n    /* \"#utility.yul\":3722:3842   */\ntag_88:\n    /* \"#utility.yul\":3739:3742   */\n  dup2\n    /* \"#utility.yul\":3732:3737   */\n  dup2\n    /* \"#utility.yul\":3729:3743   */\n  lt\n    /* \"#utility.yul\":3722:3842   */\n  iszero\n  tag_90\n  jumpi\n    /* \"#utility.yul\":3793:3832   */\n  tag_91\n    /* \"#utility.yul\":3830:3831   */\n  0x00\n    /* \"#utility.yul\":3823:3828   */\n  dup3\n    /* \"#utility.yul\":3793:3832   */\n  tag_39\n  jump\t// in\ntag_91:\n    /* \"#utility.yul\":3766:3767   */\n  0x01\n    /* \"#utility.yul\":3759:3764   */\n  dup2\n    /* \"#utility.yul\":3755:3768   */\n  add\n    /* \"#utility.yul\":3746:3768   */\n  swap1\n  pop\n    /* \"#utility.yul\":3722:3842   */\n  jump(tag_88)\ntag_90:\n    /* \"#utility.yul\":3662:3848   */\n  pop\n  pop\n  jump\t// out\n    /* \"#utility.yul\":3854:4397   */\ntag_41:\n    /* \"#utility.yul\":3955:3957   */\n  0x1f\n    /* \"#utility.yul\":3950:3953   */\n  dup3\n    /* \"#utility.yul\":3947:3958   */\n  gt\n    /* \"#utility.yul\":3944:4390   */\n  iszero\n  tag_93\n  jumpi\n    /* \"#utility.yul\":3989:4027   */\n  tag_94\n    /* \"#utility.yul\":4021:4026   */\n  dup2\n    /* \"#utility.yul\":3989:4027   */\n  tag_29\n  jump\t// in\ntag_94:\n    /* \"#utility.yul\":4073:4102   */\n  tag_95\n    /* \"#utility.yul\":4091:4101   */\n  dup5\n    /* \"#utility.yul\":4073:4102   */\n  tag_30\n  jump\t// in\ntag_95:\n    /* \"#utility.yul\":4063:4071   */\n  dup2\n    /* \"#utility.yul\":4059:4103   */\n  add\n    /* \"#utility.yul\":4256:4258   */\n  0x20\n    /* \"#utility.yul\":4244:4254   */\n  dup6\n    /* \"#utility.yul\":4241:4259   */\n  lt\n    /* \"#utility.yul\":4238:4287   */\n  iszero\n  tag_96\n  jumpi\n    /* \"#utility.yul\":4277:4285   */\n  dup2\n    /* \"#utility.yul\":4262:4285   */\n  swap1\n  pop\n    /* \"#utility.yul\":4238:4287   */\ntag_96:\n    /* \"#utility.yul\":4300:4380   */\n  tag_97\n    /* \"#utility.yul\":4356:4378   */\n  tag_98\n    /* \"#utility.yul\":4374:4377   */\n  dup6\n    /* \"#utility.yul\":4356:4378   */\n  tag_30\n  jump\t// in\ntag_98:\n    /* \"#utility.yul\":4346:4354   */\n  dup4\n    /* \"#utility.yul\":4342:4379   */\n  add\n    /* \"#utility.yul\":4329:4340   */\n  dup3\n    /* \"#utility.yul\":4300:4380   */\n  tag_40\n  jump\t// in\ntag_97:\n    /* \"#utility.yul\":3959:4390   */\n  pop\n  pop\n    /* \"#utility.yul\":3944:4390   */\ntag_93:\n    /* \"#utility.yul\":3854:4397   */\n  pop\n  pop\n  pop\n  jump\t// out\n    /* \"#utility.yul\":4403:4520   */\ntag_42:\n    /* \"#utility.yul\":4457:4465   */\n  0x00\n    /* \"#utility.yul\":4507:4512   */\n  dup3\n    /* \"#utility.yul\":4501:4505   */\n  dup3\n    /* \"#utility.yul\":4497:4513   */\n  shr\n    /* \"#utility.yul\":4476:4513   */\n  swap1\n  pop\n    /* \"#utility.yul\":4403:4520   */\n  swap3\n  swap2\n  pop\n  pop\n  jump\t// out\n    /* \"#utility.yul\":4526:4695   */\ntag_43:\n    /* \"#utility.yul\":4570:4576   */\n  0x00\n    /* \"#utility.yul\":4603:4654   */\n  tag_101\n    /* \"#utility.yul\":4651:4652   */\n  0x00\n    /* \"#utility.yul\":4647:4653   */\n  not\n    /* \"#utility.yul\":4639:4644   */\n  dup5\n    /* \"#utility.yul\":4636:4637   */\n  0x08\n    /* \"#utility.yul\":4632:4645   */\n  mul\n    /* \"#utility.yul\":4603:4654   */\n  tag_42\n  jump\t// in\ntag_101:\n    /* \"#utility.yul\":4599:4655   */\n  not\n    /* \"#utility.yul\":4684:4688   */\n  dup1\n    /* \"#utility.yul\":4678:4682   */\n  dup4\n    /* \"#utility.yul\":4674:4689   */\n  and\n    /* \"#utility.yul\":4664:4689   */\n  swap2\n  pop\n    /* \"#utility.yul\":4577:4695   */\n  pop\n    /* \"#utility.yul\":4526:4695   */\n  swap3\n  swap2\n  pop\n  pop\n  jump\t// out\n    /* \"#utility.yul\":4700:4995   */\ntag_44:\n    /* \"#utility.yul\":4776:4780   */\n  0x00\n    /* \"#utility.yul\":4922:4951   */\n  tag_103\n    /* \"#utility.yul\":4947:4950   */\n  dup4\n    /* \"#utility.yul\":4941:4945   */\n  dup4\n    /* \"#utility.yul\":4922:4951   */\n  tag_43\n  jump\t// in\ntag_103:\n    /* \"#utility.yul\":4914:4951   */\n  swap2\n  pop\n    /* \"#utility.yul\":4984:4987   */\n  dup3\n    /* \"#utility.yul\":4981:4982   */\n  0x02\n    /* \"#utility.yul\":4977:4988   */\n  mul\n    /* \"#utility.yul\":4971:4975   */\n  dup3\n    /* \"#utility.yul\":4968:4989   */\n  or\n    /* \"#utility.yul\":4960:4989   */\n  swap1\n  pop\n    /* \"#utility.yul\":4700:4995   */\n  swap3\n  swap2\n  pop\n  pop\n  jump\t// out\n    /* \"#utility.yul\":5000:6395   */\ntag_8:\n    /* \"#utility.yul\":5117:5154   */\n  tag_105\n    /* \"#utility.yul\":5150:5153   */\n  dup3\n    /* \"#utility.yul\":5117:5154   */\n  tag_25\n  jump\t// in\ntag_105:\n    /* \"#utility.yul\":5219:5237   */\n  0xffffffffffffffff\n    /* \"#utility.yul\":5211:5217   */\n  dup2\n    /* \"#utility.yul\":5208:5238   */\n  gt\n    /* \"#utility.yul\":5205:5261   */\n  iszero\n  tag_106\n  jumpi\n    /* \"#utility.yul\":5241:5259   */\n  tag_107\n  tag_26\n  jump\t// in\ntag_107:\n    /* \"#utility.yul\":5205:5261   */\ntag_106:\n    /* \"#utility.yul\":5285:5323   */\n  tag_108\n    /* \"#utility.yul\":5317:5321   */\n  dup3\n    /* \"#utility.yul\":5311:5322   */\n  sload\n    /* \"#utility.yul\":5285:5323   */\n  tag_28\n  jump\t// in\ntag_108:\n    /* \"#utility.yul\":5370:5437   */\n  tag_109\n    /* \"#utility.yul\":5430:5436   */\n  dup3\n    /* \"#utility.yul\":5422:5428   */\n  dup3\n    /* \"#utility.yul\":5416:5420   */\n  dup6\n    /* \"#utility.yul\":5370:5437   */\n  tag_41\n  jump\t// in\ntag_109:\n    /* \"#utility.yul\":5464:5465   */\n  0x00\n    /* \"#utility.yul\":5488:5492   */\n  0x20\n    /* \"#utility.yul\":5475:5492   */\n  swap1\n  pop\n    /* \"#utility.yul\":5520:5522   */\n  0x1f\n    /* \"#utility.yul\":5512:5518   */\n  dup4\n    /* \"#utility.yul\":5509:5523   */\n  gt\n    /* \"#utility.yul\":5537:5538   */\n  0x01\n    /* \"#utility.yul\":5532:6150   */\n  dup2\n  eq\n  tag_111\n  jumpi\n    /* \"#utility.yul\":6194:6195   */\n  0x00\n    /* \"#utility.yul\":6211:6217   */\n  dup5\n    /* \"#utility.yul\":6208:6285   */\n  iszero\n  tag_112\n  jumpi\n    /* \"#utility.yul\":6260:6269   */\n  dup3\n    /* \"#utility.yul\":6255:6258   */\n  dup8\n    /* \"#utility.yul\":6251:6270   */\n  add\n    /* \"#utility.yul\":6245:6271   */\n  mload\n    /* \"#utility.yul\":6236:6271   */\n  swap1\n  pop\n    /* \"#utility.yul\":6208:6285   */\ntag_112:\n    /* \"#utility.yul\":6311:6378   */\n  tag_113\n    /* \"#utility.yul\":6371:6377   */\n  dup6\n    /* \"#utility.yul\":6364:6369   */\n  dup3\n    /* \"#utility.yul\":6311:6378   */\n  tag_44\n  jump\t// in\ntag_113:\n    /* \"#utility.yul\":6305:6309   */\n  dup7\n    /* \"#utility.yul\":6298:6379   */\n  sstore\n    /* \"#utility.yul\":6167:6389   */\n  pop\n    /* \"#utility.yul\":5502:6389   */\n  jump(tag_110)\n    /* \"#utility.yul\":5532:6150   */\ntag_111:\n    /* \"#utility.yul\":5584:5588   */\n  0x1f\n    /* \"#utility.yul\":5580:5589   */\n  not\n    /* \"#utility.yul\":5572:5578   */\n  dup5\n    /* \"#utility.yul\":5568:5590   */\n  and\n    /* \"#utility.yul\":5618:5655   */\n  tag_114\n    /* \"#utility.yul\":5650:5654   */\n  dup7\n    /* \"#utility.yul\":5618:5655   */\n  tag_29\n  jump\t// in\ntag_114:\n    /* \"#utility.yul\":5677:5678   */\n  0x00\n    /* \"#utility.yul\":5691:5899   */\ntag_115:\n    /* \"#utility.yul\":5705:5712   */\n  dup3\n    /* \"#utility.yul\":5702:5703   */\n  dup2\n    /* \"#utility.yul\":5699:5713   */\n  lt\n    /* \"#utility.yul\":5691:5899   */\n  iszero\n  tag_117\n  jumpi\n    /* \"#utility.yul\":5784:5793   */\n  dup5\n    /* \"#utility.yul\":5779:5782   */\n  dup10\n    /* \"#utility.yul\":5775:5794   */\n  add\n    /* \"#utility.yul\":5769:5795   */\n  mload\n    /* \"#utility.yul\":5761:5767   */\n  dup3\n    /* \"#utility.yul\":5754:5796   */\n  sstore\n    /* \"#utility.yul\":5835:5836   */\n  0x01\n    /* \"#utility.yul\":5827:5833   */\n  dup3\n    /* \"#utility.yul\":5823:5837   */\n  add\n    /* \"#utility.yul\":5813:5837   */\n  swap2\n  pop\n    /* \"#utility.yul\":5882:5884   */\n  0x20\n    /* \"#utility.yul\":5871:5880   */\n  dup6\n    /* \"#utility.yul\":5867:5885   */\n  add\n    /* \"#utility.yul\":5854:5885   */\n  swap5\n  pop\n    /* \"#utility.yul\":5728:5732   */\n  0x20\n    /* \"#utility.yul\":5725:5726   */\n  dup2\n    /* \"#utility.yul\":5721:5733   */\n  add\n    /* \"#utility.yul\":5716:5733   */\n  swap1\n  pop\n    /* \"#utility.yul\":5691:5899   */\n  jump(tag_115)\ntag_117:\n    /* \"#utility.yul\":5927:5933   */\n  dup7\n    /* \"#utility.yul\":5918:5925   */\n  dup4\n    /* \"#utility.yul\":5915:5934   */\n  lt\n    /* \"#utility.yul\":5912:6091   */\n  iszero\n  tag_118\n  jumpi\n    /* \"#utility.yul\":5985:5994   */\n  dup5\n    /* \"#utility.yul\":5980:5983   */\n  dup10\n    /* \"#utility.yul\":5976:5995   */\n  add\n    /* \"#utility.yul\":5970:5996   */\n  mload\n    /* \"#utility.yul\":6028:6076   */\n  tag_119\n    /* \"#utility.yul\":6070:6074   */\n  0x1f\n    /* \"#utility.yul\":6062:6068   */\n  dup10\n    /* \"#utility.yul\":6058:6075   */\n  and\n    /* \"#utility.yul\":6047:6056   */\n  dup3\n    /* \"#utility.yul\":6028:6076   */\n  tag_43\n  jump\t// in\ntag_119:\n    /* \"#utility.yul\":6020:6026   */\n  dup4\n    /* \"#utility.yul\":6013:6077   */\n  sstore\n    /* \"#utility.yul\":5935:6091   */\n  pop\n    /* \"#utility.yul\":5912:6091   */\ntag_118:\n    /* \"#utility.yul\":6137:6138   */\n  0x01\n    /* \"#utility.yul\":6133:6134   */\n  0x02\n    /* \"#utility.yul\":6125:6131   */\n  dup9\n    /* \"#utility.yul\":6121:6135   */\n  mul\n    /* \"#utility.yul\":6117:6139   */\n  add\n    /* \"#utility.yul\":6111:6115   */\n  dup9\n    /* \"#utility.yul\":6104:6140   */\n  sstore\n    /* \"#utility.yul\":5539:6150   */\n  pop\n  pop\n  pop\n    /* \"#utility.yul\":5502:6389   */\ntag_110:\n  pop\n    /* \"#utility.yul\":5092:6395   */\n  pop\n  pop\n  pop\n    /* \"#utility.yul\":5000:6395   */\n  pop\n  pop\n  jump\t// out\n    /* \"#utility.yul\":6401:6615   */\ntag_45:\n    /* \"#utility.yul\":6541:6607   */\n  0xe9bb8ee6988e0000000000000000000000000000000000000000000000000000\n    /* \"#utility.yul\":6537:6538   */\n  0x00\n    /* \"#utility.yul\":6529:6535   */\n  dup3\n    /* \"#utility.yul\":6525:6539   */\n  add\n    /* \"#utility.yul\":6518:6608   */\n  mstore\n    /* \"#utility.yul\":6401:6615   */\n  pop\n  jump\t// out\n    /* \"#utility.yul\":6621:7021   */\ntag_46:\n    /* \"#utility.yul\":6781:6784   */\n  0x00\n    /* \"#utility.yul\":6802:6886   */\n  tag_122\n    /* \"#utility.yul\":6884:6885   */\n  0x06\n    /* \"#utility.yul\":6879:6882   */\n  dup4\n    /* \"#utility.yul\":6802:6886   */\n  tag_22\n  jump\t// in\ntag_122:\n    /* \"#utility.yul\":6795:6886   */\n  swap2\n  pop\n    /* \"#utility.yul\":6895:6988   */\n  tag_123\n    /* \"#utility.yul\":6984:6987   */\n  dup3\n    /* \"#utility.yul\":6895:6988   */\n  tag_45\n  jump\t// in\ntag_123:\n    /* \"#utility.yul\":7013:7014   */\n  0x06\n    /* \"#utility.yul\":7008:7011   */\n  dup3\n    /* \"#utility.yul\":7004:7015   */\n  add\n    /* \"#utility.yul\":6997:7015   */\n  swap1\n  pop\n    /* \"#utility.yul\":6621:7021   */\n  swap2\n  swap1\n  pop\n  jump\t// out\n    /* \"#utility.yul\":7027:7408   */\ntag_10:\n    /* \"#utility.yul\":7212:7215   */\n  0x00\n    /* \"#utility.yul\":7234:7382   */\n  tag_125\n    /* \"#utility.yul\":7378:7381   */\n  dup3\n    /* \"#utility.yul\":7234:7382   */\n  tag_46\n  jump\t// in\ntag_125:\n    /* \"#utility.yul\":7227:7382   */\n  swap2\n  pop\n    /* \"#utility.yul\":7399:7402   */\n  dup2\n    /* \"#utility.yul\":7392:7402   */\n  swap1\n  pop\n    /* \"#utility.yul\":7027:7408   */\n  swap2\n  swap1\n  pop\n  jump\t// out\n    /* \"#utility.yul\":7414:7628   */\ntag_47:\n    /* \"#utility.yul\":7554:7620   */\n  0xe983ade5af8ce59f8e0000000000000000000000000000000000000000000000\n    /* \"#utility.yul\":7550:7551   */\n  0x00\n    /* \"#utility.yul\":7542:7548   */\n  dup3\n    /* \"#utility.yul\":7538:7552   */\n  add\n    /* \"#utility.yul\":7531:7621   */\n  mstore\n    /* \"#utility.yul\":7414:7628   */\n  pop\n  jump\t// out\n    /* \"#utility.yul\":7634:8034   */\ntag_48:\n    /* \"#utility.yul\":7794:7797   */\n  0x00\n    /* \"#utility.yul\":7815:7899   */\n  tag_128\n    /* \"#utility.yul\":7897:7898   */\n  0x09\n    /* \"#utility.yul\":7892:7895   */\n  dup4\n    /* \"#utility.yul\":7815:7899   */\n  tag_22\n  jump\t// in\ntag_128:\n    /* \"#utility.yul\":7808:7899   */\n  swap2\n  pop\n    /* \"#utility.yul\":7908:8001   */\n  tag_129\n    /* \"#utility.yul\":7997:8000   */\n  dup3\n    /* \"#utility.yul\":7908:8001   */\n  tag_47\n  jump\t// in\ntag_129:\n    /* \"#utility.yul\":8026:8027   */\n  0x09\n    /* \"#utility.yul\":8021:8024   */\n  dup3\n    /* \"#utility.yul\":8017:8028   */\n  add\n    /* \"#utility.yul\":8010:8028   */\n  swap1\n  pop\n    /* \"#utility.yul\":7634:8034   */\n  swap2\n  swap1\n  pop\n  jump\t// out\n    /* \"#utility.yul\":8040:8421   */\ntag_14:\n    /* \"#utility.yul\":8225:8228   */\n  0x00\n    /* \"#utility.yul\":8247:8395   */\n  tag_131\n    /* \"#utility.yul\":8391:8394   */\n  dup3\n    /* \"#utility.yul\":8247:8395   */\n  tag_48\n  jump\t// in\ntag_131:\n    /* \"#utility.yul\":8240:8395   */\n  swap2\n  pop\n    /* \"#utility.yul\":8412:8415   */\n  dup2\n    /* \"#utility.yul\":8405:8415   */\n  swap1\n  pop\n    /* \"#utility.yul\":8040:8421   */\n  swap2\n  swap1\n  pop\n  jump\t// out\n    /* \"#utility.yul\":8427:8641   */\ntag_49:\n    /* \"#utility.yul\":8567:8633   */\n  0xe58898e5beb7e58d8e0000000000000000000000000000000000000000000000\n    /* \"#utility.yul\":8563:8564   */\n  0x00\n    /* \"#utility.yul\":8555:8561   */\n  dup3\n    /* \"#utility.yul\":8551:8565   */\n  add\n    /* \"#utility.yul\":8544:8634   */\n  mstore\n    /* \"#utility.yul\":8427:8641   */\n  pop\n  jump\t// out\n    /* \"#utility.yul\":8647:9047   */\ntag_50:\n    /* \"#utility.yul\":8807:8810   */\n  0x00\n    /* \"#utility.yul\":8828:8912   */\n  tag_134\n    /* \"#utility.yul\":8910:8911   */\n  0x09\n    /* \"#utility.yul\":8905:8908   */\n  dup4\n    /* \"#utility.yul\":8828:8912   */\n  tag_22\n  jump\t// in\ntag_134:\n    /* \"#utility.yul\":8821:8912   */\n  swap2\n  pop\n    /* \"#utility.yul\":8921:9014   */\n  tag_135\n    /* \"#utility.yul\":9010:9013   */\n  dup3\n    /* \"#utility.yul\":8921:9014   */\n  tag_49\n  jump\t// in\ntag_135:\n    /* \"#utility.yul\":9039:9040   */\n  0x09\n    /* \"#utility.yul\":9034:9037   */\n  dup3\n    /* \"#utility.yul\":9030:9041   */\n  add\n    /* \"#utility.yul\":9023:9041   */\n  swap1\n  pop\n    /* \"#utility.yul\":8647:9047   */\n  swap2\n  swap1\n  pop\n  jump\t// out\n    /* \"#utility.yul\":9053:9434   */\ntag_18:\n    /* \"#utility.yul\":9238:9241   */\n  0x00\n    /* \"#utility.yul\":9260:9408   */\n  tag_137\n    /* \"#utility.yul\":9404:9407   */\n  dup3\n    /* \"#utility.yul\":9260:9408   */\n  tag_50\n  jump\t// in\ntag_137:\n    /* \"#utility.yul\":9253:9408   */\n  swap2\n  pop\n    /* \"#utility.yul\":9425:9428   */\n  dup2\n    /* \"#utility.yul\":9418:9428   */\n  swap1\n  pop\n    /* \"#utility.yul\":9053:9434   */\n  swap2\n  swap1\n  pop\n  jump\t// out\n    /* \"Basic_Grammar_Tasks/Task1.sol\":338:1784  contract Voting {... */\ntag_21:\n  dataSize(sub_0)\n  dup1\n  dataOffset(sub_0)\n  0x00\n  codecopy\n  0x00\n  return\nstop\n\nsub_0: assembly {\n        /* \"Basic_Grammar_Tasks/Task1.sol\":338:1784  contract Voting {... */\n      mstore(0x40, 0x80)\n      callvalue\n      dup1\n      iszero\n      tag_1\n      jumpi\n      revert(0x00, 0x00)\n    tag_1:\n      pop\n      jumpi(tag_2, lt(calldatasize, 0x04))\n      shr(0xe0, calldataload(0x00))\n      dup1\n      0x805265e5\n      eq\n      tag_3\n      jumpi\n      dup1\n      0xb9830ff1\n      eq\n      tag_4\n      jumpi\n      dup1\n      0xfc36e15b\n      eq\n      tag_5\n      jumpi\n    tag_2:\n      revert(0x00, 0x00)\n        /* \"Basic_Grammar_Tasks/Task1.sol\":1059:1286  function getVotes(string memory candidate) external view returns (uint) {... */\n    tag_3:\n      tag_6\n      0x04\n      dup1\n      calldatasize\n      sub\n      dup2\n      add\n      swap1\n      tag_7\n      swap2\n      swap1\n      tag_8\n      jump\t// in\n    tag_7:\n      tag_9\n      jump\t// in\n    tag_6:\n      mload(0x40)\n      tag_10\n      swap2\n      swap1\n      tag_11\n      jump\t// in\n    tag_10:\n      mload(0x40)\n      dup1\n      swap2\n      sub\n      swap1\n      return\n        /* \"Basic_Grammar_Tasks/Task1.sol\":1292:1433  function resetVotes() external {... */\n    tag_4:\n      tag_12\n      tag_13\n      jump\t// in\n    tag_12:\n      stop\n        /* \"Basic_Grammar_Tasks/Task1.sol\":798:1053  function vote(string memory candidate) external returns (bool) {... */\n    tag_5:\n      tag_14\n      0x04\n      dup1\n      calldatasize\n      sub\n      dup2\n      add\n      swap1\n      tag_15\n      swap2\n      swap1\n      tag_8\n      jump\t// in\n    tag_15:\n      tag_16\n      jump\t// in\n    tag_14:\n      mload(0x40)\n      tag_17\n      swap2\n      swap1\n      tag_18\n      jump\t// in\n    tag_17:\n      mload(0x40)\n      dup1\n      swap2\n      sub\n      swap1\n      return\n        /* \"Basic_Grammar_Tasks/Task1.sol\":1059:1286  function getVotes(string memory candidate) external view returns (uint) {... */\n    tag_9:\n        /* \"Basic_Grammar_Tasks/Task1.sol\":1125:1129  uint */\n      0x00\n        /* \"Basic_Grammar_Tasks/Task1.sol\":1188:1216  _isValidCandidate(candidate) */\n      tag_20\n        /* \"Basic_Grammar_Tasks/Task1.sol\":1206:1215  candidate */\n      dup3\n        /* \"Basic_Grammar_Tasks/Task1.sol\":1188:1205  _isValidCandidate */\n      tag_21\n        /* \"Basic_Grammar_Tasks/Task1.sol\":1188:1216  _isValidCandidate(candidate) */\n      jump\t// in\n    tag_20:\n        /* \"Basic_Grammar_Tasks/Task1.sol\":1180:1246  require(_isValidCandidate(candidate), unicode\"候选人不存在\") */\n      tag_22\n      jumpi\n      mload(0x40)\n      0x08c379a000000000000000000000000000000000000000000000000000000000\n      dup2\n      mstore\n      0x04\n      add\n      tag_23\n      swap1\n      tag_24\n      jump\t// in\n    tag_23:\n      mload(0x40)\n      dup1\n      swap2\n      sub\n      swap1\n      revert\n    tag_22:\n        /* \"Basic_Grammar_Tasks/Task1.sol\":1263:1268  votes */\n      0x00\n        /* \"Basic_Grammar_Tasks/Task1.sol\":1269:1278  candidate */\n      dup3\n        /* \"Basic_Grammar_Tasks/Task1.sol\":1263:1279  votes[candidate] */\n      mload(0x40)\n      tag_25\n      swap2\n      swap1\n      tag_26\n      jump\t// in\n    tag_25:\n      swap1\n      dup2\n      mstore\n      0x20\n      add\n      mload(0x40)\n      dup1\n      swap2\n      sub\n      swap1\n      keccak256\n      sload\n        /* \"Basic_Grammar_Tasks/Task1.sol\":1256:1279  return votes[candidate] */\n      swap1\n      pop\n        /* \"Basic_Grammar_Tasks/Task1.sol\":1059:1286  function getVotes(string memory candidate) external view returns (uint) {... */\n      swap2\n      swap1\n      pop\n      jump\t// out\n        /* \"Basic_Grammar_Tasks/Task1.sol\":1292:1433  function resetVotes() external {... */\n    tag_13:\n        /* \"Basic_Grammar_Tasks/Task1.sol\":1338:1344  uint i */\n      0x00\n        /* \"Basic_Grammar_Tasks/Task1.sol\":1347:1348  0 */\n      0x00\n        /* \"Basic_Grammar_Tasks/Task1.sol\":1338:1348  uint i = 0 */\n      swap1\n      pop\n        /* \"Basic_Grammar_Tasks/Task1.sol\":1333:1427  for (uint i = 0; i < candidates.length; i++) {... */\n    tag_28:\n        /* \"Basic_Grammar_Tasks/Task1.sol\":1354:1364  candidates */\n      0x01\n        /* \"Basic_Grammar_Tasks/Task1.sol\":1354:1371  candidates.length */\n      dup1\n      sload\n      swap1\n      pop\n        /* \"Basic_Grammar_Tasks/Task1.sol\":1350:1351  i */\n      dup2\n        /* \"Basic_Grammar_Tasks/Task1.sol\":1350:1371  i < candidates.length */\n      lt\n        /* \"Basic_Grammar_Tasks/Task1.sol\":1333:1427  for (uint i = 0; i < candidates.length; i++) {... */\n      iszero\n      tag_29\n      jumpi\n        /* \"Basic_Grammar_Tasks/Task1.sol\":1415:1416  0 */\n      0x00\n        /* \"Basic_Grammar_Tasks/Task1.sol\":1392:1397  votes */\n      0x00\n        /* \"Basic_Grammar_Tasks/Task1.sol\":1398:1408  candidates */\n      0x01\n        /* \"Basic_Grammar_Tasks/Task1.sol\":1409:1410  i */\n      dup4\n        /* \"Basic_Grammar_Tasks/Task1.sol\":1398:1411  candidates[i] */\n      dup2\n      sload\n      dup2\n      lt\n      tag_31\n      jumpi\n      tag_32\n      tag_33\n      jump\t// in\n    tag_32:\n    tag_31:\n      swap1\n      0x00\n      mstore\n      keccak256(0x00, 0x20)\n      add\n        /* \"Basic_Grammar_Tasks/Task1.sol\":1392:1412  votes[candidates[i]] */\n      mload(0x40)\n      tag_35\n      swap2\n      swap1\n      tag_36\n      jump\t// in\n    tag_35:\n      swap1\n      dup2\n      mstore\n      0x20\n      add\n      mload(0x40)\n      dup1\n      swap2\n      sub\n      swap1\n      keccak256\n        /* \"Basic_Grammar_Tasks/Task1.sol\":1392:1416  votes[candidates[i]] = 0 */\n      dup2\n      swap1\n      sstore\n      pop\n        /* \"Basic_Grammar_Tasks/Task1.sol\":1373:1376  i++ */\n      dup1\n      dup1\n      0x01\n      add\n      swap2\n      pop\n      pop\n        /* \"Basic_Grammar_Tasks/Task1.sol\":1333:1427  for (uint i = 0; i < candidates.length; i++) {... */\n      jump(tag_28)\n    tag_29:\n      pop\n        /* \"Basic_Grammar_Tasks/Task1.sol\":1292:1433  function resetVotes() external {... */\n      jump\t// out\n        /* \"Basic_Grammar_Tasks/Task1.sol\":798:1053  function vote(string memory candidate) external returns (bool) {... */\n    tag_16:\n        /* \"Basic_Grammar_Tasks/Task1.sol\":855:859  bool */\n      0x00\n        /* \"Basic_Grammar_Tasks/Task1.sol\":918:946  _isValidCandidate(candidate) */\n      tag_38\n        /* \"Basic_Grammar_Tasks/Task1.sol\":936:945  candidate */\n      dup3\n        /* \"Basic_Grammar_Tasks/Task1.sol\":918:935  _isValidCandidate */\n      tag_21\n        /* \"Basic_Grammar_Tasks/Task1.sol\":918:946  _isValidCandidate(candidate) */\n      jump\t// in\n    tag_38:\n        /* \"Basic_Grammar_Tasks/Task1.sol\":910:976  require(_isValidCandidate(candidate), unicode\"候选人不存在\") */\n      tag_39\n      jumpi\n      mload(0x40)\n      0x08c379a000000000000000000000000000000000000000000000000000000000\n      dup2\n      mstore\n      0x04\n      add\n      tag_40\n      swap1\n      tag_24\n      jump\t// in\n    tag_40:\n      mload(0x40)\n      dup1\n      swap2\n      sub\n      swap1\n      revert\n    tag_39:\n        /* \"Basic_Grammar_Tasks/Task1.sol\":1024:1025  1 */\n      0x01\n        /* \"Basic_Grammar_Tasks/Task1.sol\":1004:1009  votes */\n      0x00\n        /* \"Basic_Grammar_Tasks/Task1.sol\":1010:1019  candidate */\n      dup4\n        /* \"Basic_Grammar_Tasks/Task1.sol\":1004:1020  votes[candidate] */\n      mload(0x40)\n      tag_41\n      swap2\n      swap1\n      tag_26\n      jump\t// in\n    tag_41:\n      swap1\n      dup2\n      mstore\n      0x20\n      add\n      mload(0x40)\n      dup1\n      swap2\n      sub\n      swap1\n      keccak256\n      0x00\n        /* \"Basic_Grammar_Tasks/Task1.sol\":1004:1025  votes[candidate] += 1 */\n      dup3\n      dup3\n      sload\n      tag_42\n      swap2\n      swap1\n      tag_43\n      jump\t// in\n    tag_42:\n      swap3\n      pop\n      pop\n      dup2\n      swap1\n      sstore\n      pop\n        /* \"Basic_Grammar_Tasks/Task1.sol\":1042:1046  true */\n      0x01\n        /* \"Basic_Grammar_Tasks/Task1.sol\":1035:1046  return true */\n      swap1\n      pop\n        /* \"Basic_Grammar_Tasks/Task1.sol\":798:1053  function vote(string memory candidate) external returns (bool) {... */\n      swap2\n      swap1\n      pop\n      jump\t// out\n        /* \"Basic_Grammar_Tasks/Task1.sol\":1439:1782  function _isValidCandidate(... */\n    tag_21:\n        /* \"Basic_Grammar_Tasks/Task1.sol\":1527:1531  bool */\n      0x00\n        /* \"Basic_Grammar_Tasks/Task1.sol\":1548:1554  uint i */\n      0x00\n        /* \"Basic_Grammar_Tasks/Task1.sol\":1557:1558  0 */\n      0x00\n        /* \"Basic_Grammar_Tasks/Task1.sol\":1548:1558  uint i = 0 */\n      swap1\n      pop\n        /* \"Basic_Grammar_Tasks/Task1.sol\":1543:1754  for (uint i = 0; i < candidates.length; i++) {... */\n    tag_45:\n        /* \"Basic_Grammar_Tasks/Task1.sol\":1564:1574  candidates */\n      0x01\n        /* \"Basic_Grammar_Tasks/Task1.sol\":1564:1581  candidates.length */\n      dup1\n      sload\n      swap1\n      pop\n        /* \"Basic_Grammar_Tasks/Task1.sol\":1560:1561  i */\n      dup2\n        /* \"Basic_Grammar_Tasks/Task1.sol\":1560:1581  i < candidates.length */\n      lt\n        /* \"Basic_Grammar_Tasks/Task1.sol\":1543:1754  for (uint i = 0; i < candidates.length; i++) {... */\n      iszero\n      tag_46\n      jumpi\n        /* \"Basic_Grammar_Tasks/Task1.sol\":1674:1683  candidate */\n      dup3\n        /* \"Basic_Grammar_Tasks/Task1.sol\":1658:1685  keccak256(bytes(candidate)) */\n      dup1\n      mload\n      swap1\n      0x20\n      add\n      keccak256\n        /* \"Basic_Grammar_Tasks/Task1.sol\":1639:1649  candidates */\n      0x01\n        /* \"Basic_Grammar_Tasks/Task1.sol\":1650:1651  i */\n      dup3\n        /* \"Basic_Grammar_Tasks/Task1.sol\":1639:1652  candidates[i] */\n      dup2\n      sload\n      dup2\n      lt\n      tag_48\n      jumpi\n      tag_49\n      tag_33\n      jump\t// in\n    tag_49:\n    tag_48:\n      swap1\n      0x00\n      mstore\n      keccak256(0x00, 0x20)\n      add\n        /* \"Basic_Grammar_Tasks/Task1.sol\":1623:1654  keccak256(bytes(candidates[i])) */\n      mload(0x40)\n      tag_51\n      swap2\n      swap1\n      tag_52\n      jump\t// in\n    tag_51:\n      mload(0x40)\n      dup1\n      swap2\n      sub\n      swap1\n      keccak256\n        /* \"Basic_Grammar_Tasks/Task1.sol\":1623:1685  keccak256(bytes(candidates[i])) == keccak256(bytes(candidate)) */\n      sub\n        /* \"Basic_Grammar_Tasks/Task1.sol\":1602:1744  if (... */\n      tag_53\n      jumpi\n        /* \"Basic_Grammar_Tasks/Task1.sol\":1725:1729  true */\n      0x01\n        /* \"Basic_Grammar_Tasks/Task1.sol\":1718:1729  return true */\n      swap2\n      pop\n      pop\n      jump(tag_44)\n        /* \"Basic_Grammar_Tasks/Task1.sol\":1602:1744  if (... */\n    tag_53:\n        /* \"Basic_Grammar_Tasks/Task1.sol\":1583:1586  i++ */\n      dup1\n      dup1\n      0x01\n      add\n      swap2\n      pop\n      pop\n        /* \"Basic_Grammar_Tasks/Task1.sol\":1543:1754  for (uint i = 0; i < candidates.length; i++) {... */\n      jump(tag_45)\n    tag_46:\n      pop\n        /* \"Basic_Grammar_Tasks/Task1.sol\":1770:1775  false */\n      0x00\n        /* \"Basic_Grammar_Tasks/Task1.sol\":1763:1775  return false */\n      swap1\n      pop\n        /* \"Basic_Grammar_Tasks/Task1.sol\":1439:1782  function _isValidCandidate(... */\n    tag_44:\n      swap2\n      swap1\n      pop\n      jump\t// out\n        /* \"#utility.yul\":7:82   */\n    tag_54:\n        /* \"#utility.yul\":40:46   */\n      0x00\n        /* \"#utility.yul\":73:75   */\n      0x40\n        /* \"#utility.yul\":67:76   */\n      mload\n        /* \"#utility.yul\":57:76   */\n      swap1\n      pop\n        /* \"#utility.yul\":7:82   */\n      swap1\n      jump\t// out\n        /* \"#utility.yul\":88:205   */\n    tag_55:\n        /* \"#utility.yul\":197:198   */\n      0x00\n        /* \"#utility.yul\":194:195   */\n      0x00\n        /* \"#utility.yul\":187:199   */\n      revert\n        /* \"#utility.yul\":211:328   */\n    tag_56:\n        /* \"#utility.yul\":320:321   */\n      0x00\n        /* \"#utility.yul\":317:318   */\n      0x00\n        /* \"#utility.yul\":310:322   */\n      revert\n        /* \"#utility.yul\":334:451   */\n    tag_57:\n        /* \"#utility.yul\":443:444   */\n      0x00\n        /* \"#utility.yul\":440:441   */\n      0x00\n        /* \"#utility.yul\":433:445   */\n      revert\n        /* \"#utility.yul\":457:574   */\n    tag_58:\n        /* \"#utility.yul\":566:567   */\n      0x00\n        /* \"#utility.yul\":563:564   */\n      0x00\n        /* \"#utility.yul\":556:568   */\n      revert\n        /* \"#utility.yul\":580:682   */\n    tag_59:\n        /* \"#utility.yul\":621:627   */\n      0x00\n        /* \"#utility.yul\":672:674   */\n      0x1f\n        /* \"#utility.yul\":668:675   */\n      not\n        /* \"#utility.yul\":663:665   */\n      0x1f\n        /* \"#utility.yul\":656:661   */\n      dup4\n        /* \"#utility.yul\":652:666   */\n      add\n        /* \"#utility.yul\":648:676   */\n      and\n        /* \"#utility.yul\":638:676   */\n      swap1\n      pop\n        /* \"#utility.yul\":580:682   */\n      swap2\n      swap1\n      pop\n      jump\t// out\n        /* \"#utility.yul\":688:868   */\n    tag_60:\n        /* \"#utility.yul\":736:813   */\n      0x4e487b7100000000000000000000000000000000000000000000000000000000\n        /* \"#utility.yul\":733:734   */\n      0x00\n        /* \"#utility.yul\":726:814   */\n      mstore\n        /* \"#utility.yul\":833:837   */\n      0x41\n        /* \"#utility.yul\":830:831   */\n      0x04\n        /* \"#utility.yul\":823:838   */\n      mstore\n        /* \"#utility.yul\":857:861   */\n      0x24\n        /* \"#utility.yul\":854:855   */\n      0x00\n        /* \"#utility.yul\":847:862   */\n      revert\n        /* \"#utility.yul\":874:1155   */\n    tag_61:\n        /* \"#utility.yul\":957:984   */\n      tag_95\n        /* \"#utility.yul\":979:983   */\n      dup3\n        /* \"#utility.yul\":957:984   */\n      tag_59\n      jump\t// in\n    tag_95:\n        /* \"#utility.yul\":949:955   */\n      dup2\n        /* \"#utility.yul\":945:985   */\n      add\n        /* \"#utility.yul\":1087:1093   */\n      dup2\n        /* \"#utility.yul\":1075:1085   */\n      dup2\n        /* \"#utility.yul\":1072:1094   */\n      lt\n        /* \"#utility.yul\":1051:1069   */\n      0xffffffffffffffff\n        /* \"#utility.yul\":1039:1049   */\n      dup3\n        /* \"#utility.yul\":1036:1070   */\n      gt\n        /* \"#utility.yul\":1033:1095   */\n      or\n        /* \"#utility.yul\":1030:1118   */\n      iszero\n      tag_96\n      jumpi\n        /* \"#utility.yul\":1098:1116   */\n      tag_97\n      tag_60\n      jump\t// in\n    tag_97:\n        /* \"#utility.yul\":1030:1118   */\n    tag_96:\n        /* \"#utility.yul\":1138:1148   */\n      dup1\n        /* \"#utility.yul\":1134:1136   */\n      0x40\n        /* \"#utility.yul\":1127:1149   */\n      mstore\n        /* \"#utility.yul\":917:1155   */\n      pop\n        /* \"#utility.yul\":874:1155   */\n      pop\n      pop\n      jump\t// out\n        /* \"#utility.yul\":1161:1290   */\n    tag_62:\n        /* \"#utility.yul\":1195:1201   */\n      0x00\n        /* \"#utility.yul\":1222:1242   */\n      tag_99\n      tag_54\n      jump\t// in\n    tag_99:\n        /* \"#utility.yul\":1212:1242   */\n      swap1\n      pop\n        /* \"#utility.yul\":1251:1284   */\n      tag_100\n        /* \"#utility.yul\":1279:1283   */\n      dup3\n        /* \"#utility.yul\":1271:1277   */\n      dup3\n        /* \"#utility.yul\":1251:1284   */\n      tag_61\n      jump\t// in\n    tag_100:\n        /* \"#utility.yul\":1161:1290   */\n      swap2\n      swap1\n      pop\n      jump\t// out\n        /* \"#utility.yul\":1296:1604   */\n    tag_63:\n        /* \"#utility.yul\":1358:1362   */\n      0x00\n        /* \"#utility.yul\":1448:1466   */\n      0xffffffffffffffff\n        /* \"#utility.yul\":1440:1446   */\n      dup3\n        /* \"#utility.yul\":1437:1467   */\n      gt\n        /* \"#utility.yul\":1434:1490   */\n      iszero\n      tag_102\n      jumpi\n        /* \"#utility.yul\":1470:1488   */\n      tag_103\n      tag_60\n      jump\t// in\n    tag_103:\n        /* \"#utility.yul\":1434:1490   */\n    tag_102:\n        /* \"#utility.yul\":1508:1537   */\n      tag_104\n        /* \"#utility.yul\":1530:1536   */\n      dup3\n        /* \"#utility.yul\":1508:1537   */\n      tag_59\n      jump\t// in\n    tag_104:\n        /* \"#utility.yul\":1500:1537   */\n      swap1\n      pop\n        /* \"#utility.yul\":1592:1596   */\n      0x20\n        /* \"#utility.yul\":1586:1590   */\n      dup2\n        /* \"#utility.yul\":1582:1597   */\n      add\n        /* \"#utility.yul\":1574:1597   */\n      swap1\n      pop\n        /* \"#utility.yul\":1296:1604   */\n      swap2\n      swap1\n      pop\n      jump\t// out\n        /* \"#utility.yul\":1610:1758   */\n    tag_64:\n        /* \"#utility.yul\":1708:1714   */\n      dup3\n        /* \"#utility.yul\":1703:1706   */\n      dup2\n        /* \"#utility.yul\":1698:1701   */\n      dup4\n        /* \"#utility.yul\":1685:1715   */\n      calldatacopy\n        /* \"#utility.yul\":1749:1750   */\n      0x00\n        /* \"#utility.yul\":1740:1746   */\n      dup4\n        /* \"#utility.yul\":1735:1738   */\n      dup4\n        /* \"#utility.yul\":1731:1747   */\n      add\n        /* \"#utility.yul\":1724:1751   */\n      mstore\n        /* \"#utility.yul\":1610:1758   */\n      pop\n      pop\n      pop\n      jump\t// out\n        /* \"#utility.yul\":1764:2189   */\n    tag_65:\n        /* \"#utility.yul\":1842:1847   */\n      0x00\n        /* \"#utility.yul\":1867:1933   */\n      tag_107\n        /* \"#utility.yul\":1883:1932   */\n      tag_108\n        /* \"#utility.yul\":1925:1931   */\n      dup5\n        /* \"#utility.yul\":1883:1932   */\n      tag_63\n      jump\t// in\n    tag_108:\n        /* \"#utility.yul\":1867:1933   */\n      tag_62\n      jump\t// in\n    tag_107:\n        /* \"#utility.yul\":1858:1933   */\n      swap1\n      pop\n        /* \"#utility.yul\":1956:1962   */\n      dup3\n        /* \"#utility.yul\":1949:1954   */\n      dup2\n        /* \"#utility.yul\":1942:1963   */\n      mstore\n        /* \"#utility.yul\":1994:1998   */\n      0x20\n        /* \"#utility.yul\":1987:1992   */\n      dup2\n        /* \"#utility.yul\":1983:1999   */\n      add\n        /* \"#utility.yul\":2032:2035   */\n      dup5\n        /* \"#utility.yul\":2023:2029   */\n      dup5\n        /* \"#utility.yul\":2018:2021   */\n      dup5\n        /* \"#utility.yul\":2014:2030   */\n      add\n        /* \"#utility.yul\":2011:2036   */\n      gt\n        /* \"#utility.yul\":2008:2120   */\n      iszero\n      tag_109\n      jumpi\n        /* \"#utility.yul\":2039:2118   */\n      tag_110\n      tag_58\n      jump\t// in\n    tag_110:\n        /* \"#utility.yul\":2008:2120   */\n    tag_109:\n        /* \"#utility.yul\":2129:2183   */\n      tag_111\n        /* \"#utility.yul\":2176:2182   */\n      dup5\n        /* \"#utility.yul\":2171:2174   */\n      dup3\n        /* \"#utility.yul\":2166:2169   */\n      dup6\n        /* \"#utility.yul\":2129:2183   */\n      tag_64\n      jump\t// in\n    tag_111:\n        /* \"#utility.yul\":1848:2189   */\n      pop\n        /* \"#utility.yul\":1764:2189   */\n      swap4\n      swap3\n      pop\n      pop\n      pop\n      jump\t// out\n        /* \"#utility.yul\":2209:2549   */\n    tag_66:\n        /* \"#utility.yul\":2265:2270   */\n      0x00\n        /* \"#utility.yul\":2314:2317   */\n      dup3\n        /* \"#utility.yul\":2307:2311   */\n      0x1f\n        /* \"#utility.yul\":2299:2305   */\n      dup4\n        /* \"#utility.yul\":2295:2312   */\n      add\n        /* \"#utility.yul\":2291:2318   */\n      slt\n        /* \"#utility.yul\":2281:2403   */\n      tag_113\n      jumpi\n        /* \"#utility.yul\":2322:2401   */\n      tag_114\n      tag_57\n      jump\t// in\n    tag_114:\n        /* \"#utility.yul\":2281:2403   */\n    tag_113:\n        /* \"#utility.yul\":2439:2445   */\n      dup2\n        /* \"#utility.yul\":2426:2446   */\n      calldataload\n        /* \"#utility.yul\":2464:2543   */\n      tag_115\n        /* \"#utility.yul\":2539:2542   */\n      dup5\n        /* \"#utility.yul\":2531:2537   */\n      dup3\n        /* \"#utility.yul\":2524:2528   */\n      0x20\n        /* \"#utility.yul\":2516:2522   */\n      dup7\n        /* \"#utility.yul\":2512:2529   */\n      add\n        /* \"#utility.yul\":2464:2543   */\n      tag_65\n      jump\t// in\n    tag_115:\n        /* \"#utility.yul\":2455:2543   */\n      swap2\n      pop\n        /* \"#utility.yul\":2271:2549   */\n      pop\n        /* \"#utility.yul\":2209:2549   */\n      swap3\n      swap2\n      pop\n      pop\n      jump\t// out\n        /* \"#utility.yul\":2555:3064   */\n    tag_8:\n        /* \"#utility.yul\":2624:2630   */\n      0x00\n        /* \"#utility.yul\":2673:2675   */\n      0x20\n        /* \"#utility.yul\":2661:2670   */\n      dup3\n        /* \"#utility.yul\":2652:2659   */\n      dup5\n        /* \"#utility.yul\":2648:2671   */\n      sub\n        /* \"#utility.yul\":2644:2676   */\n      slt\n        /* \"#utility.yul\":2641:2760   */\n      iszero\n      tag_117\n      jumpi\n        /* \"#utility.yul\":2679:2758   */\n      tag_118\n      tag_55\n      jump\t// in\n    tag_118:\n        /* \"#utility.yul\":2641:2760   */\n    tag_117:\n        /* \"#utility.yul\":2827:2828   */\n      0x00\n        /* \"#utility.yul\":2816:2825   */\n      dup3\n        /* \"#utility.yul\":2812:2829   */\n      add\n        /* \"#utility.yul\":2799:2830   */\n      calldataload\n        /* \"#utility.yul\":2857:2875   */\n      0xffffffffffffffff\n        /* \"#utility.yul\":2849:2855   */\n      dup2\n        /* \"#utility.yul\":2846:2876   */\n      gt\n        /* \"#utility.yul\":2843:2960   */\n      iszero\n      tag_119\n      jumpi\n        /* \"#utility.yul\":2879:2958   */\n      tag_120\n      tag_56\n      jump\t// in\n    tag_120:\n        /* \"#utility.yul\":2843:2960   */\n    tag_119:\n        /* \"#utility.yul\":2984:3047   */\n      tag_121\n        /* \"#utility.yul\":3039:3046   */\n      dup5\n        /* \"#utility.yul\":3030:3036   */\n      dup3\n        /* \"#utility.yul\":3019:3028   */\n      dup6\n        /* \"#utility.yul\":3015:3037   */\n      add\n        /* \"#utility.yul\":2984:3047   */\n      tag_66\n      jump\t// in\n    tag_121:\n        /* \"#utility.yul\":2974:3047   */\n      swap2\n      pop\n        /* \"#utility.yul\":2770:3057   */\n      pop\n        /* \"#utility.yul\":2555:3064   */\n      swap3\n      swap2\n      pop\n      pop\n      jump\t// out\n        /* \"#utility.yul\":3070:3147   */\n    tag_67:\n        /* \"#utility.yul\":3107:3114   */\n      0x00\n        /* \"#utility.yul\":3136:3141   */\n      dup2\n        /* \"#utility.yul\":3125:3141   */\n      swap1\n      pop\n        /* \"#utility.yul\":3070:3147   */\n      swap2\n      swap1\n      pop\n      jump\t// out\n        /* \"#utility.yul\":3153:3271   */\n    tag_68:\n        /* \"#utility.yul\":3240:3264   */\n      tag_124\n        /* \"#utility.yul\":3258:3263   */\n      dup2\n        /* \"#utility.yul\":3240:3264   */\n      tag_67\n      jump\t// in\n    tag_124:\n        /* \"#utility.yul\":3235:3238   */\n      dup3\n        /* \"#utility.yul\":3228:3265   */\n      mstore\n        /* \"#utility.yul\":3153:3271   */\n      pop\n      pop\n      jump\t// out\n        /* \"#utility.yul\":3277:3499   */\n    tag_11:\n        /* \"#utility.yul\":3370:3374   */\n      0x00\n        /* \"#utility.yul\":3408:3410   */\n      0x20\n        /* \"#utility.yul\":3397:3406   */\n      dup3\n        /* \"#utility.yul\":3393:3411   */\n      add\n        /* \"#utility.yul\":3385:3411   */\n      swap1\n      pop\n        /* \"#utility.yul\":3421:3492   */\n      tag_126\n        /* \"#utility.yul\":3489:3490   */\n      0x00\n        /* \"#utility.yul\":3478:3487   */\n      dup4\n        /* \"#utility.yul\":3474:3491   */\n      add\n        /* \"#utility.yul\":3465:3471   */\n      dup5\n        /* \"#utility.yul\":3421:3492   */\n      tag_68\n      jump\t// in\n    tag_126:\n        /* \"#utility.yul\":3277:3499   */\n      swap3\n      swap2\n      pop\n      pop\n      jump\t// out\n        /* \"#utility.yul\":3505:3595   */\n    tag_69:\n        /* \"#utility.yul\":3539:3546   */\n      0x00\n        /* \"#utility.yul\":3582:3587   */\n      dup2\n        /* \"#utility.yul\":3575:3588   */\n      iszero\n        /* \"#utility.yul\":3568:3589   */\n      iszero\n        /* \"#utility.yul\":3557:3589   */\n      swap1\n      pop\n        /* \"#utility.yul\":3505:3595   */\n      swap2\n      swap1\n      pop\n      jump\t// out\n        /* \"#utility.yul\":3601:3710   */\n    tag_70:\n        /* \"#utility.yul\":3682:3703   */\n      tag_129\n        /* \"#utility.yul\":3697:3702   */\n      dup2\n        /* \"#utility.yul\":3682:3703   */\n      tag_69\n      jump\t// in\n    tag_129:\n        /* \"#utility.yul\":3677:3680   */\n      dup3\n        /* \"#utility.yul\":3670:3704   */\n      mstore\n        /* \"#utility.yul\":3601:3710   */\n      pop\n      pop\n      jump\t// out\n        /* \"#utility.yul\":3716:3926   */\n    tag_18:\n        /* \"#utility.yul\":3803:3807   */\n      0x00\n        /* \"#utility.yul\":3841:3843   */\n      0x20\n        /* \"#utility.yul\":3830:3839   */\n      dup3\n        /* \"#utility.yul\":3826:3844   */\n      add\n        /* \"#utility.yul\":3818:3844   */\n      swap1\n      pop\n        /* \"#utility.yul\":3854:3919   */\n      tag_131\n        /* \"#utility.yul\":3916:3917   */\n      0x00\n        /* \"#utility.yul\":3905:3914   */\n      dup4\n        /* \"#utility.yul\":3901:3918   */\n      add\n        /* \"#utility.yul\":3892:3898   */\n      dup5\n        /* \"#utility.yul\":3854:3919   */\n      tag_70\n      jump\t// in\n    tag_131:\n        /* \"#utility.yul\":3716:3926   */\n      swap3\n      swap2\n      pop\n      pop\n      jump\t// out\n        /* \"#utility.yul\":3932:4101   */\n    tag_71:\n        /* \"#utility.yul\":4016:4027   */\n      0x00\n        /* \"#utility.yul\":4050:4056   */\n      dup3\n        /* \"#utility.yul\":4045:4048   */\n      dup3\n        /* \"#utility.yul\":4038:4057   */\n      mstore\n        /* \"#utility.yul\":4090:4094   */\n      0x20\n        /* \"#utility.yul\":4085:4088   */\n      dup3\n        /* \"#utility.yul\":4081:4095   */\n      add\n        /* \"#utility.yul\":4066:4095   */\n      swap1\n      pop\n        /* \"#utility.yul\":3932:4101   */\n      swap3\n      swap2\n      pop\n      pop\n      jump\t// out\n        /* \"#utility.yul\":4107:4321   */\n    tag_72:\n        /* \"#utility.yul\":4247:4313   */\n      0xe58099e98089e4babae4b88de5ad98e59ca80000000000000000000000000000\n        /* \"#utility.yul\":4243:4244   */\n      0x00\n        /* \"#utility.yul\":4235:4241   */\n      dup3\n        /* \"#utility.yul\":4231:4245   */\n      add\n        /* \"#utility.yul\":4224:4314   */\n      mstore\n        /* \"#utility.yul\":4107:4321   */\n      pop\n      jump\t// out\n        /* \"#utility.yul\":4327:4693   */\n    tag_73:\n        /* \"#utility.yul\":4469:4472   */\n      0x00\n        /* \"#utility.yul\":4490:4557   */\n      tag_135\n        /* \"#utility.yul\":4554:4556   */\n      0x12\n        /* \"#utility.yul\":4549:4552   */\n      dup4\n        /* \"#utility.yul\":4490:4557   */\n      tag_71\n      jump\t// in\n    tag_135:\n        /* \"#utility.yul\":4483:4557   */\n      swap2\n      pop\n        /* \"#utility.yul\":4566:4659   */\n      tag_136\n        /* \"#utility.yul\":4655:4658   */\n      dup3\n        /* \"#utility.yul\":4566:4659   */\n      tag_72\n      jump\t// in\n    tag_136:\n        /* \"#utility.yul\":4684:4686   */\n      0x20\n        /* \"#utility.yul\":4679:4682   */\n      dup3\n        /* \"#utility.yul\":4675:4687   */\n      add\n        /* \"#utility.yul\":4668:4687   */\n      swap1\n      pop\n        /* \"#utility.yul\":4327:4693   */\n      swap2\n      swap1\n      pop\n      jump\t// out\n        /* \"#utility.yul\":4699:5118   */\n    tag_24:\n        /* \"#utility.yul\":4865:4869   */\n      0x00\n        /* \"#utility.yul\":4903:4905   */\n      0x20\n        /* \"#utility.yul\":4892:4901   */\n      dup3\n        /* \"#utility.yul\":4888:4906   */\n      add\n        /* \"#utility.yul\":4880:4906   */\n      swap1\n      pop\n        /* \"#utility.yul\":4952:4961   */\n      dup2\n        /* \"#utility.yul\":4946:4950   */\n      dup2\n        /* \"#utility.yul\":4942:4962   */\n      sub\n        /* \"#utility.yul\":4938:4939   */\n      0x00\n        /* \"#utility.yul\":4927:4936   */\n      dup4\n        /* \"#utility.yul\":4923:4940   */\n      add\n        /* \"#utility.yul\":4916:4963   */\n      mstore\n        /* \"#utility.yul\":4980:5111   */\n      tag_138\n        /* \"#utility.yul\":5106:5110   */\n      dup2\n        /* \"#utility.yul\":4980:5111   */\n      tag_73\n      jump\t// in\n    tag_138:\n        /* \"#utility.yul\":4972:5111   */\n      swap1\n      pop\n        /* \"#utility.yul\":4699:5118   */\n      swap2\n      swap1\n      pop\n      jump\t// out\n        /* \"#utility.yul\":5124:5223   */\n    tag_74:\n        /* \"#utility.yul\":5176:5182   */\n      0x00\n        /* \"#utility.yul\":5210:5215   */\n      dup2\n        /* \"#utility.yul\":5204:5216   */\n      mload\n        /* \"#utility.yul\":5194:5216   */\n      swap1\n      pop\n        /* \"#utility.yul\":5124:5223   */\n      swap2\n      swap1\n      pop\n      jump\t// out\n        /* \"#utility.yul\":5229:5377   */\n    tag_75:\n        /* \"#utility.yul\":5331:5342   */\n      0x00\n        /* \"#utility.yul\":5368:5371   */\n      dup2\n        /* \"#utility.yul\":5353:5371   */\n      swap1\n      pop\n        /* \"#utility.yul\":5229:5377   */\n      swap3\n      swap2\n      pop\n      pop\n      jump\t// out\n        /* \"#utility.yul\":5383:5522   */\n    tag_76:\n        /* \"#utility.yul\":5472:5478   */\n      dup3\n        /* \"#utility.yul\":5467:5470   */\n      dup2\n        /* \"#utility.yul\":5462:5465   */\n      dup4\n        /* \"#utility.yul\":5456:5479   */\n      mcopy\n        /* \"#utility.yul\":5513:5514   */\n      0x00\n        /* \"#utility.yul\":5504:5510   */\n      dup4\n        /* \"#utility.yul\":5499:5502   */\n      dup4\n        /* \"#utility.yul\":5495:5511   */\n      add\n        /* \"#utility.yul\":5488:5515   */\n      mstore\n        /* \"#utility.yul\":5383:5522   */\n      pop\n      pop\n      pop\n      jump\t// out\n        /* \"#utility.yul\":5528:5918   */\n    tag_77:\n        /* \"#utility.yul\":5634:5637   */\n      0x00\n        /* \"#utility.yul\":5662:5701   */\n      tag_143\n        /* \"#utility.yul\":5695:5700   */\n      dup3\n        /* \"#utility.yul\":5662:5701   */\n      tag_74\n      jump\t// in\n    tag_143:\n        /* \"#utility.yul\":5717:5806   */\n      tag_144\n        /* \"#utility.yul\":5799:5805   */\n      dup2\n        /* \"#utility.yul\":5794:5797   */\n      dup6\n        /* \"#utility.yul\":5717:5806   */\n      tag_75\n      jump\t// in\n    tag_144:\n        /* \"#utility.yul\":5710:5806   */\n      swap4\n      pop\n        /* \"#utility.yul\":5815:5880   */\n      tag_145\n        /* \"#utility.yul\":5873:5879   */\n      dup2\n        /* \"#utility.yul\":5868:5871   */\n      dup6\n        /* \"#utility.yul\":5861:5865   */\n      0x20\n        /* \"#utility.yul\":5854:5859   */\n      dup7\n        /* \"#utility.yul\":5850:5866   */\n      add\n        /* \"#utility.yul\":5815:5880   */\n      tag_76\n      jump\t// in\n    tag_145:\n        /* \"#utility.yul\":5905:5911   */\n      dup1\n        /* \"#utility.yul\":5900:5903   */\n      dup5\n        /* \"#utility.yul\":5896:5912   */\n      add\n        /* \"#utility.yul\":5889:5912   */\n      swap2\n      pop\n        /* \"#utility.yul\":5638:5918   */\n      pop\n        /* \"#utility.yul\":5528:5918   */\n      swap3\n      swap2\n      pop\n      pop\n      jump\t// out\n        /* \"#utility.yul\":5924:6199   */\n    tag_26:\n        /* \"#utility.yul\":6056:6059   */\n      0x00\n        /* \"#utility.yul\":6078:6173   */\n      tag_147\n        /* \"#utility.yul\":6169:6172   */\n      dup3\n        /* \"#utility.yul\":6160:6166   */\n      dup5\n        /* \"#utility.yul\":6078:6173   */\n      tag_77\n      jump\t// in\n    tag_147:\n        /* \"#utility.yul\":6071:6173   */\n      swap2\n      pop\n        /* \"#utility.yul\":6190:6193   */\n      dup2\n        /* \"#utility.yul\":6183:6193   */\n      swap1\n      pop\n        /* \"#utility.yul\":5924:6199   */\n      swap3\n      swap2\n      pop\n      pop\n      jump\t// out\n        /* \"#utility.yul\":6205:6385   */\n    tag_33:\n        /* \"#utility.yul\":6253:6330   */\n      0x4e487b7100000000000000000000000000000000000000000000000000000000\n        /* \"#utility.yul\":6250:6251   */\n      0x00\n        /* \"#utility.yul\":6243:6331   */\n      mstore\n        /* \"#utility.yul\":6350:6354   */\n      0x32\n        /* \"#utility.yul\":6347:6348   */\n      0x04\n        /* \"#utility.yul\":6340:6355   */\n      mstore\n        /* \"#utility.yul\":6374:6378   */\n      0x24\n        /* \"#utility.yul\":6371:6372   */\n      0x00\n        /* \"#utility.yul\":6364:6379   */\n      revert\n        /* \"#utility.yul\":6391:6571   */\n    tag_78:\n        /* \"#utility.yul\":6439:6516   */\n      0x4e487b7100000000000000000000000000000000000000000000000000000000\n        /* \"#utility.yul\":6436:6437   */\n      0x00\n        /* \"#utility.yul\":6429:6517   */\n      mstore\n        /* \"#utility.yul\":6536:6540   */\n      0x22\n        /* \"#utility.yul\":6533:6534   */\n      0x04\n        /* \"#utility.yul\":6526:6541   */\n      mstore\n        /* \"#utility.yul\":6560:6564   */\n      0x24\n        /* \"#utility.yul\":6557:6558   */\n      0x00\n        /* \"#utility.yul\":6550:6565   */\n      revert\n        /* \"#utility.yul\":6577:6897   */\n    tag_79:\n        /* \"#utility.yul\":6621:6627   */\n      0x00\n        /* \"#utility.yul\":6658:6659   */\n      0x02\n        /* \"#utility.yul\":6652:6656   */\n      dup3\n        /* \"#utility.yul\":6648:6660   */\n      div\n        /* \"#utility.yul\":6638:6660   */\n      swap1\n      pop\n        /* \"#utility.yul\":6705:6706   */\n      0x01\n        /* \"#utility.yul\":6699:6703   */\n      dup3\n        /* \"#utility.yul\":6695:6707   */\n      and\n        /* \"#utility.yul\":6726:6744   */\n      dup1\n        /* \"#utility.yul\":6716:6797   */\n      tag_151\n      jumpi\n        /* \"#utility.yul\":6782:6786   */\n      0x7f\n        /* \"#utility.yul\":6774:6780   */\n      dup3\n        /* \"#utility.yul\":6770:6787   */\n      and\n        /* \"#utility.yul\":6760:6787   */\n      swap2\n      pop\n        /* \"#utility.yul\":6716:6797   */\n    tag_151:\n        /* \"#utility.yul\":6844:6846   */\n      0x20\n        /* \"#utility.yul\":6836:6842   */\n      dup3\n        /* \"#utility.yul\":6833:6847   */\n      lt\n        /* \"#utility.yul\":6813:6831   */\n      dup2\n        /* \"#utility.yul\":6810:6848   */\n      sub\n        /* \"#utility.yul\":6807:6891   */\n      tag_152\n      jumpi\n        /* \"#utility.yul\":6863:6881   */\n      tag_153\n      tag_78\n      jump\t// in\n    tag_153:\n        /* \"#utility.yul\":6807:6891   */\n    tag_152:\n        /* \"#utility.yul\":6628:6897   */\n      pop\n        /* \"#utility.yul\":6577:6897   */\n      swap2\n      swap1\n      pop\n      jump\t// out\n        /* \"#utility.yul\":6903:7044   */\n    tag_80:\n        /* \"#utility.yul\":6952:6956   */\n      0x00\n        /* \"#utility.yul\":6975:6978   */\n      dup2\n        /* \"#utility.yul\":6967:6978   */\n      swap1\n      pop\n        /* \"#utility.yul\":6998:7001   */\n      dup2\n        /* \"#utility.yul\":6995:6996   */\n      0x00\n        /* \"#utility.yul\":6988:7002   */\n      mstore\n        /* \"#utility.yul\":7032:7036   */\n      0x20\n        /* \"#utility.yul\":7029:7030   */\n      0x00\n        /* \"#utility.yul\":7019:7037   */\n      keccak256\n        /* \"#utility.yul\":7011:7037   */\n      swap1\n      pop\n        /* \"#utility.yul\":6903:7044   */\n      swap2\n      swap1\n      pop\n      jump\t// out\n        /* \"#utility.yul\":7074:7948   */\n    tag_81:\n        /* \"#utility.yul\":7177:7180   */\n      0x00\n        /* \"#utility.yul\":7214:7219   */\n      dup2\n        /* \"#utility.yul\":7208:7220   */\n      sload\n        /* \"#utility.yul\":7243:7279   */\n      tag_156\n        /* \"#utility.yul\":7269:7278   */\n      dup2\n        /* \"#utility.yul\":7243:7279   */\n      tag_79\n      jump\t// in\n    tag_156:\n        /* \"#utility.yul\":7295:7384   */\n      tag_157\n        /* \"#utility.yul\":7377:7383   */\n      dup2\n        /* \"#utility.yul\":7372:7375   */\n      dup7\n        /* \"#utility.yul\":7295:7384   */\n      tag_75\n      jump\t// in\n    tag_157:\n        /* \"#utility.yul\":7288:7384   */\n      swap5\n      pop\n        /* \"#utility.yul\":7415:7416   */\n      0x01\n        /* \"#utility.yul\":7404:7413   */\n      dup3\n        /* \"#utility.yul\":7400:7417   */\n      and\n        /* \"#utility.yul\":7431:7432   */\n      0x00\n        /* \"#utility.yul\":7426:7592   */\n      dup2\n      eq\n      tag_159\n      jumpi\n        /* \"#utility.yul\":7606:7607   */\n      0x01\n        /* \"#utility.yul\":7601:7942   */\n      dup2\n      eq\n      tag_160\n      jumpi\n        /* \"#utility.yul\":7393:7942   */\n      jump(tag_158)\n        /* \"#utility.yul\":7426:7592   */\n    tag_159:\n        /* \"#utility.yul\":7510:7514   */\n      0xff\n        /* \"#utility.yul\":7506:7515   */\n      not\n        /* \"#utility.yul\":7495:7504   */\n      dup4\n        /* \"#utility.yul\":7491:7516   */\n      and\n        /* \"#utility.yul\":7486:7489   */\n      dup7\n        /* \"#utility.yul\":7479:7517   */\n      mstore\n        /* \"#utility.yul\":7572:7578   */\n      dup2\n        /* \"#utility.yul\":7565:7579   */\n      iszero\n        /* \"#utility.yul\":7558:7580   */\n      iszero\n        /* \"#utility.yul\":7550:7556   */\n      dup3\n        /* \"#utility.yul\":7546:7581   */\n      mul\n        /* \"#utility.yul\":7541:7544   */\n      dup7\n        /* \"#utility.yul\":7537:7582   */\n      add\n        /* \"#utility.yul\":7530:7582   */\n      swap4\n      pop\n        /* \"#utility.yul\":7426:7592   */\n      jump(tag_158)\n        /* \"#utility.yul\":7601:7942   */\n    tag_160:\n        /* \"#utility.yul\":7668:7706   */\n      tag_161\n        /* \"#utility.yul\":7700:7705   */\n      dup6\n        /* \"#utility.yul\":7668:7706   */\n      tag_80\n      jump\t// in\n    tag_161:\n        /* \"#utility.yul\":7728:7729   */\n      0x00\n        /* \"#utility.yul\":7742:7896   */\n    tag_162:\n        /* \"#utility.yul\":7756:7762   */\n      dup4\n        /* \"#utility.yul\":7753:7754   */\n      dup2\n        /* \"#utility.yul\":7750:7763   */\n      lt\n        /* \"#utility.yul\":7742:7896   */\n      iszero\n      tag_164\n      jumpi\n        /* \"#utility.yul\":7830:7837   */\n      dup2\n        /* \"#utility.yul\":7824:7838   */\n      sload\n        /* \"#utility.yul\":7820:7821   */\n      dup2\n        /* \"#utility.yul\":7815:7818   */\n      dup10\n        /* \"#utility.yul\":7811:7822   */\n      add\n        /* \"#utility.yul\":7804:7839   */\n      mstore\n        /* \"#utility.yul\":7880:7881   */\n      0x01\n        /* \"#utility.yul\":7871:7878   */\n      dup3\n        /* \"#utility.yul\":7867:7882   */\n      add\n        /* \"#utility.yul\":7856:7882   */\n      swap2\n      pop\n        /* \"#utility.yul\":7778:7782   */\n      0x20\n        /* \"#utility.yul\":7775:7776   */\n      dup2\n        /* \"#utility.yul\":7771:7783   */\n      add\n        /* \"#utility.yul\":7766:7783   */\n      swap1\n      pop\n        /* \"#utility.yul\":7742:7896   */\n      jump(tag_162)\n    tag_164:\n        /* \"#utility.yul\":7925:7931   */\n      dup4\n        /* \"#utility.yul\":7920:7923   */\n      dup9\n        /* \"#utility.yul\":7916:7932   */\n      add\n        /* \"#utility.yul\":7909:7932   */\n      swap6\n      pop\n        /* \"#utility.yul\":7608:7942   */\n      pop\n      pop\n        /* \"#utility.yul\":7393:7942   */\n    tag_158:\n      pop\n        /* \"#utility.yul\":7181:7948   */\n      pop\n      pop\n        /* \"#utility.yul\":7074:7948   */\n      swap3\n      swap2\n      pop\n      pop\n      jump\t// out\n        /* \"#utility.yul\":7954:8223   */\n    tag_36:\n        /* \"#utility.yul\":8083:8086   */\n      0x00\n        /* \"#utility.yul\":8105:8197   */\n      tag_166\n        /* \"#utility.yul\":8193:8196   */\n      dup3\n        /* \"#utility.yul\":8184:8190   */\n      dup5\n        /* \"#utility.yul\":8105:8197   */\n      tag_81\n      jump\t// in\n    tag_166:\n        /* \"#utility.yul\":8098:8197   */\n      swap2\n      pop\n        /* \"#utility.yul\":8214:8217   */\n      dup2\n        /* \"#utility.yul\":8207:8217   */\n      swap1\n      pop\n        /* \"#utility.yul\":7954:8223   */\n      swap3\n      swap2\n      pop\n      pop\n      jump\t// out\n        /* \"#utility.yul\":8229:8409   */\n    tag_82:\n        /* \"#utility.yul\":8277:8354   */\n      0x4e487b7100000000000000000000000000000000000000000000000000000000\n        /* \"#utility.yul\":8274:8275   */\n      0x00\n        /* \"#utility.yul\":8267:8355   */\n      mstore\n        /* \"#utility.yul\":8374:8378   */\n      0x11\n        /* \"#utility.yul\":8371:8372   */\n      0x04\n        /* \"#utility.yul\":8364:8379   */\n      mstore\n        /* \"#utility.yul\":8398:8402   */\n      0x24\n        /* \"#utility.yul\":8395:8396   */\n      0x00\n        /* \"#utility.yul\":8388:8403   */\n      revert\n        /* \"#utility.yul\":8415:8606   */\n    tag_43:\n        /* \"#utility.yul\":8455:8458   */\n      0x00\n        /* \"#utility.yul\":8474:8494   */\n      tag_169\n        /* \"#utility.yul\":8492:8493   */\n      dup3\n        /* \"#utility.yul\":8474:8494   */\n      tag_67\n      jump\t// in\n    tag_169:\n        /* \"#utility.yul\":8469:8494   */\n      swap2\n      pop\n        /* \"#utility.yul\":8508:8528   */\n      tag_170\n        /* \"#utility.yul\":8526:8527   */\n      dup4\n        /* \"#utility.yul\":8508:8528   */\n      tag_67\n      jump\t// in\n    tag_170:\n        /* \"#utility.yul\":8503:8528   */\n      swap3\n      pop\n        /* \"#utility.yul\":8551:8552   */\n      dup3\n        /* \"#utility.yul\":8548:8549   */\n      dup3\n        /* \"#utility.yul\":8544:8553   */\n      add\n        /* \"#utility.yul\":8537:8553   */\n      swap1\n      pop\n        /* \"#utility.yul\":8572:8575   */\n      dup1\n        /* \"#utility.yul\":8569:8570   */\n      dup3\n        /* \"#utility.yul\":8566:8576   */\n      gt\n        /* \"#utility.yul\":8563:8599   */\n      iszero\n      tag_171\n      jumpi\n        /* \"#utility.yul\":8579:8597   */\n      tag_172\n      tag_82\n      jump\t// in\n    tag_172:\n        /* \"#utility.yul\":8563:8599   */\n    tag_171:\n        /* \"#utility.yul\":8415:8606   */\n      swap3\n      swap2\n      pop\n      pop\n      jump\t// out\n        /* \"#utility.yul\":8612:8759   */\n    tag_83:\n        /* \"#utility.yul\":8713:8724   */\n      0x00\n        /* \"#utility.yul\":8750:8753   */\n      dup2\n        /* \"#utility.yul\":8735:8753   */\n      swap1\n      pop\n        /* \"#utility.yul\":8612:8759   */\n      swap3\n      swap2\n      pop\n      pop\n      jump\t// out\n        /* \"#utility.yul\":8765:8909   */\n    tag_84:\n        /* \"#utility.yul\":8817:8821   */\n      0x00\n        /* \"#utility.yul\":8840:8843   */\n      dup2\n        /* \"#utility.yul\":8832:8843   */\n      swap1\n      pop\n        /* \"#utility.yul\":8863:8866   */\n      dup2\n        /* \"#utility.yul\":8860:8861   */\n      0x00\n        /* \"#utility.yul\":8853:8867   */\n      mstore\n        /* \"#utility.yul\":8897:8901   */\n      0x20\n        /* \"#utility.yul\":8894:8895   */\n      0x00\n        /* \"#utility.yul\":8884:8902   */\n      keccak256\n        /* \"#utility.yul\":8876:8902   */\n      swap1\n      pop\n        /* \"#utility.yul\":8765:8909   */\n      swap2\n      swap1\n      pop\n      jump\t// out\n        /* \"#utility.yul\":8937:9815   */\n    tag_85:\n        /* \"#utility.yul\":9042:9045   */\n      0x00\n        /* \"#utility.yul\":9079:9084   */\n      dup2\n        /* \"#utility.yul\":9073:9085   */\n      sload\n        /* \"#utility.yul\":9108:9144   */\n      tag_176\n        /* \"#utility.yul\":9134:9143   */\n      dup2\n        /* \"#utility.yul\":9108:9144   */\n      tag_79\n      jump\t// in\n    tag_176:\n        /* \"#utility.yul\":9160:9248   */\n      tag_177\n        /* \"#utility.yul\":9241:9247   */\n      dup2\n        /* \"#utility.yul\":9236:9239   */\n      dup7\n        /* \"#utility.yul\":9160:9248   */\n      tag_83\n      jump\t// in\n    tag_177:\n        /* \"#utility.yul\":9153:9248   */\n      swap5\n      pop\n        /* \"#utility.yul\":9279:9280   */\n      0x01\n        /* \"#utility.yul\":9268:9277   */\n      dup3\n        /* \"#utility.yul\":9264:9281   */\n      and\n        /* \"#utility.yul\":9295:9296   */\n      0x00\n        /* \"#utility.yul\":9290:9456   */\n      dup2\n      eq\n      tag_179\n      jumpi\n        /* \"#utility.yul\":9470:9471   */\n      0x01\n        /* \"#utility.yul\":9465:9809   */\n      dup2\n      eq\n      tag_180\n      jumpi\n        /* \"#utility.yul\":9257:9809   */\n      jump(tag_178)\n        /* \"#utility.yul\":9290:9456   */\n    tag_179:\n        /* \"#utility.yul\":9374:9378   */\n      0xff\n        /* \"#utility.yul\":9370:9379   */\n      not\n        /* \"#utility.yul\":9359:9368   */\n      dup4\n        /* \"#utility.yul\":9355:9380   */\n      and\n        /* \"#utility.yul\":9350:9353   */\n      dup7\n        /* \"#utility.yul\":9343:9381   */\n      mstore\n        /* \"#utility.yul\":9436:9442   */\n      dup2\n        /* \"#utility.yul\":9429:9443   */\n      iszero\n        /* \"#utility.yul\":9422:9444   */\n      iszero\n        /* \"#utility.yul\":9414:9420   */\n      dup3\n        /* \"#utility.yul\":9410:9445   */\n      mul\n        /* \"#utility.yul\":9405:9408   */\n      dup7\n        /* \"#utility.yul\":9401:9446   */\n      add\n        /* \"#utility.yul\":9394:9446   */\n      swap4\n      pop\n        /* \"#utility.yul\":9290:9456   */\n      jump(tag_178)\n        /* \"#utility.yul\":9465:9809   */\n    tag_180:\n        /* \"#utility.yul\":9532:9573   */\n      tag_181\n        /* \"#utility.yul\":9567:9572   */\n      dup6\n        /* \"#utility.yul\":9532:9573   */\n      tag_84\n      jump\t// in\n    tag_181:\n        /* \"#utility.yul\":9595:9596   */\n      0x00\n        /* \"#utility.yul\":9609:9763   */\n    tag_182:\n        /* \"#utility.yul\":9623:9629   */\n      dup4\n        /* \"#utility.yul\":9620:9621   */\n      dup2\n        /* \"#utility.yul\":9617:9630   */\n      lt\n        /* \"#utility.yul\":9609:9763   */\n      iszero\n      tag_184\n      jumpi\n        /* \"#utility.yul\":9697:9704   */\n      dup2\n        /* \"#utility.yul\":9691:9705   */\n      sload\n        /* \"#utility.yul\":9687:9688   */\n      dup2\n        /* \"#utility.yul\":9682:9685   */\n      dup10\n        /* \"#utility.yul\":9678:9689   */\n      add\n        /* \"#utility.yul\":9671:9706   */\n      mstore\n        /* \"#utility.yul\":9747:9748   */\n      0x01\n        /* \"#utility.yul\":9738:9745   */\n      dup3\n        /* \"#utility.yul\":9734:9749   */\n      add\n        /* \"#utility.yul\":9723:9749   */\n      swap2\n      pop\n        /* \"#utility.yul\":9645:9649   */\n      0x20\n        /* \"#utility.yul\":9642:9643   */\n      dup2\n        /* \"#utility.yul\":9638:9650   */\n      add\n        /* \"#utility.yul\":9633:9650   */\n      swap1\n      pop\n        /* \"#utility.yul\":9609:9763   */\n      jump(tag_182)\n    tag_184:\n        /* \"#utility.yul\":9792:9798   */\n      dup4\n        /* \"#utility.yul\":9787:9790   */\n      dup9\n        /* \"#utility.yul\":9783:9799   */\n      add\n        /* \"#utility.yul\":9776:9799   */\n      swap6\n      pop\n        /* \"#utility.yul\":9472:9809   */\n      pop\n      pop\n        /* \"#utility.yul\":9257:9809   */\n    tag_178:\n      pop\n        /* \"#utility.yul\":9046:9815   */\n      pop\n      pop\n        /* \"#utility.yul\":8937:9815   */\n      swap3\n      swap2\n      pop\n      pop\n      jump\t// out\n        /* \"#utility.yul\":9821:10094   */\n    tag_52:\n        /* \"#utility.yul\":9952:9955   */\n      0x00\n        /* \"#utility.yul\":9974:10068   */\n      tag_186\n        /* \"#utility.yul\":10064:10067   */\n      dup3\n        /* \"#utility.yul\":10055:10061   */\n      dup5\n        /* \"#utility.yul\":9974:10068   */\n      tag_85\n      jump\t// in\n    tag_186:\n        /* \"#utility.yul\":9967:10068   */\n      swap2\n      pop\n        /* \"#utility.yul\":10085:10088   */\n      dup2\n        /* \"#utility.yul\":10078:10088   */\n      swap1\n      pop\n        /* \"#utility.yul\":9821:10094   */\n      swap3\n      swap2\n      pop\n      pop\n      jump\t// out\n\n    auxdata: 0xa264697066735822122062690a672171fc5a51483519c2a1aa70c6394f5dfe2bc85bc71f79552ea0be6c64736f6c634300081e0033\n}\n",
				"bytecode": {
					"linkReferences": {},
					"object": "608060405234801561000f575f5ffd5b505f5f60405161001e90610279565b90815260200160405180910390208190555060018060018154018082558091505060019003905f5260205f20015f6040518060400160405280600981526020017fe5bca0e5ada6e58f8b00000000000000000000000000000000000000000000008152509091909150908161009391906104ca565b505f5f6040516100a2906105e3565b90815260200160405180910390208190555060018060018154018082558091505060019003905f5260205f20015f6040518060400160405280600681526020017fe9bb8ee6988e00000000000000000000000000000000000000000000000000008152509091909150908161011791906104ca565b505f5f60405161012690610641565b90815260200160405180910390208190555060018060018154018082558091505060019003905f5260205f20015f6040518060400160405280600981526020017fe983ade5af8ce59f8e00000000000000000000000000000000000000000000008152509091909150908161019b91906104ca565b505f5f6040516101aa9061069f565b90815260200160405180910390208190555060018060018154018082558091505060019003905f5260205f20015f6040518060400160405280600981526020017fe58898e5beb7e58d8e00000000000000000000000000000000000000000000008152509091909150908161021f91906104ca565b506106b3565b5f81905092915050565b7fe5bca0e5ada6e58f8b00000000000000000000000000000000000000000000005f82015250565b5f610263600983610225565b915061026e8261022f565b600982019050919050565b5f61028382610257565b9150819050919050565b5f81519050919050565b7f4e487b71000000000000000000000000000000000000000000000000000000005f52604160045260245ffd5b7f4e487b71000000000000000000000000000000000000000000000000000000005f52602260045260245ffd5b5f600282049050600182168061030857607f821691505b60208210810361031b5761031a6102c4565b5b50919050565b5f819050815f5260205f209050919050565b5f6020601f8301049050919050565b5f82821b905092915050565b5f6008830261037d7fffffffffffffffffffffffffffffffffffffffffffffffffffffffffffffffff82610342565b6103878683610342565b95508019841693508086168417925050509392505050565b5f819050919050565b5f819050919050565b5f6103cb6103c66103c18461039f565b6103a8565b61039f565b9050919050565b5f819050919050565b6103e4836103b1565b6103f86103f0826103d2565b84845461034e565b825550505050565b5f5f905090565b61040f610400565b61041a8184846103db565b505050565b5b8181101561043d576104325f82610407565b600181019050610420565b5050565b601f8211156104825761045381610321565b61045c84610333565b8101602085101561046b578190505b61047f61047785610333565b83018261041f565b50505b505050565b5f82821c905092915050565b5f6104a25f1984600802610487565b1980831691505092915050565b5f6104ba8383610493565b9150826002028217905092915050565b6104d38261028d565b67ffffffffffffffff8111156104ec576104eb610297565b5b6104f682546102f1565b610501828285610441565b5f60209050601f831160018114610532575f8415610520578287015190505b61052a85826104af565b865550610591565b601f19841661054086610321565b5f5b8281101561056757848901518255600182019150602085019450602081019050610542565b868310156105845784890151610580601f891682610493565b8355505b6001600288020188555050505b505050505050565b7fe9bb8ee6988e00000000000000000000000000000000000000000000000000005f82015250565b5f6105cd600683610225565b91506105d882610599565b600682019050919050565b5f6105ed826105c1565b9150819050919050565b7fe983ade5af8ce59f8e00000000000000000000000000000000000000000000005f82015250565b5f61062b600983610225565b9150610636826105f7565b600982019050919050565b5f61064b8261061f565b9150819050919050565b7fe58898e5beb7e58d8e00000000000000000000000000000000000000000000005f82015250565b5f610689600983610225565b915061069482610655565b600982019050919050565b5f6106a98261067d565b9150819050919050565b6107c4806106c05f395ff3fe608060405234801561000f575f5ffd5b506004361061003f575f3560e01c8063805265e514610043578063b9830ff114610073578063fc36e15b1461007d575b5f5ffd5b61005d600480360381019061005891906103bf565b6100ad565b60405161006a919061041e565b60405180910390f35b61007b61011b565b005b610097600480360381019061009291906103bf565b61017a565b6040516100a49190610451565b60405180910390f35b5f6100b782610200565b6100f6576040517f08c379a00000000000000000000000000000000000000000000000000000000081526004016100ed906104c4565b60405180910390fd5b5f826040516101059190610534565b9081526020016040518091039020549050919050565b5f5f90505b600180549050811015610177575f5f600183815481106101435761014261054a565b5b905f5260205f20016040516101589190610666565b9081526020016040518091039020819055508080600101915050610120565b50565b5f61018482610200565b6101c3576040517f08c379a00000000000000000000000000000000000000000000000000000000081526004016101ba906104c4565b60405180910390fd5b60015f836040516101d49190610534565b90815260200160405180910390205f8282546101f091906106a9565b9250508190555060019050919050565b5f5f5f90505b6001805490508110156102685782805190602001206001828154811061022f5761022e61054a565b5b905f5260205f20016040516102449190610778565b60405180910390200361025b57600191505061026d565b8080600101915050610206565b505f90505b919050565b5f604051905090565b5f5ffd5b5f5ffd5b5f5ffd5b5f5ffd5b5f601f19601f8301169050919050565b7f4e487b71000000000000000000000000000000000000000000000000000000005f52604160045260245ffd5b6102d18261028b565b810181811067ffffffffffffffff821117156102f0576102ef61029b565b5b80604052505050565b5f610302610272565b905061030e82826102c8565b919050565b5f67ffffffffffffffff82111561032d5761032c61029b565b5b6103368261028b565b9050602081019050919050565b828183375f83830152505050565b5f61036361035e84610313565b6102f9565b90508281526020810184848401111561037f5761037e610287565b5b61038a848285610343565b509392505050565b5f82601f8301126103a6576103a5610283565b5b81356103b6848260208601610351565b91505092915050565b5f602082840312156103d4576103d361027b565b5b5f82013567ffffffffffffffff8111156103f1576103f061027f565b5b6103fd84828501610392565b91505092915050565b5f819050919050565b61041881610406565b82525050565b5f6020820190506104315f83018461040f565b92915050565b5f8115159050919050565b61044b81610437565b82525050565b5f6020820190506104645f830184610442565b92915050565b5f82825260208201905092915050565b7fe58099e98089e4babae4b88de5ad98e59ca800000000000000000000000000005f82015250565b5f6104ae60128361046a565b91506104b98261047a565b602082019050919050565b5f6020820190508181035f8301526104db816104a2565b9050919050565b5f81519050919050565b5f81905092915050565b8281835e5f83830152505050565b5f61050e826104e2565b61051881856104ec565b93506105288185602086016104f6565b80840191505092915050565b5f61053f8284610504565b915081905092915050565b7f4e487b71000000000000000000000000000000000000000000000000000000005f52603260045260245ffd5b7f4e487b71000000000000000000000000000000000000000000000000000000005f52602260045260245ffd5b5f60028204905060018216806105bb57607f821691505b6020821081036105ce576105cd610577565b5b50919050565b5f819050815f5260205f209050919050565b5f81546105f2816105a4565b6105fc81866104ec565b9450600182165f8114610616576001811461062b5761065d565b60ff198316865281151582028601935061065d565b610634856105d4565b5f5b8381101561065557815481890152600182019150602081019050610636565b838801955050505b50505092915050565b5f61067182846105e6565b915081905092915050565b7f4e487b71000000000000000000000000000000000000000000000000000000005f52601160045260245ffd5b5f6106b382610406565b91506106be83610406565b92508282019050808211156106d6576106d561067c565b5b92915050565b5f81905092915050565b5f819050815f5260205f209050919050565b5f8154610704816105a4565b61070e81866106dc565b9450600182165f8114610728576001811461073d5761076f565b60ff198316865281151582028601935061076f565b610746856106e6565b5f5b8381101561076757815481890152600182019150602081019050610748565b838801955050505b50505092915050565b5f61078382846106f8565b91508190509291505056fea264697066735822122062690a672171fc5a51483519c2a1aa70c6394f5dfe2bc85bc71f79552ea0be6c64736f6c634300081e0033",
					"opcodes": "PUSH1 0x80 PUSH1 0x40 MSTORE CALLVALUE DUP1 ISZERO PUSH2 0xF JUMPI PUSH0 PUSH0 REVERT JUMPDEST POP PUSH0 PUSH0 PUSH1 0x40 MLOAD PUSH2 0x1E SWAP1 PUSH2 0x279 JUMP JUMPDEST SWAP1 DUP2 MSTORE PUSH1 0x20 ADD PUSH1 0x40 MLOAD DUP1 SWAP2 SUB SWAP1 KECCAK256 DUP2 SWAP1 SSTORE POP PUSH1 0x1 DUP1 PUSH1 0x1 DUP2 SLOAD ADD DUP1 DUP3 SSTORE DUP1 SWAP2 POP POP PUSH1 0x1 SWAP1 SUB SWAP1 PUSH0 MSTORE PUSH1 0x20 PUSH0 KECCAK256 ADD PUSH0 PUSH1 0x40 MLOAD DUP1 PUSH1 0x40 ADD PUSH1 0x40 MSTORE DUP1 PUSH1 0x9 DUP2 MSTORE PUSH1 0x20 ADD PUSH32 0xE5BCA0E5ADA6E58F8B0000000000000000000000000000000000000000000000 DUP2 MSTORE POP SWAP1 SWAP2 SWAP1 SWAP2 POP SWAP1 DUP2 PUSH2 0x93 SWAP2 SWAP1 PUSH2 0x4CA JUMP JUMPDEST POP PUSH0 PUSH0 PUSH1 0x40 MLOAD PUSH2 0xA2 SWAP1 PUSH2 0x5E3 JUMP JUMPDEST SWAP1 DUP2 MSTORE PUSH1 0x20 ADD PUSH1 0x40 MLOAD DUP1 SWAP2 SUB SWAP1 KECCAK256 DUP2 SWAP1 SSTORE POP PUSH1 0x1 DUP1 PUSH1 0x1 DUP2 SLOAD ADD DUP1 DUP3 SSTORE DUP1 SWAP2 POP POP PUSH1 0x1 SWAP1 SUB SWAP1 PUSH0 MSTORE PUSH1 0x20 PUSH0 KECCAK256 ADD PUSH0 PUSH1 0x40 MLOAD DUP1 PUSH1 0x40 ADD PUSH1 0x40 MSTORE DUP1 PUSH1 0x6 DUP2 MSTORE PUSH1 0x20 ADD PUSH32 0xE9BB8EE6988E0000000000000000000000000000000000000000000000000000 DUP2 MSTORE POP SWAP1 SWAP2 SWAP1 SWAP2 POP SWAP1 DUP2 PUSH2 0x117 SWAP2 SWAP1 PUSH2 0x4CA JUMP JUMPDEST POP PUSH0 PUSH0 PUSH1 0x40 MLOAD PUSH2 0x126 SWAP1 PUSH2 0x641 JUMP JUMPDEST SWAP1 DUP2 MSTORE PUSH1 0x20 ADD PUSH1 0x40 MLOAD DUP1 SWAP2 SUB SWAP1 KECCAK256 DUP2 SWAP1 SSTORE POP PUSH1 0x1 DUP1 PUSH1 0x1 DUP2 SLOAD ADD DUP1 DUP3 SSTORE DUP1 SWAP2 POP POP PUSH1 0x1 SWAP1 SUB SWAP1 PUSH0 MSTORE PUSH1 0x20 PUSH0 KECCAK256 ADD PUSH0 PUSH1 0x40 MLOAD DUP1 PUSH1 0x40 ADD PUSH1 0x40 MSTORE DUP1 PUSH1 0x9 DUP2 MSTORE PUSH1 0x20 ADD PUSH32 0xE983ADE5AF8CE59F8E0000000000000000000000000000000000000000000000 DUP2 MSTORE POP SWAP1 SWAP2 SWAP1 SWAP2 POP SWAP1 DUP2 PUSH2 0x19B SWAP2 SWAP1 PUSH2 0x4CA JUMP JUMPDEST POP PUSH0 PUSH0 PUSH1 0x40 MLOAD PUSH2 0x1AA SWAP1 PUSH2 0x69F JUMP JUMPDEST SWAP1 DUP2 MSTORE PUSH1 0x20 ADD PUSH1 0x40 MLOAD DUP1 SWAP2 SUB SWAP1 KECCAK256 DUP2 SWAP1 SSTORE POP PUSH1 0x1 DUP1 PUSH1 0x1 DUP2 SLOAD ADD DUP1 DUP3 SSTORE DUP1 SWAP2 POP POP PUSH1 0x1 SWAP1 SUB SWAP1 PUSH0 MSTORE PUSH1 0x20 PUSH0 KECCAK256 ADD PUSH0 PUSH1 0x40 MLOAD DUP1 PUSH1 0x40 ADD PUSH1 0x40 MSTORE DUP1 PUSH1 0x9 DUP2 MSTORE PUSH1 0x20 ADD PUSH32 0xE58898E5BEB7E58D8E0000000000000000000000000000000000000000000000 DUP2 MSTORE POP SWAP1 SWAP2 SWAP1 SWAP2 POP SWAP1 DUP2 PUSH2 0x21F SWAP2 SWAP1 PUSH2 0x4CA JUMP JUMPDEST POP PUSH2 0x6B3 JUMP JUMPDEST PUSH0 DUP2 SWAP1 POP SWAP3 SWAP2 POP POP JUMP JUMPDEST PUSH32 0xE5BCA0E5ADA6E58F8B0000000000000000000000000000000000000000000000 PUSH0 DUP3 ADD MSTORE POP JUMP JUMPDEST PUSH0 PUSH2 0x263 PUSH1 0x9 DUP4 PUSH2 0x225 JUMP JUMPDEST SWAP2 POP PUSH2 0x26E DUP3 PUSH2 0x22F JUMP JUMPDEST PUSH1 0x9 DUP3 ADD SWAP1 POP SWAP2 SWAP1 POP JUMP JUMPDEST PUSH0 PUSH2 0x283 DUP3 PUSH2 0x257 JUMP JUMPDEST SWAP2 POP DUP2 SWAP1 POP SWAP2 SWAP1 POP JUMP JUMPDEST PUSH0 DUP2 MLOAD SWAP1 POP SWAP2 SWAP1 POP JUMP JUMPDEST PUSH32 0x4E487B7100000000000000000000000000000000000000000000000000000000 PUSH0 MSTORE PUSH1 0x41 PUSH1 0x4 MSTORE PUSH1 0x24 PUSH0 REVERT JUMPDEST PUSH32 0x4E487B7100000000000000000000000000000000000000000000000000000000 PUSH0 MSTORE PUSH1 0x22 PUSH1 0x4 MSTORE PUSH1 0x24 PUSH0 REVERT JUMPDEST PUSH0 PUSH1 0x2 DUP3 DIV SWAP1 POP PUSH1 0x1 DUP3 AND DUP1 PUSH2 0x308 JUMPI PUSH1 0x7F DUP3 AND SWAP2 POP JUMPDEST PUSH1 0x20 DUP3 LT DUP2 SUB PUSH2 0x31B JUMPI PUSH2 0x31A PUSH2 0x2C4 JUMP JUMPDEST JUMPDEST POP SWAP2 SWAP1 POP JUMP JUMPDEST PUSH0 DUP2 SWAP1 POP DUP2 PUSH0 MSTORE PUSH1 0x20 PUSH0 KECCAK256 SWAP1 POP SWAP2 SWAP1 POP JUMP JUMPDEST PUSH0 PUSH1 0x20 PUSH1 0x1F DUP4 ADD DIV SWAP1 POP SWAP2 SWAP1 POP JUMP JUMPDEST PUSH0 DUP3 DUP3 SHL SWAP1 POP SWAP3 SWAP2 POP POP JUMP JUMPDEST PUSH0 PUSH1 0x8 DUP4 MUL PUSH2 0x37D PUSH32 0xFFFFFFFFFFFFFFFFFFFFFFFFFFFFFFFFFFFFFFFFFFFFFFFFFFFFFFFFFFFFFFFF DUP3 PUSH2 0x342 JUMP JUMPDEST PUSH2 0x387 DUP7 DUP4 PUSH2 0x342 JUMP JUMPDEST SWAP6 POP DUP1 NOT DUP5 AND SWAP4 POP DUP1 DUP7 AND DUP5 OR SWAP3 POP POP POP SWAP4 SWAP3 POP POP POP JUMP JUMPDEST PUSH0 DUP2 SWAP1 POP SWAP2 SWAP1 POP JUMP JUMPDEST PUSH0 DUP2 SWAP1 POP SWAP2 SWAP1 POP JUMP JUMPDEST PUSH0 PUSH2 0x3CB PUSH2 0x3C6 PUSH2 0x3C1 DUP5 PUSH2 0x39F JUMP JUMPDEST PUSH2 0x3A8 JUMP JUMPDEST PUSH2 0x39F JUMP JUMPDEST SWAP1 POP SWAP2 SWAP1 POP JUMP JUMPDEST PUSH0 DUP2 SWAP1 POP SWAP2 SWAP1 POP JUMP JUMPDEST PUSH2 0x3E4 DUP4 PUSH2 0x3B1 JUMP JUMPDEST PUSH2 0x3F8 PUSH2 0x3F0 DUP3 PUSH2 0x3D2 JUMP JUMPDEST DUP5 DUP5 SLOAD PUSH2 0x34E JUMP JUMPDEST DUP3 SSTORE POP POP POP POP JUMP JUMPDEST PUSH0 PUSH0 SWAP1 POP SWAP1 JUMP JUMPDEST PUSH2 0x40F PUSH2 0x400 JUMP JUMPDEST PUSH2 0x41A DUP2 DUP5 DUP5 PUSH2 0x3DB JUMP JUMPDEST POP POP POP JUMP JUMPDEST JUMPDEST DUP2 DUP2 LT ISZERO PUSH2 0x43D JUMPI PUSH2 0x432 PUSH0 DUP3 PUSH2 0x407 JUMP JUMPDEST PUSH1 0x1 DUP2 ADD SWAP1 POP PUSH2 0x420 JUMP JUMPDEST POP POP JUMP JUMPDEST PUSH1 0x1F DUP3 GT ISZERO PUSH2 0x482 JUMPI PUSH2 0x453 DUP2 PUSH2 0x321 JUMP JUMPDEST PUSH2 0x45C DUP5 PUSH2 0x333 JUMP JUMPDEST DUP2 ADD PUSH1 0x20 DUP6 LT ISZERO PUSH2 0x46B JUMPI DUP2 SWAP1 POP JUMPDEST PUSH2 0x47F PUSH2 0x477 DUP6 PUSH2 0x333 JUMP JUMPDEST DUP4 ADD DUP3 PUSH2 0x41F JUMP JUMPDEST POP POP JUMPDEST POP POP POP JUMP JUMPDEST PUSH0 DUP3 DUP3 SHR SWAP1 POP SWAP3 SWAP2 POP POP JUMP JUMPDEST PUSH0 PUSH2 0x4A2 PUSH0 NOT DUP5 PUSH1 0x8 MUL PUSH2 0x487 JUMP JUMPDEST NOT DUP1 DUP4 AND SWAP2 POP POP SWAP3 SWAP2 POP POP JUMP JUMPDEST PUSH0 PUSH2 0x4BA DUP4 DUP4 PUSH2 0x493 JUMP JUMPDEST SWAP2 POP DUP3 PUSH1 0x2 MUL DUP3 OR SWAP1 POP SWAP3 SWAP2 POP POP JUMP JUMPDEST PUSH2 0x4D3 DUP3 PUSH2 0x28D JUMP JUMPDEST PUSH8 0xFFFFFFFFFFFFFFFF DUP2 GT ISZERO PUSH2 0x4EC JUMPI PUSH2 0x4EB PUSH2 0x297 JUMP JUMPDEST JUMPDEST PUSH2 0x4F6 DUP3 SLOAD PUSH2 0x2F1 JUMP JUMPDEST PUSH2 0x501 DUP3 DUP3 DUP6 PUSH2 0x441 JUMP JUMPDEST PUSH0 PUSH1 0x20 SWAP1 POP PUSH1 0x1F DUP4 GT PUSH1 0x1 DUP2 EQ PUSH2 0x532 JUMPI PUSH0 DUP5 ISZERO PUSH2 0x520 JUMPI DUP3 DUP8 ADD MLOAD SWAP1 POP JUMPDEST PUSH2 0x52A DUP6 DUP3 PUSH2 0x4AF JUMP JUMPDEST DUP7 SSTORE POP PUSH2 0x591 JUMP JUMPDEST PUSH1 0x1F NOT DUP5 AND PUSH2 0x540 DUP7 PUSH2 0x321 JUMP JUMPDEST PUSH0 JUMPDEST DUP3 DUP2 LT ISZERO PUSH2 0x567 JUMPI DUP5 DUP10 ADD MLOAD DUP3 SSTORE PUSH1 0x1 DUP3 ADD SWAP2 POP PUSH1 0x20 DUP6 ADD SWAP5 POP PUSH1 0x20 DUP2 ADD SWAP1 POP PUSH2 0x542 JUMP JUMPDEST DUP7 DUP4 LT ISZERO PUSH2 0x584 JUMPI DUP5 DUP10 ADD MLOAD PUSH2 0x580 PUSH1 0x1F DUP10 AND DUP3 PUSH2 0x493 JUMP JUMPDEST DUP4 SSTORE POP JUMPDEST PUSH1 0x1 PUSH1 0x2 DUP9 MUL ADD DUP9 SSTORE POP POP POP JUMPDEST POP POP POP POP POP POP JUMP JUMPDEST PUSH32 0xE9BB8EE6988E0000000000000000000000000000000000000000000000000000 PUSH0 DUP3 ADD MSTORE POP JUMP JUMPDEST PUSH0 PUSH2 0x5CD PUSH1 0x6 DUP4 PUSH2 0x225 JUMP JUMPDEST SWAP2 POP PUSH2 0x5D8 DUP3 PUSH2 0x599 JUMP JUMPDEST PUSH1 0x6 DUP3 ADD SWAP1 POP SWAP2 SWAP1 POP JUMP JUMPDEST PUSH0 PUSH2 0x5ED DUP3 PUSH2 0x5C1 JUMP JUMPDEST SWAP2 POP DUP2 SWAP1 POP SWAP2 SWAP1 POP JUMP JUMPDEST PUSH32 0xE983ADE5AF8CE59F8E0000000000000000000000000000000000000000000000 PUSH0 DUP3 ADD MSTORE POP JUMP JUMPDEST PUSH0 PUSH2 0x62B PUSH1 0x9 DUP4 PUSH2 0x225 JUMP JUMPDEST SWAP2 POP PUSH2 0x636 DUP3 PUSH2 0x5F7 JUMP JUMPDEST PUSH1 0x9 DUP3 ADD SWAP1 POP SWAP2 SWAP1 POP JUMP JUMPDEST PUSH0 PUSH2 0x64B DUP3 PUSH2 0x61F JUMP JUMPDEST SWAP2 POP DUP2 SWAP1 POP SWAP2 SWAP1 POP JUMP JUMPDEST PUSH32 0xE58898E5BEB7E58D8E0000000000000000000000000000000000000000000000 PUSH0 DUP3 ADD MSTORE POP JUMP JUMPDEST PUSH0 PUSH2 0x689 PUSH1 0x9 DUP4 PUSH2 0x225 JUMP JUMPDEST SWAP2 POP PUSH2 0x694 DUP3 PUSH2 0x655 JUMP JUMPDEST PUSH1 0x9 DUP3 ADD SWAP1 POP SWAP2 SWAP1 POP JUMP JUMPDEST PUSH0 PUSH2 0x6A9 DUP3 PUSH2 0x67D JUMP JUMPDEST SWAP2 POP DUP2 SWAP1 POP SWAP2 SWAP1 POP JUMP JUMPDEST PUSH2 0x7C4 DUP1 PUSH2 0x6C0 PUSH0 CODECOPY PUSH0 RETURN INVALID PUSH1 0x80 PUSH1 0x40 MSTORE CALLVALUE DUP1 ISZERO PUSH2 0xF JUMPI PUSH0 PUSH0 REVERT JUMPDEST POP PUSH1 0x4 CALLDATASIZE LT PUSH2 0x3F JUMPI PUSH0 CALLDATALOAD PUSH1 0xE0 SHR DUP1 PUSH4 0x805265E5 EQ PUSH2 0x43 JUMPI DUP1 PUSH4 0xB9830FF1 EQ PUSH2 0x73 JUMPI DUP1 PUSH4 0xFC36E15B EQ PUSH2 0x7D JUMPI JUMPDEST PUSH0 PUSH0 REVERT JUMPDEST PUSH2 0x5D PUSH1 0x4 DUP1 CALLDATASIZE SUB DUP2 ADD SWAP1 PUSH2 0x58 SWAP2 SWAP1 PUSH2 0x3BF JUMP JUMPDEST PUSH2 0xAD JUMP JUMPDEST PUSH1 0x40 MLOAD PUSH2 0x6A SWAP2 SWAP1 PUSH2 0x41E JUMP JUMPDEST PUSH1 0x40 MLOAD DUP1 SWAP2 SUB SWAP1 RETURN JUMPDEST PUSH2 0x7B PUSH2 0x11B JUMP JUMPDEST STOP JUMPDEST PUSH2 0x97 PUSH1 0x4 DUP1 CALLDATASIZE SUB DUP2 ADD SWAP1 PUSH2 0x92 SWAP2 SWAP1 PUSH2 0x3BF JUMP JUMPDEST PUSH2 0x17A JUMP JUMPDEST PUSH1 0x40 MLOAD PUSH2 0xA4 SWAP2 SWAP1 PUSH2 0x451 JUMP JUMPDEST PUSH1 0x40 MLOAD DUP1 SWAP2 SUB SWAP1 RETURN JUMPDEST PUSH0 PUSH2 0xB7 DUP3 PUSH2 0x200 JUMP JUMPDEST PUSH2 0xF6 JUMPI PUSH1 0x40 MLOAD PUSH32 0x8C379A000000000000000000000000000000000000000000000000000000000 DUP2 MSTORE PUSH1 0x4 ADD PUSH2 0xED SWAP1 PUSH2 0x4C4 JUMP JUMPDEST PUSH1 0x40 MLOAD DUP1 SWAP2 SUB SWAP1 REVERT JUMPDEST PUSH0 DUP3 PUSH1 0x40 MLOAD PUSH2 0x105 SWAP2 SWAP1 PUSH2 0x534 JUMP JUMPDEST SWAP1 DUP2 MSTORE PUSH1 0x20 ADD PUSH1 0x40 MLOAD DUP1 SWAP2 SUB SWAP1 KECCAK256 SLOAD SWAP1 POP SWAP2 SWAP1 POP JUMP JUMPDEST PUSH0 PUSH0 SWAP1 POP JUMPDEST PUSH1 0x1 DUP1 SLOAD SWAP1 POP DUP2 LT ISZERO PUSH2 0x177 JUMPI PUSH0 PUSH0 PUSH1 0x1 DUP4 DUP2 SLOAD DUP2 LT PUSH2 0x143 JUMPI PUSH2 0x142 PUSH2 0x54A JUMP JUMPDEST JUMPDEST SWAP1 PUSH0 MSTORE PUSH1 0x20 PUSH0 KECCAK256 ADD PUSH1 0x40 MLOAD PUSH2 0x158 SWAP2 SWAP1 PUSH2 0x666 JUMP JUMPDEST SWAP1 DUP2 MSTORE PUSH1 0x20 ADD PUSH1 0x40 MLOAD DUP1 SWAP2 SUB SWAP1 KECCAK256 DUP2 SWAP1 SSTORE POP DUP1 DUP1 PUSH1 0x1 ADD SWAP2 POP POP PUSH2 0x120 JUMP JUMPDEST POP JUMP JUMPDEST PUSH0 PUSH2 0x184 DUP3 PUSH2 0x200 JUMP JUMPDEST PUSH2 0x1C3 JUMPI PUSH1 0x40 MLOAD PUSH32 0x8C379A000000000000000000000000000000000000000000000000000000000 DUP2 MSTORE PUSH1 0x4 ADD PUSH2 0x1BA SWAP1 PUSH2 0x4C4 JUMP JUMPDEST PUSH1 0x40 MLOAD DUP1 SWAP2 SUB SWAP1 REVERT JUMPDEST PUSH1 0x1 PUSH0 DUP4 PUSH1 0x40 MLOAD PUSH2 0x1D4 SWAP2 SWAP1 PUSH2 0x534 JUMP JUMPDEST SWAP1 DUP2 MSTORE PUSH1 0x20 ADD PUSH1 0x40 MLOAD DUP1 SWAP2 SUB SWAP1 KECCAK256 PUSH0 DUP3 DUP3 SLOAD PUSH2 0x1F0 SWAP2 SWAP1 PUSH2 0x6A9 JUMP JUMPDEST SWAP3 POP POP DUP2 SWAP1 SSTORE POP PUSH1 0x1 SWAP1 POP SWAP2 SWAP1 POP JUMP JUMPDEST PUSH0 PUSH0 PUSH0 SWAP1 POP JUMPDEST PUSH1 0x1 DUP1 SLOAD SWAP1 POP DUP2 LT ISZERO PUSH2 0x268 JUMPI DUP3 DUP1 MLOAD SWAP1 PUSH1 0x20 ADD KECCAK256 PUSH1 0x1 DUP3 DUP2 SLOAD DUP2 LT PUSH2 0x22F JUMPI PUSH2 0x22E PUSH2 0x54A JUMP JUMPDEST JUMPDEST SWAP1 PUSH0 MSTORE PUSH1 0x20 PUSH0 KECCAK256 ADD PUSH1 0x40 MLOAD PUSH2 0x244 SWAP2 SWAP1 PUSH2 0x778 JUMP JUMPDEST PUSH1 0x40 MLOAD DUP1 SWAP2 SUB SWAP1 KECCAK256 SUB PUSH2 0x25B JUMPI PUSH1 0x1 SWAP2 POP POP PUSH2 0x26D JUMP JUMPDEST DUP1 DUP1 PUSH1 0x1 ADD SWAP2 POP POP PUSH2 0x206 JUMP JUMPDEST POP PUSH0 SWAP1 POP JUMPDEST SWAP2 SWAP1 POP JUMP JUMPDEST PUSH0 PUSH1 0x40 MLOAD SWAP1 POP SWAP1 JUMP JUMPDEST PUSH0 PUSH0 REVERT JUMPDEST PUSH0 PUSH0 REVERT JUMPDEST PUSH0 PUSH0 REVERT JUMPDEST PUSH0 PUSH0 REVERT JUMPDEST PUSH0 PUSH1 0x1F NOT PUSH1 0x1F DUP4 ADD AND SWAP1 POP SWAP2 SWAP1 POP JUMP JUMPDEST PUSH32 0x4E487B7100000000000000000000000000000000000000000000000000000000 PUSH0 MSTORE PUSH1 0x41 PUSH1 0x4 MSTORE PUSH1 0x24 PUSH0 REVERT JUMPDEST PUSH2 0x2D1 DUP3 PUSH2 0x28B JUMP JUMPDEST DUP2 ADD DUP2 DUP2 LT PUSH8 0xFFFFFFFFFFFFFFFF DUP3 GT OR ISZERO PUSH2 0x2F0 JUMPI PUSH2 0x2EF PUSH2 0x29B JUMP JUMPDEST JUMPDEST DUP1 PUSH1 0x40 MSTORE POP POP POP JUMP JUMPDEST PUSH0 PUSH2 0x302 PUSH2 0x272 JUMP JUMPDEST SWAP1 POP PUSH2 0x30E DUP3 DUP3 PUSH2 0x2C8 JUMP JUMPDEST SWAP2 SWAP1 POP JUMP JUMPDEST PUSH0 PUSH8 0xFFFFFFFFFFFFFFFF DUP3 GT ISZERO PUSH2 0x32D JUMPI PUSH2 0x32C PUSH2 0x29B JUMP JUMPDEST JUMPDEST PUSH2 0x336 DUP3 PUSH2 0x28B JUMP JUMPDEST SWAP1 POP PUSH1 0x20 DUP2 ADD SWAP1 POP SWAP2 SWAP1 POP JUMP JUMPDEST DUP3 DUP2 DUP4 CALLDATACOPY PUSH0 DUP4 DUP4 ADD MSTORE POP POP POP JUMP JUMPDEST PUSH0 PUSH2 0x363 PUSH2 0x35E DUP5 PUSH2 0x313 JUMP JUMPDEST PUSH2 0x2F9 JUMP JUMPDEST SWAP1 POP DUP3 DUP2 MSTORE PUSH1 0x20 DUP2 ADD DUP5 DUP5 DUP5 ADD GT ISZERO PUSH2 0x37F JUMPI PUSH2 0x37E PUSH2 0x287 JUMP JUMPDEST JUMPDEST PUSH2 0x38A DUP5 DUP3 DUP6 PUSH2 0x343 JUMP JUMPDEST POP SWAP4 SWAP3 POP POP POP JUMP JUMPDEST PUSH0 DUP3 PUSH1 0x1F DUP4 ADD SLT PUSH2 0x3A6 JUMPI PUSH2 0x3A5 PUSH2 0x283 JUMP JUMPDEST JUMPDEST DUP2 CALLDATALOAD PUSH2 0x3B6 DUP5 DUP3 PUSH1 0x20 DUP7 ADD PUSH2 0x351 JUMP JUMPDEST SWAP2 POP POP SWAP3 SWAP2 POP POP JUMP JUMPDEST PUSH0 PUSH1 0x20 DUP3 DUP5 SUB SLT ISZERO PUSH2 0x3D4 JUMPI PUSH2 0x3D3 PUSH2 0x27B JUMP JUMPDEST JUMPDEST PUSH0 DUP3 ADD CALLDATALOAD PUSH8 0xFFFFFFFFFFFFFFFF DUP2 GT ISZERO PUSH2 0x3F1 JUMPI PUSH2 0x3F0 PUSH2 0x27F JUMP JUMPDEST JUMPDEST PUSH2 0x3FD DUP5 DUP3 DUP6 ADD PUSH2 0x392 JUMP JUMPDEST SWAP2 POP POP SWAP3 SWAP2 POP POP JUMP JUMPDEST PUSH0 DUP2 SWAP1 POP SWAP2 SWAP1 POP JUMP JUMPDEST PUSH2 0x418 DUP2 PUSH2 0x406 JUMP JUMPDEST DUP3 MSTORE POP POP JUMP JUMPDEST PUSH0 PUSH1 0x20 DUP3 ADD SWAP1 POP PUSH2 0x431 PUSH0 DUP4 ADD DUP5 PUSH2 0x40F JUMP JUMPDEST SWAP3 SWAP2 POP POP JUMP JUMPDEST PUSH0 DUP2 ISZERO ISZERO SWAP1 POP SWAP2 SWAP1 POP JUMP JUMPDEST PUSH2 0x44B DUP2 PUSH2 0x437 JUMP JUMPDEST DUP3 MSTORE POP POP JUMP JUMPDEST PUSH0 PUSH1 0x20 DUP3 ADD SWAP1 POP PUSH2 0x464 PUSH0 DUP4 ADD DUP5 PUSH2 0x442 JUMP JUMPDEST SWAP3 SWAP2 POP POP JUMP JUMPDEST PUSH0 DUP3 DUP3 MSTORE PUSH1 0x20 DUP3 ADD SWAP1 POP SWAP3 SWAP2 POP POP JUMP JUMPDEST PUSH32 0xE58099E98089E4BABAE4B88DE5AD98E59CA80000000000000000000000000000 PUSH0 DUP3 ADD MSTORE POP JUMP JUMPDEST PUSH0 PUSH2 0x4AE PUSH1 0x12 DUP4 PUSH2 0x46A JUMP JUMPDEST SWAP2 POP PUSH2 0x4B9 DUP3 PUSH2 0x47A JUMP JUMPDEST PUSH1 0x20 DUP3 ADD SWAP1 POP SWAP2 SWAP1 POP JUMP JUMPDEST PUSH0 PUSH1 0x20 DUP3 ADD SWAP1 POP DUP2 DUP2 SUB PUSH0 DUP4 ADD MSTORE PUSH2 0x4DB DUP2 PUSH2 0x4A2 JUMP JUMPDEST SWAP1 POP SWAP2 SWAP1 POP JUMP JUMPDEST PUSH0 DUP2 MLOAD SWAP1 POP SWAP2 SWAP1 POP JUMP JUMPDEST PUSH0 DUP2 SWAP1 POP SWAP3 SWAP2 POP POP JUMP JUMPDEST DUP3 DUP2 DUP4 MCOPY PUSH0 DUP4 DUP4 ADD MSTORE POP POP POP JUMP JUMPDEST PUSH0 PUSH2 0x50E DUP3 PUSH2 0x4E2 JUMP JUMPDEST PUSH2 0x518 DUP2 DUP6 PUSH2 0x4EC JUMP JUMPDEST SWAP4 POP PUSH2 0x528 DUP2 DUP6 PUSH1 0x20 DUP7 ADD PUSH2 0x4F6 JUMP JUMPDEST DUP1 DUP5 ADD SWAP2 POP POP SWAP3 SWAP2 POP POP JUMP JUMPDEST PUSH0 PUSH2 0x53F DUP3 DUP5 PUSH2 0x504 JUMP JUMPDEST SWAP2 POP DUP2 SWAP1 POP SWAP3 SWAP2 POP POP JUMP JUMPDEST PUSH32 0x4E487B7100000000000000000000000000000000000000000000000000000000 PUSH0 MSTORE PUSH1 0x32 PUSH1 0x4 MSTORE PUSH1 0x24 PUSH0 REVERT JUMPDEST PUSH32 0x4E487B7100000000000000000000000000000000000000000000000000000000 PUSH0 MSTORE PUSH1 0x22 PUSH1 0x4 MSTORE PUSH1 0x24 PUSH0 REVERT JUMPDEST PUSH0 PUSH1 0x2 DUP3 DIV SWAP1 POP PUSH1 0x1 DUP3 AND DUP1 PUSH2 0x5BB JUMPI PUSH1 0x7F DUP3 AND SWAP2 POP JUMPDEST PUSH1 0x20 DUP3 LT DUP2 SUB PUSH2 0x5CE JUMPI PUSH2 0x5CD PUSH2 0x577 JUMP JUMPDEST JUMPDEST POP SWAP2 SWAP1 POP JUMP JUMPDEST PUSH0 DUP2 SWAP1 POP DUP2 PUSH0 MSTORE PUSH1 0x20 PUSH0 KECCAK256 SWAP1 POP SWAP2 SWAP1 POP JUMP JUMPDEST PUSH0 DUP2 SLOAD PUSH2 0x5F2 DUP2 PUSH2 0x5A4 JUMP JUMPDEST PUSH2 0x5FC DUP2 DUP7 PUSH2 0x4EC JUMP JUMPDEST SWAP5 POP PUSH1 0x1 DUP3 AND PUSH0 DUP2 EQ PUSH2 0x616 JUMPI PUSH1 0x1 DUP2 EQ PUSH2 0x62B JUMPI PUSH2 0x65D JUMP JUMPDEST PUSH1 0xFF NOT DUP4 AND DUP7 MSTORE DUP2 ISZERO ISZERO DUP3 MUL DUP7 ADD SWAP4 POP PUSH2 0x65D JUMP JUMPDEST PUSH2 0x634 DUP6 PUSH2 0x5D4 JUMP JUMPDEST PUSH0 JUMPDEST DUP4 DUP2 LT ISZERO PUSH2 0x655 JUMPI DUP2 SLOAD DUP2 DUP10 ADD MSTORE PUSH1 0x1 DUP3 ADD SWAP2 POP PUSH1 0x20 DUP2 ADD SWAP1 POP PUSH2 0x636 JUMP JUMPDEST DUP4 DUP9 ADD SWAP6 POP POP POP JUMPDEST POP POP POP SWAP3 SWAP2 POP POP JUMP JUMPDEST PUSH0 PUSH2 0x671 DUP3 DUP5 PUSH2 0x5E6 JUMP JUMPDEST SWAP2 POP DUP2 SWAP1 POP SWAP3 SWAP2 POP POP JUMP JUMPDEST PUSH32 0x4E487B7100000000000000000000000000000000000000000000000000000000 PUSH0 MSTORE PUSH1 0x11 PUSH1 0x4 MSTORE PUSH1 0x24 PUSH0 REVERT JUMPDEST PUSH0 PUSH2 0x6B3 DUP3 PUSH2 0x406 JUMP JUMPDEST SWAP2 POP PUSH2 0x6BE DUP4 PUSH2 0x406 JUMP JUMPDEST SWAP3 POP DUP3 DUP3 ADD SWAP1 POP DUP1 DUP3 GT ISZERO PUSH2 0x6D6 JUMPI PUSH2 0x6D5 PUSH2 0x67C JUMP JUMPDEST JUMPDEST SWAP3 SWAP2 POP POP JUMP JUMPDEST PUSH0 DUP2 SWAP1 POP SWAP3 SWAP2 POP POP JUMP JUMPDEST PUSH0 DUP2 SWAP1 POP DUP2 PUSH0 MSTORE PUSH1 0x20 PUSH0 KECCAK256 SWAP1 POP SWAP2 SWAP1 POP JUMP JUMPDEST PUSH0 DUP2 SLOAD PUSH2 0x704 DUP2 PUSH2 0x5A4 JUMP JUMPDEST PUSH2 0x70E DUP2 DUP7 PUSH2 0x6DC JUMP JUMPDEST SWAP5 POP PUSH1 0x1 DUP3 AND PUSH0 DUP2 EQ PUSH2 0x728 JUMPI PUSH1 0x1 DUP2 EQ PUSH2 0x73D JUMPI PUSH2 0x76F JUMP JUMPDEST PUSH1 0xFF NOT DUP4 AND DUP7 MSTORE DUP2 ISZERO ISZERO DUP3 MUL DUP7 ADD SWAP4 POP PUSH2 0x76F JUMP JUMPDEST PUSH2 0x746 DUP6 PUSH2 0x6E6 JUMP JUMPDEST PUSH0 JUMPDEST DUP4 DUP2 LT ISZERO PUSH2 0x767 JUMPI DUP2 SLOAD DUP2 DUP10 ADD MSTORE PUSH1 0x1 DUP3 ADD SWAP2 POP PUSH1 0x20 DUP2 ADD SWAP1 POP PUSH2 0x748 JUMP JUMPDEST DUP4 DUP9 ADD SWAP6 POP POP POP JUMPDEST POP POP POP SWAP3 SWAP2 POP POP JUMP JUMPDEST PUSH0 PUSH2 0x783 DUP3 DUP5 PUSH2 0x6F8 JUMP JUMPDEST SWAP2 POP DUP2 SWAP1 POP SWAP3 SWAP2 POP POP JUMP INVALID LOG2 PUSH5 0x6970667358 0x22 SLT KECCAK256 PUSH3 0x690A67 0x21 PUSH18 0xFC5A51483519C2A1AA70C6394F5DFE2BC85B 0xC7 0x1F PUSH26 0x552EA0BE6C64736F6C634300081E003300000000000000000000 "
				},
				"gasEstimates": {
					"creation": {
						"codeDepositCost": "397600",
						"executionCost": "infinite",
						"totalCost": "infinite"
					},
					"external": {
						"getVotes(string)": "infinite",
						"resetVotes()": "infinite",
						"vote(string)": "infinite"
					},
					"internal": {
						"_isValidCandidate(string memory)": "infinite"
					}
				},
				"methodIdentifiers": {
					"getVotes(string)": "805265e5",
					"resetVotes()": "b9830ff1",
					"vote(string)": "fc36e15b"
				}
			},
			"storageLayout": {
				"storage": [
					{
						"astId": 5,
						"contract": "Basic_Grammar_Tasks/Task1.sol:Voting",
						"label": "votes",
						"offset": 0,
						"slot": "0",
						"type": "t_mapping(t_string_memory_ptr,t_uint256)"
					},
					{
						"astId": 8,
						"contract": "Basic_Grammar_Tasks/Task1.sol:Voting",
						"label": "candidates",
						"offset": 0,
						"slot": "1",
						"type": "t_array(t_string_storage)dyn_storage"
					}
				],
				"types": {
					"t_array(t_string_storage)dyn_storage": {
						"base": "t_string_storage",
						"encoding": "dynamic_array",
						"label": "string[]",
						"numberOfBytes": "32"
					},
					"t_mapping(t_string_memory_ptr,t_uint256)": {
						"encoding": "mapping",
						"key": "t_string_memory_ptr",
						"label": "mapping(string => uint256)",
						"numberOfBytes": "32",
						"value": "t_uint256"
					},
					"t_string_memory_ptr": {
						"encoding": "bytes",
						"label": "string",
						"numberOfBytes": "32"
					},
					"t_string_storage": {
						"encoding": "bytes",
						"label": "string",
						"numberOfBytes": "32"
					},
					"t_uint256": {
						"encoding": "inplace",
						"label": "uint256",
						"numberOfBytes": "32"
					}
				}
			},
			"userdoc": {
				"kind": "user",
				"methods": {},
				"version": 1
			}
		}
	}
}