{
	"data": {
		"bytecode": {
			"linkReferences": {},
			"object": "6080604052348015600e575f5ffd5b5061068a8061001c5f395ff3fe608060405234801561000f575f5ffd5b5060043610610029575f3560e01c80638e13aff11461002d575b5f5ffd5b6100476004803603810190610042919061042a565b61005d565b6040516100549190610557565b60405180910390f35b60605f5f90505f5f90505f5f90505f8551875161007a91906105ad565b67ffffffffffffffff811115610093576100926102bb565b5b6040519080825280602002602001820160405280156100c15781602001602082028036833780820191505090505b5090505b8651841080156100d55750855183105b156101bf578583815181106100ed576100ec6105e0565b5b6020026020010151878581518110610108576101076105e0565b5b6020026020010151121561016357868481518110610129576101286105e0565b5b6020026020010151818381518110610144576101436105e0565b5b602002602001018181525050838061015b9061060d565b9450506101ac565b858381518110610176576101756105e0565b5b6020026020010151818381518110610191576101906105e0565b5b60200260200101818152505082806101a89061060d565b9350505b81806101b79061060d565b9250506100c5565b5b8651841015610224578684815181106101dc576101db6105e0565b5b60200260200101518183815181106101f7576101f66105e0565b5b602002602001018181525050838061020e9061060d565b945050818061021c9061060d565b9250506101c0565b5b855183101561028957858381518110610241576102406105e0565b5b602002602001015181838151811061025c5761025b6105e0565b5b60200260200101818152505082806102739061060d565b93505081806102819061060d565b925050610225565b8094505050505092915050565b5f604051905090565b5f5ffd5b5f5ffd5b5f5ffd5b5f601f19601f8301169050919050565b7f4e487b71000000000000000000000000000000000000000000000000000000005f52604160045260245ffd5b6102f1826102ab565b810181811067ffffffffffffffff821117156103105761030f6102bb565b5b80604052505050565b5f610322610296565b905061032e82826102e8565b919050565b5f67ffffffffffffffff82111561034d5761034c6102bb565b5b602082029050602081019050919050565b5f5ffd5b5f819050919050565b61037481610362565b811461037e575f5ffd5b50565b5f8135905061038f8161036b565b92915050565b5f6103a76103a284610333565b610319565b905080838252602082019050602084028301858111156103ca576103c961035e565b5b835b818110156103f357806103df8882610381565b8452602084019350506020810190506103cc565b5050509392505050565b5f82601f830112610411576104106102a7565b5b8135610421848260208601610395565b91505092915050565b5f5f604083850312156104405761043f61029f565b5b5f83013567ffffffffffffffff81111561045d5761045c6102a3565b5b610469858286016103fd565b925050602083013567ffffffffffffffff81111561048a576104896102a3565b5b610496858286016103fd565b9150509250929050565b5f81519050919050565b5f82825260208201905092915050565b5f819050602082019050919050565b6104d281610362565b82525050565b5f6104e383836104c9565b60208301905092915050565b5f602082019050919050565b5f610505826104a0565b61050f81856104aa565b935061051a836104ba565b805f5b8381101561054a57815161053188826104d8565b975061053c836104ef565b92505060018101905061051d565b5085935050505092915050565b5f6020820190508181035f83015261056f81846104fb565b905092915050565b5f819050919050565b7f4e487b71000000000000000000000000000000000000000000000000000000005f52601160045260245ffd5b5f6105b782610577565b91506105c283610577565b92508282019050808211156105da576105d9610580565b5b92915050565b7f4e487b71000000000000000000000000000000000000000000000000000000005f52603260045260245ffd5b5f61061782610577565b91507fffffffffffffffffffffffffffffffffffffffffffffffffffffffffffffffff820361064957610648610580565b5b60018201905091905056fea264697066735822122028c297e3cfa926b6055386d657088748e299355a70e4e111d73f0d9aab1ddcb564736f6c634300081e0033",
			"opcodes": "PUSH1 0x80 PUSH1 0x40 MSTORE CALLVALUE DUP1 ISZERO PUSH1 0xE JUMPI PUSH0 PUSH0 REVERT JUMPDEST POP PUSH2 0x68A DUP1 PUSH2 0x1C PUSH0 CODECOPY PUSH0 RETURN INVALID PUSH1 0x80 PUSH1 0x40 MSTORE CALLVALUE DUP1 ISZERO PUSH2 0xF JUMPI PUSH0 PUSH0 REVERT JUMPDEST POP PUSH1 0x4 CALLDATASIZE LT PUSH2 0x29 JUMPI PUSH0 CALLDATALOAD PUSH1 0xE0 SHR DUP1 PUSH4 0x8E13AFF1 EQ PUSH2 0x2D JUMPI JUMPDEST PUSH0 PUSH0 REVERT JUMPDEST PUSH2 0x47 PUSH1 0x4 DUP1 CALLDATASIZE SUB DUP2 ADD SWAP1 PUSH2 0x42 SWAP2 SWAP1 PUSH2 0x42A JUMP JUMPDEST PUSH2 0x5D JUMP JUMPDEST PUSH1 0x40 MLOAD PUSH2 0x54 SWAP2 SWAP1 PUSH2 0x557 JUMP JUMPDEST PUSH1 0x40 MLOAD DUP1 SWAP2 SUB SWAP1 RETURN JUMPDEST PUSH1 0x60 PUSH0 PUSH0 SWAP1 POP PUSH0 PUSH0 SWAP1 POP PUSH0 PUSH0 SWAP1 POP PUSH0 DUP6 MLOAD DUP8 MLOAD PUSH2 0x7A SWAP2 SWAP1 PUSH2 0x5AD JUMP JUMPDEST PUSH8 0xFFFFFFFFFFFFFFFF DUP2 GT ISZERO PUSH2 0x93 JUMPI PUSH2 0x92 PUSH2 0x2BB JUMP JUMPDEST JUMPDEST PUSH1 0x40 MLOAD SWAP1 DUP1 DUP3 MSTORE DUP1 PUSH1 0x20 MUL PUSH1 0x20 ADD DUP3 ADD PUSH1 0x40 MSTORE DUP1 ISZERO PUSH2 0xC1 JUMPI DUP2 PUSH1 0x20 ADD PUSH1 0x20 DUP3 MUL DUP1 CALLDATASIZE DUP4 CALLDATACOPY DUP1 DUP3 ADD SWAP2 POP POP SWAP1 POP JUMPDEST POP SWAP1 POP JUMPDEST DUP7 MLOAD DUP5 LT DUP1 ISZERO PUSH2 0xD5 JUMPI POP DUP6 MLOAD DUP4 LT JUMPDEST ISZERO PUSH2 0x1BF JUMPI DUP6 DUP4 DUP2 MLOAD DUP2 LT PUSH2 0xED JUMPI PUSH2 0xEC PUSH2 0x5E0 JUMP JUMPDEST JUMPDEST PUSH1 0x20 MUL PUSH1 0x20 ADD ADD MLOAD DUP8 DUP6 DUP2 MLOAD DUP2 LT PUSH2 0x108 JUMPI PUSH2 0x107 PUSH2 0x5E0 JUMP JUMPDEST JUMPDEST PUSH1 0x20 MUL PUSH1 0x20 ADD ADD MLOAD SLT ISZERO PUSH2 0x163 JUMPI DUP7 DUP5 DUP2 MLOAD DUP2 LT PUSH2 0x129 JUMPI PUSH2 0x128 PUSH2 0x5E0 JUMP JUMPDEST JUMPDEST PUSH1 0x20 MUL PUSH1 0x20 ADD ADD MLOAD DUP2 DUP4 DUP2 MLOAD DUP2 LT PUSH2 0x144 JUMPI PUSH2 0x143 PUSH2 0x5E0 JUMP JUMPDEST JUMPDEST PUSH1 0x20 MUL PUSH1 0x20 ADD ADD DUP2 DUP2 MSTORE POP POP DUP4 DUP1 PUSH2 0x15B SWAP1 PUSH2 0x60D JUMP JUMPDEST SWAP5 POP POP PUSH2 0x1AC JUMP JUMPDEST DUP6 DUP4 DUP2 MLOAD DUP2 LT PUSH2 0x176 JUMPI PUSH2 0x175 PUSH2 0x5E0 JUMP JUMPDEST JUMPDEST PUSH1 0x20 MUL PUSH1 0x20 ADD ADD MLOAD DUP2 DUP4 DUP2 MLOAD DUP2 LT PUSH2 0x191 JUMPI PUSH2 0x190 PUSH2 0x5E0 JUMP JUMPDEST JUMPDEST PUSH1 0x20 MUL PUSH1 0x20 ADD ADD DUP2 DUP2 MSTORE POP POP DUP3 DUP1 PUSH2 0x1A8 SWAP1 PUSH2 0x60D JUMP JUMPDEST SWAP4 POP POP JUMPDEST DUP2 DUP1 PUSH2 0x1B7 SWAP1 PUSH2 0x60D JUMP JUMPDEST SWAP3 POP POP PUSH2 0xC5 JUMP JUMPDEST JUMPDEST DUP7 MLOAD DUP5 LT ISZERO PUSH2 0x224 JUMPI DUP7 DUP5 DUP2 MLOAD DUP2 LT PUSH2 0x1DC JUMPI PUSH2 0x1DB PUSH2 0x5E0 JUMP JUMPDEST JUMPDEST PUSH1 0x20 MUL PUSH1 0x20 ADD ADD MLOAD DUP2 DUP4 DUP2 MLOAD DUP2 LT PUSH2 0x1F7 JUMPI PUSH2 0x1F6 PUSH2 0x5E0 JUMP JUMPDEST JUMPDEST PUSH1 0x20 MUL PUSH1 0x20 ADD ADD DUP2 DUP2 MSTORE POP POP DUP4 DUP1 PUSH2 0x20E SWAP1 PUSH2 0x60D JUMP JUMPDEST SWAP5 POP POP DUP2 DUP1 PUSH2 0x21C SWAP1 PUSH2 0x60D JUMP JUMPDEST SWAP3 POP POP PUSH2 0x1C0 JUMP JUMPDEST JUMPDEST DUP6 MLOAD DUP4 LT ISZERO PUSH2 0x289 JUMPI DUP6 DUP4 DUP2 MLOAD DUP2 LT PUSH2 0x241 JUMPI PUSH2 0x240 PUSH2 0x5E0 JUMP JUMPDEST JUMPDEST PUSH1 0x20 MUL PUSH1 0x20 ADD ADD MLOAD DUP2 DUP4 DUP2 MLOAD DUP2 LT PUSH2 0x25C JUMPI PUSH2 0x25B PUSH2 0x5E0 JUMP JUMPDEST JUMPDEST PUSH1 0x20 MUL PUSH1 0x20 ADD ADD DUP2 DUP2 MSTORE POP POP DUP3 DUP1 PUSH2 0x273 SWAP1 PUSH2 0x60D JUMP JUMPDEST SWAP4 POP POP DUP2 DUP1 PUSH2 0x281 SWAP1 PUSH2 0x60D JUMP JUMPDEST SWAP3 POP POP PUSH2 0x225 JUMP JUMPDEST DUP1 SWAP5 POP POP POP POP POP SWAP3 SWAP2 POP POP JUMP JUMPDEST PUSH0 PUSH1 0x40 MLOAD SWAP1 POP SWAP1 JUMP JUMPDEST PUSH0 PUSH0 REVERT JUMPDEST PUSH0 PUSH0 REVERT JUMPDEST PUSH0 PUSH0 REVERT JUMPDEST PUSH0 PUSH1 0x1F NOT PUSH1 0x1F DUP4 ADD AND SWAP1 POP SWAP2 SWAP1 POP JUMP JUMPDEST PUSH32 0x4E487B7100000000000000000000000000000000000000000000000000000000 PUSH0 MSTORE PUSH1 0x41 PUSH1 0x4 MSTORE PUSH1 0x24 PUSH0 REVERT JUMPDEST PUSH2 0x2F1 DUP3 PUSH2 0x2AB JUMP JUMPDEST DUP2 ADD DUP2 DUP2 LT PUSH8 0xFFFFFFFFFFFFFFFF DUP3 GT OR ISZERO PUSH2 0x310 JUMPI PUSH2 0x30F PUSH2 0x2BB JUMP JUMPDEST JUMPDEST DUP1 PUSH1 0x40 MSTORE POP POP POP JUMP JUMPDEST PUSH0 PUSH2 0x322 PUSH2 0x296 JUMP JUMPDEST SWAP1 POP PUSH2 0x32E DUP3 DUP3 PUSH2 0x2E8 JUMP JUMPDEST SWAP2 SWAP1 POP JUMP JUMPDEST PUSH0 PUSH8 0xFFFFFFFFFFFFFFFF DUP3 GT ISZERO PUSH2 0x34D JUMPI PUSH2 0x34C PUSH2 0x2BB JUMP JUMPDEST JUMPDEST PUSH1 0x20 DUP3 MUL SWAP1 POP PUSH1 0x20 DUP2 ADD SWAP1 POP SWAP2 SWAP1 POP JUMP JUMPDEST PUSH0 PUSH0 REVERT JUMPDEST PUSH0 DUP2 SWAP1 POP SWAP2 SWAP1 POP JUMP JUMPDEST PUSH2 0x374 DUP2 PUSH2 0x362 JUMP JUMPDEST DUP2 EQ PUSH2 0x37E JUMPI PUSH0 PUSH0 REVERT JUMPDEST POP JUMP JUMPDEST PUSH0 DUP2 CALLDATALOAD SWAP1 POP PUSH2 0x38F DUP2 PUSH2 0x36B JUMP JUMPDEST SWAP3 SWAP2 POP POP JUMP JUMPDEST PUSH0 PUSH2 0x3A7 PUSH2 0x3A2 DUP5 PUSH2 0x333 JUMP JUMPDEST PUSH2 0x319 JUMP JUMPDEST SWAP1 POP DUP1 DUP4 DUP3 MSTORE PUSH1 0x20 DUP3 ADD SWAP1 POP PUSH1 0x20 DUP5 MUL DUP4 ADD DUP6 DUP2 GT ISZERO PUSH2 0x3CA JUMPI PUSH2 0x3C9 PUSH2 0x35E JUMP JUMPDEST JUMPDEST DUP4 JUMPDEST DUP2 DUP2 LT ISZERO PUSH2 0x3F3 JUMPI DUP1 PUSH2 0x3DF DUP9 DUP3 PUSH2 0x381 JUMP JUMPDEST DUP5 MSTORE PUSH1 0x20 DUP5 ADD SWAP4 POP POP PUSH1 0x20 DUP2 ADD SWAP1 POP PUSH2 0x3CC JUMP JUMPDEST POP POP POP SWAP4 SWAP3 POP POP POP JUMP JUMPDEST PUSH0 DUP3 PUSH1 0x1F DUP4 ADD SLT PUSH2 0x411 JUMPI PUSH2 0x410 PUSH2 0x2A7 JUMP JUMPDEST JUMPDEST DUP2 CALLDATALOAD PUSH2 0x421 DUP5 DUP3 PUSH1 0x20 DUP7 ADD PUSH2 0x395 JUMP JUMPDEST SWAP2 POP POP SWAP3 SWAP2 POP POP JUMP JUMPDEST PUSH0 PUSH0 PUSH1 0x40 DUP4 DUP6 SUB SLT ISZERO PUSH2 0x440 JUMPI PUSH2 0x43F PUSH2 0x29F JUMP JUMPDEST JUMPDEST PUSH0 DUP4 ADD CALLDATALOAD PUSH8 0xFFFFFFFFFFFFFFFF DUP2 GT ISZERO PUSH2 0x45D JUMPI PUSH2 0x45C PUSH2 0x2A3 JUMP JUMPDEST JUMPDEST PUSH2 0x469 DUP6 DUP3 DUP7 ADD PUSH2 0x3FD JUMP JUMPDEST SWAP3 POP POP PUSH1 0x20 DUP4 ADD CALLDATALOAD PUSH8 0xFFFFFFFFFFFFFFFF DUP2 GT ISZERO PUSH2 0x48A JUMPI PUSH2 0x489 PUSH2 0x2A3 JUMP JUMPDEST JUMPDEST PUSH2 0x496 DUP6 DUP3 DUP7 ADD PUSH2 0x3FD JUMP JUMPDEST SWAP2 POP POP SWAP3 POP SWAP3 SWAP1 POP JUMP JUMPDEST PUSH0 DUP2 MLOAD SWAP1 POP SWAP2 SWAP1 POP JUMP JUMPDEST PUSH0 DUP3 DUP3 MSTORE PUSH1 0x20 DUP3 ADD SWAP1 POP SWAP3 SWAP2 POP POP JUMP JUMPDEST PUSH0 DUP2 SWAP1 POP PUSH1 0x20 DUP3 ADD SWAP1 POP SWAP2 SWAP1 POP JUMP JUMPDEST PUSH2 0x4D2 DUP2 PUSH2 0x362 JUMP JUMPDEST DUP3 MSTORE POP POP JUMP JUMPDEST PUSH0 PUSH2 0x4E3 DUP4 DUP4 PUSH2 0x4C9 JUMP JUMPDEST PUSH1 0x20 DUP4 ADD SWAP1 POP SWAP3 SWAP2 POP POP JUMP JUMPDEST PUSH0 PUSH1 0x20 DUP3 ADD SWAP1 POP SWAP2 SWAP1 POP JUMP JUMPDEST PUSH0 PUSH2 0x505 DUP3 PUSH2 0x4A0 JUMP JUMPDEST PUSH2 0x50F DUP2 DUP6 PUSH2 0x4AA JUMP JUMPDEST SWAP4 POP PUSH2 0x51A DUP4 PUSH2 0x4BA JUMP JUMPDEST DUP1 PUSH0 JUMPDEST DUP4 DUP2 LT ISZERO PUSH2 0x54A JUMPI DUP2 MLOAD PUSH2 0x531 DUP9 DUP3 PUSH2 0x4D8 JUMP JUMPDEST SWAP8 POP PUSH2 0x53C DUP4 PUSH2 0x4EF JUMP JUMPDEST SWAP3 POP POP PUSH1 0x1 DUP2 ADD SWAP1 POP PUSH2 0x51D JUMP JUMPDEST POP DUP6 SWAP4 POP POP POP POP SWAP3 SWAP2 POP POP JUMP JUMPDEST PUSH0 PUSH1 0x20 DUP3 ADD SWAP1 POP DUP2 DUP2 SUB PUSH0 DUP4 ADD MSTORE PUSH2 0x56F DUP2 DUP5 PUSH2 0x4FB JUMP JUMPDEST SWAP1 POP SWAP3 SWAP2 POP POP JUMP JUMPDEST PUSH0 DUP2 SWAP1 POP SWAP2 SWAP1 POP JUMP JUMPDEST PUSH32 0x4E487B7100000000000000000000000000000000000000000000000000000000 PUSH0 MSTORE PUSH1 0x11 PUSH1 0x4 MSTORE PUSH1 0x24 PUSH0 REVERT JUMPDEST PUSH0 PUSH2 0x5B7 DUP3 PUSH2 0x577 JUMP JUMPDEST SWAP2 POP PUSH2 0x5C2 DUP4 PUSH2 0x577 JUMP JUMPDEST SWAP3 POP DUP3 DUP3 ADD SWAP1 POP DUP1 DUP3 GT ISZERO PUSH2 0x5DA JUMPI PUSH2 0x5D9 PUSH2 0x580 JUMP JUMPDEST JUMPDEST SWAP3 SWAP2 POP POP JUMP JUMPDEST PUSH32 0x4E487B7100000000000000000000000000000000000000000000000000000000 PUSH0 MSTORE PUSH1 0x32 PUSH1 0x4 MSTORE PUSH1 0x24 PUSH0 REVERT JUMPDEST PUSH0 PUSH2 0x617 DUP3 PUSH2 0x577 JUMP JUMPDEST SWAP2 POP PUSH32 0xFFFFFFFFFFFFFFFFFFFFFFFFFFFFFFFFFFFFFFFFFFFFFFFFFFFFFFFFFFFFFFFF DUP3 SUB PUSH2 0x649 JUMPI PUSH2 0x648 PUSH2 0x580 JUMP JUMPDEST JUMPDEST PUSH1 0x1 DUP3 ADD SWAP1 POP SWAP2 SWAP1 POP JUMP INVALID LOG2 PUSH5 0x6970667358 0x22 SLT KECCAK256 0x28 0xC2 SWAP8 CALLF 0xCFA9 0x26 0xB6 SDIV MSTORE8 DUP7 0xD6 JUMPI ADDMOD DUP8 BASEFEE 0xE2 SWAP10 CALLDATALOAD GAS PUSH17 0xE4E111D73F0D9AAB1DDCB564736F6C6343 STOP ADDMOD 0x1E STOP CALLER "
		},
		"gasEstimates": {
			"creation": {
				"codeDepositCost": "334800",
				"executionCost": "372",
				"totalCost": "335172"
			},
			"external": {
				"merge(int256[],int256[])": "infinite"
			}
		},
		"methodIdentifiers": {
			"merge(int256[],int256[])": "8e13aff1"
		}
	},
	"abi": [
		{
			"inputs": [
				{
					"internalType": "int256[]",
					"name": "arr1",
					"type": "int256[]"
				},
				{
					"internalType": "int256[]",
					"name": "arr2",
					"type": "int256[]"
				}
			],
			"name": "merge",
			"outputs": [
				{
					"internalType": "int256[]",
					"name": "",
					"type": "int256[]"
				}
			],
			"stateMutability": "pure",
			"type": "function"
		}
	]
}